:100000000C944C000C9469000C9469000C946900E9
:100010000C9469000C9469000C9469000C946900BC
:100020000C9469000C9469000C9469000C94A6105F
:100030000C9469000C9469000C9469000C9469009C
:100040000C9469000C9469000C9469000C9469008C
:100050000C9469000C9469000C9469000C9469007C
:100060000C9469000C9469009603AE0398039A03FC
:100070009C039E03A003A203A403A603A803AA0350
:10008000911096109110A1109110A1109110911043
:10009000A1109110A110911011241FBECFEFD8E034
:1000A000DEBFCDBF14E0A0E0B1E0E2ECF3E202C0BD
:1000B00005900D92A838B107D9F724E0A8E8B4E07C
:1000C00001C01D92AD3EB207E1F70E9424110C94CD
:1000D000DF110C940000DC0160E022C0262F30E02C
:1000E000492F50E0F901EE0FFF1FE20FF31FEE0F53
:1000F000FF1FE553FB4F9A01E20FF31F4081FD0103
:10010000E20FF31F808148130AC0953019F481E093
:10011000860F08959F5F01C090E09630F8F26F5F00
:100120006530D0F380E00895E82FF0E0E955FB4F0B
:100130008081833011F481E0089580E00895DC012E
:1001400090E017C020918E0430E0492F50E0FD016F
:10015000E40FF51F6081F901EE0FFF1FEE0FFF1F87
:100160002E0F3F1F21573B4FF901E40FF51F60830E
:100170009F5F953038F30895DC0190E017C020911F
:100180008E0430E0492F50E0FD01E40FF51F60813F
:10019000F901EE0FFF1F2E0F3F1F220F331F2553B4
:1001A0003B4FF901E40FF51F60839F5F963038F3F2
:1001B0000895DC0190E017C020918E0430E0492FB3
:1001C00050E0FD01E40FF51F6081F901EE0FFF1F04
:1001D0002E0F3F1F220F331F23553B4FF901E40F12
:1001E000F51F60839F5F963038F308950F931F9338
:1001F000CF93DF9320918E042530B8F4EB018C016E
:10020000CA010E949F00C8010E94BC00CE010E944A
:10021000D90080918E04E82FF0E0E855FB4F108262
:100220008F5F80938E0481E001C080E0DF91CF91E9
:100230001F910F910895CF92DF92EF92FF920F934B
:100240001F93CF93DF938150E0E0F0E0C12CD12CDD
:1002500090E067C0923059F028F4992341F0913032
:1002600079F00BC0933061F0943021F006C041E08A
:1002700050E008C044E650E005C040E050E002C055
:100280004AE050E0923038F5A92FB0E024E030E0A9
:1002900089010A1B1B0B282F30E07901EE0CFF1C93
:1002A000EE0CFF1C2E0D3F1D21573B4F200F311F21
:1002B000E9012881ED01C60FD71FC88130E02C1B52
:1002C0003109429FE001439FD00D529FD00D112470
:1002D000CC0EDD1E25C0C92FD0E024E030E089011E
:1002E0000C1B1D0B282F30E07901EE0CFF1CEE0CCF
:1002F000FF1C2E0D3F1D21573B4F200F311FD901F1
:100300002C91C60FD71FC88130E02C1B3109429FAA
:10031000E001439FD00D529FD00D1124EC0FFD1F23
:100320009F5F953008F496CFDD2024F43197B4E632
:10033000CB0ED11CC82FD0E02AE030E0C601B901B5
:100340000E94B111AE01440F551F440F551FC40F39
:10035000D51FC157DB4F805D8C83605D6B83CF0100
:1003600064E670E00E94B111CF0144E6649F8019F9
:1003700091091124605D6883B9010E94B111605D2B
:100380006983805D8A83DF91CF911F910F91FF90E8
:10039000EF90DF90CF900895815090E0FC01EE0F38
:1003A000FF1FEE0FFF1FE80FF91FE157FB4F3081D2
:1003B000FB012481231708F49AC032130FC0FC01FB
:1003C000EE0FFF1FEE0FFF1FE80FF91FE157FB4F66
:1003D0005181FB014381451708F48BC032131DC0C6
:1003E000FC01EE0FFF1FEE0FFF1FE80FF91FE15793
:1003F000FB4F5181FB01438154130FC0FC01EE0FF1
:10040000FF1FEE0FFF1FE80FF91FE157FB4F52814F
:10041000FB014281451708F46EC032132BC0FC016A
:10042000EE0FFF1FEE0FFF1FE80FF91FE157FB4F05
:100430005181FB01438154131DC0FC01EE0FFF1FCE
:10044000EE0FFF1FE80FF91FE157FB4F5281FB0131
:10045000428154130FC0FC01EE0FFF1FEE0FFF1F70
:10046000E80FF91FE157FB4F5381FB01418145170D
:1004700008F443C0321343C0FC01EE0FFF1FEE0F20
:10048000FF1FE80FF91FE157FB4F3181FB0123816B
:10049000321337C0FC01EE0FFF1FEE0FFF1FE80FF6
:1004A000F91FE157FB4F3281FB01228132132BC030
:1004B000FC01EE0FFF1FEE0FFF1FE80FF91FE157C2
:1004C000FB4F3381FB01218132131FC0FC01EE0F72
:1004D000FF1FEE0FFF1F8E0F9F1FFC01E157FB4F09
:1004E0009481FB018081981790F480E0089581E069
:1004F000089581E0089581E0089581E0089580E005
:10050000089580E0089580E0089580E0089581E0F6
:100510000895FB0190E01CC0492F50E0DF01A40FBB
:10052000B51F7C91282F30E021503109D901AA0F45
:10053000BB1F2A0F3B1F220F331F23553B4FD901EF
:10054000A40FB51F2C91721307C0953039F09F5F2F
:10055000963010F381E0089580E0089581E00895D9
:100560000F931F93CF93C82F8B01BA010E9489026A
:10057000882319F1B8018C2F0E949400882351F030
:10058000F801838182508383EC2FF0E0E955FB4F23
:10059000108207C0EC2FF0E0E955FB4F80818F5FA0
:1005A0008083B8018C2F0E94CC01882341F0B801D0
:1005B0008C2F0E941B0181E003C082E001C080E01B
:1005C000CF911F910F910895DC0114968C9114978F
:1005D0008033C9F013969C9113979032A1F4129630
:1005E0009C911297903279F411969C9111979032C8
:1005F00051F49C91903239F412968C93129780E2C8
:1006000014968C93149714968C9114978032E1F081
:1006100013969C9113979032B9F012962C911297E1
:10062000203291F411962C911197203269F42C917B
:10063000203251F412969C93129713968C93139731
:1006400080E214968C93149720E030E00CC0C9012E
:10065000FD01E20FF31F2081203211F420E32083FB
:100660009C012F5F3F4F253031058CF3089587B1F2
:10067000807F87B98AB18F788AB987B1806187B95D
:1006800088B18F6088B980E026C09AB120E130E05F
:10069000082E02C0220F331F0A94E2F7292B2AB931
:1006A000E7ECF0E03197F1F700C0000090E010C0F7
:1006B00026B130E0092E02C0359527950A94E2F75D
:1006C00020FD05C0292F220F920F890F08959F5FEB
:1006D000943070F38F5F8330C0F289E108951F93E7
:1006E000CF93DF930E943703182FD0E00FC08FE71E
:1006F0009EE30197F1F700C000000E943703C82F66
:10070000181302C0DF5F01C0D0E01C2FDA3078F38D
:100710008C2FDF91CF911F91089590E08C3091053F
:10072000D8F4FC01EC5CFF4F0C94C51181E00895F6
:1007300083E0089584E0089585E0089586E00895B3
:1007400087E0089588E0089589E008958AE0089593
:100750008BE008958CE0089589E1089582E0089582
:100760009093C5008093C40088E18093C10089E024
:100770008093C20008959091C00095FFFCCF8093B4
:10078000C60008958091C0008823E4F78091C600D8
:1007900008952091C000222314F00196089520911D
:1007A000C600222329F088B18F7E88B980E090E0CE
:1007B000089595B19F7795B995B19F7B95B995B1FE
:1007C0009F7D95B995B19F7E95B988231CF495B10D
:1007D000906895B986FF03C095B1906495B985FF7F
:1007E00003C095B1906295B984FF03C085B1806163
:1007F00085B985B1826085B985E08A95F1F70000F9
:1008000085B18D7F85B985E08A95F1F7000008955F
:10081000CF93C82F85B1816085B985B18D7F85B9AA
:100820008C2F0E94D9038C2F8295807F0E94D90340
:10083000CF9108950F931F93CF93DF9300D0CDB73F
:10084000DEB78C011A82198210C0E981FA81E00FAB
:10085000F11F80810E94080489819A8101969A8300
:10086000898385ED8A95F1F70000E981FA81E00F2F
:10087000F11F80818111E9CF0F900F90DF91CF910F
:100880001F910F910895CF93C82F85B18E7F85B9A1
:1008900085B18D7F85B98C2F0E94D9038C2F8295CD
:1008A000807F0E94D90385ED8A95F1F70000CF91F2
:1008B0000895EF92FF920F931F93CF93DF937C01E4
:1008C00000E010E00E946F038931E1F3C1E3C80F3B
:1008D000CA33E1F410161106ACF7C2E0C00FC06CC9
:1008E0008C2F0E94430488E594E00E941A048C2F08
:1008F0000E944304E4E0F0E0E01BF10B3196EE0DC2
:10090000FF1D80E2808301501109DCCFCC3321F43C
:10091000F70185818033E1F4053011059CF6CB3376
:1009200009F4C0E3E4E0F0E0E01BF10BEE0DFF1D85
:10093000C083D3E0D00FD06C8D2F0E9443048C2F46
:100940000E9408048D2F0E9443040F5F1F4FBACFEF
:10095000DF91CF911F910F91FF90EF90089583EF5A
:1009600084B985B18E7F85B985B18D7F85B980E3E6
:100970000E94D9038FE39CE90197F1F700C00000C2
:1009800088E20E94D90395ED9A95F1F7000088E27C
:100990000E94430488E00E94430481E00E944304D3
:1009A00086E00E9443040895CF93DF93EC01DB01BE
:1009B00081E020E030E00EC0A901FE01E20FF31F4C
:1009C0007081FD01E20FF31F9081791380E09A019D
:1009D0002F5F3F4F243031057CF3DF91CF91089595
:1009E000FF920F931F93CF93DF938C010E946F03AD
:1009F0000E948D03F801808380EC0E94430480E014
:100A0000C0E0D0E03FC00E946F03F80180838931CD
:100A1000D1F08B30C1F08930B1F0C430D1059CF4F5
:100A20008F5C80838B3311F480E38083F8018081B5
:100A3000FE01EE5FFE4F808387E391E00E941A047F
:100A4000219680E01FC08930C1F41C161D0674F485
:100A50008C2F8150806CF82E0E94430488E594E02E
:100A60000E941A048F2D0E944304219786E4FE0100
:100A7000EE5FFE4F808380E005C08B3011F080E098
:100A800001C081E0882309F4BECF209709F4BBCFD1
:100A900089E1F8018083DF91CF911F910F91FF9041
:100AA000089581E00E94430480E80E94430489E3A2
:100AB00091E00E941A0480EC0E94430487E491E0D4
:100AC0000E941A04089583E591E00E941A0480ECC4
:100AD0000E9443048FE591E00E941A042FEF83EDFA
:100AE00090E3215080409040E1F700C0000083E097
:100AF0000E944304089581E00E94430480E80E941C
:100B0000430489E691E00E941A0480EC0E944304A9
:100B100089E791E00E941A0408950E947B050E94D3
:100B20006F038931E1F38F5F089581E00E944304F0
:100B300080E80E9443048AE891E00E941A0480EC55
:100B40000E94430488E991E00E941A040895CF931B
:100B50000E949505C9E115C00E946F03C82F8091BE
:100B6000C000882374F40E94C203833451F40E94AD
:100B7000C2038D3419F0873549F003C081E090E05D
:100B800007C0C93149F383E090E002C082E090E001
:100B9000CF91089581E00E94430480E80E944304BD
:100BA00086EA91E00E941A0480EC0E94430484EBE0
:100BB00091E00E941A042FEF8FE493EC21508040C3
:100BC0009040E1F700C00000089581E00E944304D6
:100BD00080E80E94430480EC91E00E941A0480ECBB
:100BE0000E9443048BEC91E00E941A042FEF8BE7E4
:100BF00092E9215080409040E1F700C00000089544
:100C000081E00E94430480E80E94430480EC91E06C
:100C10000E941A0480EC0E9443048BED91E00E9434
:100C20001A042FEF8BE792E9215080409040E1F7C2
:100C300000C00000089581E00E94430480E80E9403
:100C4000430480EC91E00E941A0480EC0E9443046B
:100C500088EE91E00E941A042FEF8BE792E9215071
:100C600080409040E1F700C000000895EF92FF92AD
:100C70001F93CF93DF937C0110E053C081E00E946B
:100C8000430482E00E94430488EF91E00E941A042A
:100C9000C7010E94F004C0E0D0E03DC011110CC0BB
:100CA000BE01660F771F660F771F6A5F7E4F82E077
:100CB00091E00E94D404182F112361F181E00E9479
:100CC000430480E80E94430487E092E00E941A04F3
:100CD00080EC0E944304C11105C081E192E00E94B2
:100CE0001A040DC0C13029F48FE192E00E941A0469
:100CF00006C0C23021F48AE292E00E941A042FEF6B
:100D000087EA91E6215080409040E1F700C0000062
:100D10008C2F0BC02196C330D1050CF4BFCF0E949D
:100D20001B06112309F4AACF8FEFDF91CF911F91FA
:100D3000FF90EF90089581E00E94430480E80E94B4
:100D4000430485E392E00E941A0480EC0E9443046D
:100D5000089581E00E94430480E80E94430485E4F2
:100D600092E00E941A0480EC0E94430484E592E021
:100D70000E941A04089581E00E94430480E80E94C2
:100D8000430488E592E00E941A0480EC0E94430428
:100D9000089581E00E94430480E80E94430484E6B1
:100DA00092E00E941A0480EC0E94430484E592E0E1
:100DB0000E941A04089581E00E94430480E80E9482
:100DC000430485E792E00E941A0480EC0E944304E9
:100DD00084E592E00E941A040895CF93DF93EC011A
:100DE00081E00E94430480E80E944304C130D105A1
:100DF000A9F484E892E00E941A0480EC0E94430463
:100E000082E992E00E941A042FEF87EA91E62150CE
:100E100080409040E1F700C0000019C0CD2BA9F43C
:100E20008DE992E00E941A0480EC0E9443048DEA4E
:100E300092E00E941A042FEF87EA91E62150804049
:100E40009040E1F700C0000002C00E941B06DF9145
:100E5000CF91089581E00E94430480E80E944304FA
:100E60008EEB92E00E941A0480EC0E9443040895E5
:100E70000F931F93CF93DF930E942A07C0E0D0E027
:100E800011E30E946F038931E1F38F5C8A3399F497
:100E90001C161D06B4F71C2F1150106C812F0E94D8
:100EA000430488E594E00E941A04812F0E944304C1
:100EB000219711E3E6CF8C3311F41133C9F41C16DA
:100EC0001D06FCF28433E8F68233D8F28B3311F03E
:100ED000182F01C010E30C2F006C802F0E944304D8
:100EE000812F0E940804802F0E9443042196C9CFBD
:100EF000812FDF91CF911F910F91089581E00E9482
:100F0000430480E80E9443048FEC92E00E941A049C
:100F100080EC0E9443040895EF92FF921F93CF93B9
:100F2000DF937C010E947E07C0E0D0E00E946F0347
:100F30008931E1F38F5C8A33B9F41C161D06B4F7CE
:100F40001C2F1150106C812F0E94430488E594E0FF
:100F50000E941A04812F0E9443042197F701EC0F8D
:100F6000FD1F80E38083E2CF8C33C1F0C630D10512
:100F7000ECF68B3309F480E3F701EC0FFD1F80835F
:100F80001C2F106C812F0E94430487E391E00E9484
:100F90001A04812F0E9443042196C8CFDF91CF917C
:100FA0001F91FF90EF90089581E00E94430480E834
:100FB0000E94430480EE92E00E941A0480EC0E949A
:100FC00043040895EF92FF920F931F93CF93DF9303
:100FD0007C010E94D40700E010E00E946F03893179
:100FE000E1F3C1E3C80FCA33C1F410161106ACF720
:100FF000CFEFC00FC06C8C2F0E94430488E594E0B3
:101000000E941A048C2F0E94430401501109F70119
:10101000E00FF11F80E38083E0CFCC33C1F00630D6
:101020001105DCF6CB3309F4C0E3F701E00FF11F43
:10103000C083D02FD06C8D2F0E9443048C2F0E9430
:1010400008048D2F0E9443040F5F1F4FC6CFDF910E
:10105000CF911F910F91FF90EF90089581E00E9432
:10106000430480E80E94430482EF92E00E941A0445
:1010700080EC0E9443048EEF92E00E941A040895CF
:10108000EF92FF920F931F93CF93DF93CDB7DEB70D
:1010900065970FB6F894DEBF0FBECDBF2130310586
:1010A00009F043C026E529832A8322E030E034C0DA
:1010B0002830310564F4FC01E20FF31F3297A08160
:1010C000E1E0F0E0EC0FFD1FE20FF31FA083D90178
:1010D000F9013897E630F10550F4E60FF71F10815B
:1010E000E1E0F0E0EC0FFD1FE20FF31F10832E3064
:1010F00031057CF0E2E1F0E0E21BF30BE40FF51FB9
:10110000F08001E010E00C0F1D1F200F311FF901CE
:10111000F0829D012F5F3F4F233131054CF20F2E9E
:10112000F3E1EF2EF12CF02D80C02115310581F572
:1011300025E4298326E52A8322E030E020C02830F8
:1011400031056CF4FC01E20FF31F32976081E1E09E
:10115000F0E0EC0FFD1FE20FF31F60830EC0ECE028
:10116000F0E0E21BF30BE40FF51F6081E1E0F0E03B
:10117000EC0FFD1FE20FF31F60832F5F3F4F2D30F9
:101180003105ECF20F2EFDE0EF2EF12CF02D4DC0CD
:10119000E6E5E983E0E5EA83E2E0F0E03DC0E8303F
:1011A000F10564F4DC01AE0FBF1F12971C91A1E0A2
:1011B000B0E0AC0FBD1FAE0FBF1F1C938F01DF014E
:1011C0001897A630B10550F4A60FB71FFC90A1E008
:1011D000B0E0AC0FBD1FAE0FBF1FFC92EE30F105AB
:1011E00039F4A1E0B0E0AC0FBD1FAE0FBF1F2C93D0
:1011F000EF30F1057CF0A3E1B0E0AE1BBF0BA40F14
:10120000B51FAC91EE24E394F12CEC0EFD1EEE0D17
:10121000FF1DA083F8013196E431F1050CF4BFCF36
:101220000F2EF4E1EF2EF12CF02D00E010E00BC0BA
:10123000E1E0F0E0EC0FFD1FE00FF11F80810E9464
:10124000BB030F5F1F4F0E151F0594F38DE00E9427
:10125000BB030E942E080E94C2038F3429F08335FD
:1012600069F08334C1F705C00E94CA0581E090E0AF
:1012700015C00E94E50581E090E010C00E94C20305
:10128000863419F0893431F0E6CF0E941B0682E0E3
:1012900090E004C00E94000681E090E065960FB6E1
:1012A000F894DEBF0FBECDBFDF91CF911F910F919C
:1012B000FF90EF900895AF92BF92CF92DF92EF929E
:1012C000FF920F931F93CF93DF936C015B018A0111
:1012D00080E090E036C021E0C216D10489F4029784
:1012E00051F40EC07801EC0EFD1E0E94C203F701FE
:1012F0008083219602C0C0E0D0E0C630D10594F3CF
:10130000F2E0CF16D10479F409C07801EC0EFD1E8D
:101310000E94C203F7018083219602C0C0E0D0E0A2
:10132000C630D10594F3F3E0CF16D10419F4C80107
:101330000E94E20720E030E0A501B801C8010E9448
:1013400040088130910539F6DF91CF911F910F91BF
:10135000FF90EF90DF90CF90BF90AF9008950F93E4
:101360001F93CF93DF93CDB7DEB76D970FB6F89489
:10137000DEBF0FBECDBF86E0E4E1F1E0DE011196F5
:1013800001900D928A95E1F786E0E4E1F1E0DE015B
:10139000179601900D928A95E1F785E0EAE1F1E078
:1013A000DE011D9601900D928A95E1F78CE0EFE148
:1013B000F1E0DE01529601900D928A95E1F70E94CC
:1013C000BB06CE0101960E948C0780E090E000E011
:1013D00010E014C0009781F4B801660F771F660F04
:1013E000771F82E190E08C0F9D1F680F791FCE015F
:1013F00001960E94D40490E00F5F1F4F0330110547
:101400004CF3892BC1F00E94A906CE010D960E94D3
:101410005904CE010D960E94E4020E949B060E9490
:10142000A705AE01495F5F4FBE01635F7F4F90E04C
:101430000E945B0902C00E941B069FEF23E284EF1B
:10144000915020408040E1F700C000006D960FB63B
:10145000F894DEBF0FBECDBFDF91CF911F910F91EA
:1014600008952F923F924F925F926F927F928F9248
:101470009F92AF92BF92CF92DF92EF92FF920F9323
:101480001F93CF93DF931C015B01742E2901612C04
:10149000812C912C75C081E0A816B104C1F4E2E062
:1014A0008E16910459F410C0E701CC0DDD1D0E9489
:1014B000C2038883FFEFCF1ADF0A02C0C12CD12CF0
:1014C00086E0C816D10484F3C8010E948C07E2E0CC
:1014D000AE16B104E1F416C0C630D1053CF40E944A
:1014E000C203F701EC0FFD1F80830AC06E01F6E016
:1014F000CF1AD108C00ED11E0E94C203F60180830C
:10150000219602C0C0E0D0E0CC30D1052CF3F3E04E
:10151000AF16B10451F482E08816910419F0C701A6
:101520000E94E207C8010E948C07E2E07E1204C01C
:10153000C7010E946B00682E611008C09101A201D2
:10154000B801C7010E9440084C011AC0A801B201AD
:10155000862D0E94B00290E08130910541F08230EA
:10156000910549F46894882481F8912C07C0882457
:101570008394912C03C088248394912C0E94ED06BF
:10158000F1E08F16910409F086CFDF91CF911F9182
:101590000F91FF90EF90DF90CF90BF90AF909F9012
:1015A0008F907F906F905F904F903F902F90089515
:1015B000CF92DF92EF92FF920F931F93CF93DF931F
:1015C000CDB7DEB761970FB6F894DEBF0FBECDBFC3
:1015D00086E0E4E1F1E0DE01119601900D928A953A
:1015E000E1F786E0E4E1F1E0DE01179601900D926B
:1015F0008A95E1F785E0EAE1F1E0DE011D960190D0
:101600000D928A95E1F70E94DB06CE010D960E94AD
:101610005904CE010D960E94E4020E943807D82E8C
:101620000E948D05C82E0E94A705BC017727CE0118
:1016300007967C018E010F5F1F4F9E01235F3F4F76
:101640004C2D8D2D90E00E94310A61960FB6F894D2
:10165000DEBF0FBECDBFDF91CF911F910F91FF90E5
:10166000EF90DF90CF900895DF92EF92FF920F936B
:101670001F93CF93DF93CDB7DEB761970FB6F89482
:10168000DEBF0FBECDBF86E0E4E1F1E0DE011196E2
:1016900001900D928A95E1F786E0E4E1F1E0DE0148
:1016A000179601900D928A95E1F785E0EAE1F1E065
:1016B000DE011D9601900D928A95E1F70E94C90600
:1016C000CE010D960E945904CE010D960E94E402AF
:1016D0000E948D05D82E0E94A705BC017727CE0158
:1016E00007967C018E010F5F1F4F9E01235F3F4FC6
:1016F0004D2D81E090E00E94310A61960FB6F8947A
:10170000DEBF0FBECDBFDF91CF911F910F91FF9034
:10171000EF90DF9008958133910519F40E94340B06
:1017200008958233910519F40E94D80A0895C39749
:1017300011F40E94AF0908952FEF8EE994E2215031
:1017400080409040E1F700C0000083E00E94430425
:101750008BE093E00E941A0480EC0E9443048BE12A
:1017600093E00E941A042FEF8DE399E4215080400A
:101770009040E1F700C0000081E00E94430480E84F
:101780000E9443048CE293E00E941A0480EC0E94C1
:1017900043048DE393E00E941A04089581E00E94BF
:1017A000430480E80E9443048EE493E00E941A04FC
:1017B00080EC0E9443048FE593E00E941A042FEF0F
:1017C0008DE399E4215080409040E1F700C0000093
:1017D000089581E00E94430480E80E9443048EE65D
:1017E00093E00E941A0480EC0E9443048EE793E089
:1017F0000E941A040895CF93DF93EC010E94E90B35
:1018000089E1888303C00E946F03888398819B309D
:1018100011F09930C1F781E09B3009F480E0DF914D
:10182000CF91089581E00E94430480E80E94430420
:101830008DE893E00E941A0480EC0E94430487E93B
:1018400093E00E941A042FEF8DE399E42150804029
:101850009040E1F700C0000081E00E94430480E86E
:101860000E94430484EA93E00E941A0480EC0E94E0
:10187000430482EB93E00E941A04089581E00E94E1
:10188000430480E80E9443048DE893E00E941A0418
:1018900080EC0E94430489EB93E00E941A042FEF2E
:1018A0008DE399E4215080409040E1F700C00000B2
:1018B00081E00E94430480E80E94430484EA93E0AC
:1018C0000E941A0480EC0E94430486EC93E00E947C
:1018D0001A04089581E00E94430480E80E944304B2
:1018E0008DEC93E00E941A0480EC0E94430486ED84
:1018F00093E00E941A042FEF83ED90E32150804083
:101900009040E1F700C00000089581E00E94430488
:1019100080E80E94430481EE93E00E941A0480EC68
:101920000E94430480EF93E00E941A042FEF83ED9E
:1019300090E3215080409040E1F700C000000895FE
:10194000CF93C82F81E00E94430480E80E944304A3
:1019500080E094E00E941A0480E38C0F0E94080447
:1019600080EC0E9443048AE094E00E941A042FEF66
:1019700083ED90E3215080409040E1F700C00000EB
:10198000CF910895FC01808190E0FC01E050FF4F71
:101990002081213029F4FC01E050FF4F108205C066
:1019A000FC01E050FF4F21E020830E946A0C089563
:1019B00083E00E94430487E194E00E941A0480912E
:1019C0000001813029F48EE194E00E941A0404C0E1
:1019D00089E294E00E941A0480EC0E94430484E3AC
:1019E00094E00E941A0480910101813029F48BE374
:1019F00094E00E941A04089586E494E00E941A0478
:101A00000895E82FF0E0E150FF4F80810895AF92F4
:101A1000BF92CF92DF92EF92FF920F931F93CF93DB
:101A2000DF935C016B017A0181E594E00E941A0466
:101A300086EC0E944304C0E0D0E0B6C0C230D105BD
:101A4000B4F50E946F03893191F0893081F08B30B9
:101A500071F08A3009F48FEF11E3180F812F0E9483
:101A60000804F501EC0FF11D1083219620C0893088
:101A7000D9F41C161D06C4F48E01C0FD05C02097C4
:101A800019F0CC5FC06802C0CB5FC068C0648C2F07
:101A90000E94430488E594E00E941A048C2F0E945F
:101AA0004304E801219703C0893009F48CC08E01FA
:101AB000CE01029782309105A8F5C230D10521F4FC
:101AC000875F806C0E9443040E946F038931A1F0FC
:101AD000893091F08B3081F08A3009F48FEFD1E3B7
:101AE000D80F8D2F0E940804C250F601EC0FF11D93
:101AF000D083E801219616C08930A1F400FD03C00F
:101B0000CB5FC06802C0CA5FC068C0648C2F0E94EF
:101B1000430488E594E00E941A048C2F0E94430439
:101B2000E8012197C430D105BCF1C430D10529F4B6
:101B30008C2F885F806C0E9443040E946F03893160
:101B4000A1F0893091F08B3081F08A3009F48FEF69
:101B500011E3180F0C2F0450812F0E940804F70185
:101B6000E00FF11D1083219617C08930A9F48E0172
:101B7000C0FD03C0CA5FC06802C0C95FC068C0645E
:101B80008C2F0E94430488E594E00E941A048C2F55
:101B90000E944304E8012197C630D10529F40E9430
:101BA0006F038B3009F42196C730D1050CF446CF72
:101BB0002FEF8EE994E2215080409040E1F700C081
:101BC000000081E001C080E0DF91CF911F910F9173
:101BD000FF90EF90DF90CF90BF90AF900895AF92BD
:101BE000BF92CF92DF92EF92FF920F931F93CF930A
:101BF000DF935C016B017A018AE594E00E941A048C
:101C000086EC0E944304C0E0D0E0BAC0C230D105E7
:101C1000B4F50E946F03893191F0893081F08B30E7
:101C200071F08A3009F48FEF11E3180F812F0E94B1
:101C30000804F501EC0FF11D1083219620C08930B6
:101C4000D9F41C161D06C4F48E01C0FD05C02097F2
:101C500019F0CC5FC06802C0CB5FC068C0648C2F35
:101C60000E94430488E594E00E941A048C2F0E948D
:101C70004304E801219703C0893009F490C08E0124
:101C8000CE01029782309105B8F5C230D10521F41A
:101C9000875F806C0E9443040E946F038931A1F02A
:101CA000893091F08B3081F08A3009F48FEFD1E3E5
:101CB000D80F8D2F0E940804C250F601EC0FF11DC1
:101CC000D083E801219618C08930B1F400FD05C029
:101CD000209719F0CB5FC06802C0CA5FC068C064BB
:101CE0008C2F0E94430488E594E00E941A048C2FF4
:101CF0000E944304E8012197C430D105CCF1C430DF
:101D0000D10529F48C2F885F806C0E9443040E94C7
:101D10006F038931A1F0893091F08B3081F08A30E6
:101D200009F48FEF11E3180F812F0E9408048C2F04
:101D30008450F701E80FF11D1083219619C08930F6
:101D4000B9F48E01C0FD05C0209719F0CA5FC068C4
:101D500002C0C95FC068C0648C2F0E94430488E53C
:101D600094E00E941A048C2F0E944304E8012197FA
:101D7000C630D10529F40E946F038B3009F42196F7
:101D8000C730D1050CF442CF2FEF8EE994E22150F9
:101D900080409040E1F700C0000081E001C080E099
:101DA000DF91CF911F910F91FF90EF90DF90CF9037
:101DB000BF90AF90089510928D0410928C041092F1
:101DC0008B0481E080938A048093890486E1809368
:101DD00088040895CF92DF92EF92FF920F931F93A2
:101DE000CF93DF936B01EA01D801FC01408150E001
:101DF000405351098181440F742F770F770F470F9C
:101E0000742F780F7053F601808190E0C097918114
:101E1000880F582F550F550F850F582F590F5053B6
:101E2000888190E0C0979981880F482F440F440F14
:101E3000840F482F490F40538C9190E0C097119622
:101E40009C91880F682F660F660F860F890F60EDD3
:101E5000680FF901808190E0C0979181880F282F49
:101E6000220F220F820F890F20ED280FF7018081AA
:101E700090E0C0979181880F382F330F330F830F75
:101E8000890F8053443670F55D3070F5703270F50F
:101E90007D3140F0523031F4942F937049F57D310B
:101EA00049F50CC07F3151F4563031F118F45430FB
:101EB00029F422C0593001F15B30F1F08C33F0F499
:101EC0006C33F0F42831F0F470938A045093890451
:101ED0004093880420938D0460938C0480938B043A
:101EE00081E011C080E00FC080E00DC080E00BC039
:101EF00080E009C080E007C080E005C080E003C04A
:101F000080E001C080E0DF91CF911F910F91FF90A1
:101F1000EF90DF90CF9008958F929F92AF92BF92F3
:101F2000DF92EF92FF920F931F93CF93DF93CDB782
:101F3000DEB72C970FB6F894DEBF0FBECDBF4C01B5
:101F4000FC018081882309F453C05EC00E94120CFA
:101F5000AE01495F5F4FBE01675F7F4FCE010B96B9
:101F60000E94070DD82E882329F1FFEFAF1ABF0A70
:101F70000E943E0CAE014F5F5F4FBE016D5F7F4F11
:101F8000CE0105960E94EF0DD82E8823C1F0CE0118
:101F900001967C018E010D5F1F4F9E012B5F3F4F0D
:101FA000AE01495F5F4FBE01675F7F4F0A960E9497
:101FB000EA0E06C080E0AA24AA94BA2C01C080E0F0
:101FC000882329F0DD2019F00E946A0C0DC0DD2065
:101FD00019F00E94850C08C0D11006C09FEFA91609
:101FE000B90611F0A12CB12C89E1F401808302C063
:101FF000A12CB12CF2E0AF16B104CCF52FEFA21654
:10200000B20609F0A3CF33C0813089F1823051F597
:102010000E94CE0B0E94D80C89E1F401808304C099
:102020000E946F03F4018083F40180818931C1F340
:10203000823020F4C4010E94C20C10C083E00E94D0
:10204000430483E694E00E941A04FFEF23ED80E34B
:10205000F15020408040E1F700C0000089E1F40128
:10206000808305C0833019F489E1F40180832C96C4
:102070000FB6F894DEBF0FBECDBFDF91CF911F9199
:102080000F91FF90EF90DF90BF90AF909F908F9057
:10209000089581E080938A04809189048F5F809302
:1020A00089048D3061F481E08093890480918804F3
:1020B0008F5F80938804843611F410928804089509
:1020C00080918B048F5F80938B048C3339F4109252
:1020D0008B0480918C048F5F80938C0480918C049E
:1020E0008C3339F410928C0480918D048F5F80932F
:1020F0008D0480918D04883141F510928D042091DA
:102100008A042F5F20938A04E09189048E2F90E047
:10211000FC013197EC30F105A0F4E05CFF4F0C942A
:10212000C511203291F40E94491008952D3121F4F7
:1021300080918804837011F42E3139F40E94491083
:1021400008952F3111F40E94491008951F920F92A3
:102150000FB60F9211242F933F934F935F936F937A
:102160007F938F939F93AF93BF93EF93FF93809150
:10217000E90490E00E94C9038093E904883731F4B0
:102180001092E90498B180E1892788B98091130100
:102190008B3031F49091EC049F5F9093EC0402C07B
:1021A0001092EC04893031F48091EB048F5F8093BE
:1021B000EB0402C01092EB048091EC04833061F4D4
:1021C0008091EA04811108C08CE00E9443041092BF
:1021D000EC0481E08093EA048091EB04843059F4AC
:1021E0008091EA04813039F488E00E94430410921F
:1021F000EB041092EA040E946010FF91EF91BF91EE
:10220000AF919F918F917F916F915F914F913F918E
:102210002F910F900FBE0F901F90189584E0809320
:10222000800080938100109285001092840084E2E7
:1022300094EF9093890080938800EFE6F0E080812E
:102240008260808378940895CF93DF93CDB7DEB713
:102250002C970FB6F894DEBF0FBECDBF0E94DB0EE9
:1022600083E390E00E94B0030E94AF040E940E112D
:102270008CE00E9443040E94630586E0EBE2F1E0FB
:10228000DE01119601900D928A95E1F786E0E1E377
:10229000F1E0DE01179601900D928A95E1F7AE010B
:1022A0004F5F5F4F62E774E0CB010E94F600AE0122
:1022B000495F5F4F69E774E080E894E00E94F600B0
:1022C00001E0002341F083E191E00E943606809313
:1022D000120100E00CC083E191E00E94FB0B811130
:1022E00006C083E191E00E9436068093120189E1E5
:1022F00080931301109112011123E1F0812F0E94AC
:10230000010D8823A1F083E00E9443040E9451053F
:1023100004C00E946F03809313018091130190E029
:10232000C19684339105ACF70E948B0B03C0812FBB
:102330000E94A00C809112018111C3CF0E949C0BBE
:1023400089E18093130104C00E946F0380931301FD
:10235000809113018931C1F383E191E00E948C0FD8
:10236000B0CF97FB072E16F4009407D077FD09D065
:102370000E94CB1107FC05D03EF4909581959F4FAC
:102380000895709561957F4F0895EE0FFF1F05909A
:10239000F491E02D0994AA1BBB1B51E107C0AA1FB1
:1023A000BB1FA617B70710F0A61BB70B881F991FF6
:1023B0005A95A9F780959095BC01CD010895F894A0
:0223C000FFCF4D
:1023C20001014646464630313233313233343233FC
:1023D20034350A19303030303030202020202000AF
:1023E20001020301020304020304053830303030D5
:1023F200303030323030302A005B315D204156209F
:102402005B325D204150005B335D204573746F7217
:102412006E6F0020202020204D69635061790020DA
:102422002020202020203A29004D65746F646F20FF
:1024320064652070676D743A005B315D206465628B
:10244200205B325D2063726564004170726F782E8A
:102452002F496E73697261004F75206E726F20434F
:10246200617274616F004F702E207265616C697ABF
:1024720061646100636F6D207375636573736F00D0
:102482004F702E206E656761646100436F6E7461E8
:1024920020636F6D2066616C68610053616C646FCC
:1024A20020696E7366632E0053656E686120636FE8
:1024B2006D2066616C686100496E736972612061AA
:1024C2002053656E68610042656D2056696E646FC7
:1024D2000041646D696E6973747261646F72004F5A
:1024E20070657261646F722031004F706572616451
:1024F2006F7220320043617274616F206573746F72
:10250200726E6F3A0056616C6F72206573746F72EF
:102512006E6F3A005224200053656E686120284F86
:1025220050293A0056616C6F7220286120766973D7
:102532007461293A0056616C6F722028746F74615D
:102542006C293A0056656E646120696E7465726E1C
:1025520061007265616C697A616461200056656E22
:1025620064612063616E63656C616461004C696DD6
:10257200697465206174696E6769646F20004E72C8
:102582002E2064652070617263656C61733A004944
:102592006E7369726120612073656E68613A200012
:1025A20043617274616F20286E756D65726F293A8E
:1025B2002000416775617264616E646F200073650B
:1025C200727669646F722E2E2E200053656C6563DD
:1025D200696F6E65206F2071756500717565722077
:1025E200636F6E666967757261723A00312D44617C
:1025F200746120322D5665722E50656E00332D4F58
:1026020070657220342D4465732E50656E005365DB
:102612006C6563696F6E65206F206F706572007004
:102622002F206861622F6465736861623A004465B5
:1026320073656A61206D75646172206465006D6FF7
:10264200646F3F202A3A4E2020233A5300666F726D
:102652006D61746F3A20002020202064642F6D6D1C
:102662002F797900696E736972612061206E6F76CD
:102672006100646174613A20002020202068683A79
:102682006D6D3A737300686F72613A20004F706526
:10269200726163616F00436F6E636C75696461217F
:1026A200004461746120494E56414C494441210025
:1026B2004461746120696E616C7465726164610069
:1026C2004F70657261646F72200044657361626964
:1026D2006C697461646F004F7065723120006465CB
:1026E2007368616220202D31006861622020202001
:1026F200202D31004F70657232200064657368616D
:102702006220202D320068616220202020202D329C
:102712000020202F20202F20200020203A20203AA5
:102722002020004F7063616F20496E76616C69648E
:1027320061003132333435360031313131313100DB
:0827420030303030303100006E
:00000001FF
