S00F00006D69635F7061792E7372656333
S11300000C9440000C9455000C9455000C9455002D
S11300100C9455000C9455000C9455000C94550008
S11300200C9455000C9455000C9455000C945500F8
S11300300C9455000C9455000C9455000C945500E8
S11300400C9455000C9455000C9455000C945500D8
S11300500C9455000C9455000C9455000C945500C8
S11300600C9455000C945500F400FB0002010901A6
S1130070100117011E0125012C0133013A01410130
S113008011241FBECFEFD8E0DEBFCDBF11E0A0E04A
S1130090B1E0E2E4F3E002C005900D92A831B107AB
S11300A0D9F70E9489010C949F010C94000088B137
S11300B08F6088B980E026C097B1907F97B99AB1D4
S11300C09F789AB99AB120E130E0082E02C0220F3D
S11300D0331F0A94E2F7292B2AB990E010C026B105
S11300E030E0092E02C0359527950A94E2F720FDE9
S11300F005C0292F220F920F890F08959F5F943016
S113010070F38F5F8330C0F284E1089595B19F77D7
S113011095B995B19F7B95B995B19F7D95B995B1E9
S11301209F7E95B988231CF495B1906895B986FF94
S113013003C095B1906495B985FF03C095B19062F1
S113014095B984FF03C085B1806185B985B18260AA
S113015085B9000085B18D7F85B900000895CF93DE
S1130160C82F85B1816085B985B18D7F85B98C2F04
S11301700E9486008C2F8295807F0E948600CF91FA
S113018008950F931F93CF93DF9300D0CDB7DEB7BD
S11301908C011A82198210C0E981FA81E00FF11FE3
S11301A080810E94AF0089819A8101969A83898314
S11301B08AE18A95F1F700C0E981FA81E00FF11F25
S11301C080818111E9CF0F900F90DF91CF911F9122
S11301D00F91089590E08C30910508F059C0FC010E
S11301E0EC5CFF4F0C94990180E091E00E94C10007
S11301F080E091E0089582E091E00E94C10082E0F5
S113020091E0089584E091E00E94C10084E091E0CF
S1130210089586E091E00E94C10086E091E008958F
S113022088E091E00E94C10088E091E008958AE0AE
S113023091E00E94C1008AE091E008958CE091E091
S11302400E94C1008CE091E008958EE091E00E944C
S1130250C1008EE091E0089580E191E00E94C10028
S113026080E191E0089582E191E00E94C10082E181
S113027091E0089584E191E00E94C10084E191E05D
S1130280089586E191E00E94C10086E191E008951D
S113029087E191E00895CF93C82F85B18E7F85B90A
S11302A085B18D7F85B98C2F0E9486008C2F829515
S11302B0807F0E9486008AE18A95F1F700C0CF9181
S11302C0089583EF84B985B18E7F85B985B18D7F1B
S11302D085B980E30E94860083EC99E00197F1F7E9
S11302E000C0000088E20E9486009AE19A95F1F726
S11302F000C088E20E944B0188E00E944B0181E02B
S11303000E944B0186E00E944B018CE00E944B014D
S113031008950E9461010E9457000E94EA002FE79D
S11303208AE196E0215080409040E1F700C000004F
S1130330F2CFEE0FFF1F0590F491E02D0994F8948D
S1050340FFCFE9
S11303423100320033003400350036003700380003
S10B035239002A0030002300E9
S9030000FC
