S00F00006D69635F7061792E7372656333
S11300000C944C000C9469000C9469000C946900E5
S11300100C9469000C9469000C9469000C946900B8
S11300200C9469000C9469000C9469000C94591B9D
S11300300C9469000C9469000C9469000C94690098
S11300400C9469000C9469000C9469000C94690088
S11300500C9469000C9469000C9469000C94690078
S11300600C9469000C946900DB01E001DB01EB01F5
S1130070DB01EB01DB01DB01EB01DB01EB01DB016C
S11300809D05B5059F05A105A305A505A705A9051A
S1130090AB05AD05AF05B10511241FBECFEFD8E008
S11300A0DEBFCDBF15E0A0E0B1E0E8E8F9E302C0AF
S11300B005900D92A43BB107D9F727E0A4EBB5E076
S11300C001C01D92A330B207E1F70E94071C0C94F3
S11300D0C21C0C9400001092EA061092E9061092D9
S11300E0E80681E0809386068093850686E1809306
S11300F08406E1EFF6E08FE2828385831086EAEFDF
S1130100F6E08AE38283858310860895CF92DF9296
S1130110EF92FF920F931F93CF93DF936B01EA014A
S1130120D801FC01408150E0405351098181440FC2
S1130130742F770F770F470F742F780F7053F601D2
S1130140808190E0C0979181880F582F550F550FEB
S1130150850F582F590F5053888190E0C09799818B
S1130160880F482F440F440F840F482F490F4053E2
S11301708C9190E0C09711969C91880F682F660F20
S1130180660F860F890F60ED680FF901808190E09A
S1130190C0979181880F282F220F220F820F890F79
S11301A020ED280FF701808190E0C0979181880F9E
S11301B0382F330F330F830F890F8053443670F574
S11301C05D3070F5703270F57D3140F0523031F4AD
S11301D0942F937049F57D3149F50CC07F3151F46A
S11301E0563031F118F4543029F422C0593001F159
S11301F05B30F1F08C33F0F46C33F0F42831F0F42C
S11302007093860650938506409384062093EA06ED
S11302106093E9068093E80681E011C080E00FC096
S113022080E00DC080E00BC080E009C080E007C022
S113023080E005C080E003C080E001C080E0DF9181
S1130240CF911F910F91FF90EF90DF90CF90089581
S1130250509186063091850660918406462F20E0F1
S113026026C091E0930F9D3030F095EF930F4F5FD0
S1130270443608F056C0963051F028F4923061F0BC
S1130280943099F404C0993011F09B3071F45F31CB
S113029061F49F5F51E009C05D3138F0362F33704F
S11302A011F45C5101C05B519F5F2F5F392F2817F8
S11302B0C0F2EBEEF6E08DEC589F912D112496954B
S11302C09695969520E3290F2083990F292F220FC5
S11302D0220F920F591B505D5183389F912D112489
S11302E096959695969520E3290F2283990F292FA9
S11302F0220F220F920F391B305D3383489F812DCB
S1130300112486958695869590E3980F9483880F9B
S1130310982F990F990F890F481B405D458381E001
S1130320089580E0089581E0809386068091850693
S11303308F5F809385068D3061F481E0809385061C
S1130340809184068F5F80938406843611F4109222
S1130350840608958091E8068F5F8093E8068C33C5
S113036039F41092E8068091E9068F5F8093E906DC
S11303708091E9068C3339F41092E9068091EA06FB
S11303808F5F8093EA068091EA06883141F51092E6
S1130390EA06209186062F5F20938606E091850663
S11303A08E2F90E0FC013197EC30F105A0F4EC5C69
S11303B0FF4F0C94A81C203291F40E9493010895DD
S11303C02D3121F480918406837011F42E3139F497
S11303D00E94930108952F3111F40E94930108950E
S11303E02091EA06EAEFF6E08DEC289F912D112486
S11303F096959695969530E3390F3083990F392F5A
S1130400330F330F930F291B205D21832091E906BD
S1130410289F912D112496959695969530E3390F42
S11304203383990F392F330F330F930F291B205D1B
S113043024839091E806989F812D112486958695B2
S1130440869520E3280F2683880F282F220F220F5A
S1130450820F981B905D9783089520918606E1EFA3
S1130460F6E08DEC289F912D1124969596959695FE
S113047030E3390F3083990F392F330F330F930F34
S1130480291B205D218320918506289F912D11240D
S113049096959695969530E3390F3383990F392FB6
S11304A0330F330F930F291B205D2483909184060F
S11304B0989F812D112486958695869520E3280F93
S11304C02683880F282F220F220F820F981B905DFE
S11304D0978308950E942D020E94F0010895DC0183
S11304E060E022C0262F30E0492F50E0F901EE0FE2
S11304F0FF1FE20FF31FEE0FFF1FEC53F94F9A019A
S1130500E20FF31F4081FD01E20FF31F80814813C6
S11305100AC0953019F481E0860F08959F5F01C0E9
S113052090E09630F8F26F5F6530D0F380E0089584
S1130530E82FF0E0E056F94F8081833011F481E038
S1130540089580E00895DC0190E017C020918706AB
S113055030E0492F50E0FD01E40FF51F6081F901FF
S1130560EE0FFF1FEE0FFF1F2E0F3F1F2857394FAF
S1130570F901E40FF51F60839F5F953038F3089508
S1130580DC0190E017C02091870630E0492F50E04D
S1130590FD01E40FF51F6081F901EE0FFF1F2E0F1F
S11305A03F1F220F331F2C53394FF901E40FF51F5E
S11305B060839F5F963038F30895DC0190E017C0A4
S11305C02091870630E0492F50E0FD01E40FF51F2C
S11305D06081F901EE0FFF1F2E0F3F1F220F331F03
S11305E02A55394FF901E40FF51F60839F5F963058
S11305F038F308950F931F93CF93DF9320918706C9
S11306002530B8F4EB018C01CA010E94A302C80191
S11306100E94C002CE010E94DD0280918706E82F6D
S1130620F0E0EF55F94F10828F5F8093870681E0E9
S113063001C080E0DF91CF911F910F910895CF9277
S1130640DF92EF92FF920F931F93CF93DF9381502A
S1130650E0E0F0E0C12CD12C90E067C0923059F07A
S113066028F4992341F0913079F00BC0933061F074
S1130670943021F006C041E050E008C044E650E068
S113068005C040E050E002C04AE050E0923038F546
S1130690A92FB0E024E030E089010A1B1B0B282FAE
S11306A030E07901EE0CFF1CEE0CFF1C2E0D3F1DFB
S11306B02857394F200F311FE9012881ED01C60F5A
S11306C0D71FC88130E02C1B3109429FE001439FB2
S11306D0D00D529FD00D1124CC0EDD1E25C0C92F84
S11306E0D0E024E030E089010C1B1D0B282F30E002
S11306F07901EE0CFF1CEE0CFF1C2E0D3F1D28573C
S1130700394F200F311FD9012C91C60FD71FC88133
S113071030E02C1B3109429FE001439FD00D529FD2
S1130720D00D1124EC0FFD1F9F5F953008F496CF78
S1130730DD2024F43197B4E6CB0ED11CC82FD0E0D1
S11307402AE030E0C601B9010E94941CAE01440FB6
S1130750551F440F551FC40FD51FC857D94F805D6F
S11307608C83605D6B83CF0164E670E00E94941C0F
S1130770CF0144E6649F801991091124605D688368
S1130780B9010E94941C605D6983805D8A83DF9156
S1130790CF911F910F91FF90EF90DF90CF9008952C
S11307A0815090E0FC01EE0FFF1FEE0FFF1FE80FDA
S11307B0F91FE857F94F3081FB012481231708F40E
S11307C09AC032130FC0FC01EE0FFF1FEE0FFF1F84
S11307D0E80FF91FE857F94F5181FB014381451791
S11307E008F48BC032131DC0FC01EE0FFF1FEE0F87
S11307F0FF1FE80FF91FE857F94F5181FB014381AF
S113080054130FC0FC01EE0FFF1FEE0FFF1FE80F84
S1130810F91FE857F94F5281FB014281451708F44B
S11308206EC032132BC0FC01EE0FFF1FEE0FFF1F33
S1130830E80FF91FE857F94F5181FB014381541325
S11308401DC0FC01EE0FFF1FEE0FFF1FE80FF91F85
S1130850E857F94F5281FB01428154130FC0FC0148
S1130860EE0FFF1FEE0FFF1FE80FF91FE857F94FB8
S11308705381FB014181451708F443C0321343C03F
S1130880FC01EE0FFF1FEE0FFF1FE80FF91FE857E3
S1130890F94F3181FB012381321337C0FC01EE0F84
S11308A0FF1FEE0FFF1FE80FF91FE857F94F3281C2
S11308B0FB01228132132BC0FC01EE0FFF1FEE0F50
S11308C0FF1FE80FF91FE857F94F3381FB0121811E
S11308D032131FC0FC01EE0FFF1FEE0FFF1F8E0F20
S11308E09F1FFC01E857F94F9481FB018081981701
S11308F090F480E0089581E0089581E0089581E016
S1130900089581E0089580E0089580E0089580E0EE
S1130910089580E0089581E00895FB0190E01CC0F3
S1130920492F50E0DF01A40FB51F7C91282F30E040
S113093021503109D901AA0FBB1F2A0F3B1F220FD7
S1130940331F2A55394FD901A40FB51F2C917213A7
S113095007C0953039F09F5F963010F381E0089519
S113096080E0089581E008950F931F93CF93C82FDB
S11309708B01BA010E948D04882319F1B8018C2FD0
S11309800E949802882351F0F80183818250838366
S1130990EC2FF0E0E056F94F108207C0EC2FF0E0A6
S11309A0E056F94F80818F5F8083B8018C2F0E94BD
S11309B0D003882341F0B8018C2F0E941F0381E0EB
S11309C003C082E001C080E0CF911F910F91089590
S11309D0DC0114968C9114978033C9F013969C9182
S11309E013979032A1F412969C911297903279F455
S11309F011969C911197903251F49C91903239F454
S1130A0012968C93129780E214968C9314971496F2
S1130A108C9114978032E1F013969C911397903245
S1130A20B9F012962C911297203291F411962C91D0
S1130A301197203269F42C91203251F412969C9330
S1130A40129713968C93139780E214968C931497B1
S1130A5020E030E00CC0C901FD01E20FF31F20814A
S1130A60203211F420E320839C012F5F3F4F253077
S1130A7031058CF3089587B1807F87B98AB18F7867
S1130A808AB987B1806187B987B1806287B988B133
S1130A908F6088B980E026C09AB120E130E0082E4A
S1130AA002C0220F331F0A94E2F7292B2AB9E7EC7C
S1130AB0F0E03197F1F700C0000090E010C026B1DB
S1130AC030E0092E02C0359527950A94E2F720FDFF
S1130AD005C0292F220F920F890F08959F5F94302C
S1130AE070F38F5F8330C0F289E108951F93CF9331
S1130AF0DF930E943B05182FD0E00FC08FE79EE3E1
S1130B000197F1F700C000000E943B05C82F18139D
S1130B1002C0DF5F01C0D0E01C2FDA3078F38C2FE5
S1130B20DF91CF911F91089590E08C309105D8F416
S1130B30FC01E05CFF4F0C94A81C81E0089583E065
S1130B40089584E0089585E0089586E0089587E097
S1130B50089588E0089589E008958AE008958BE077
S1130B6008958CE0089589E1089582E008959093B2
S1130B70C5008093C40088E18093C10089E080931C
S1130B80C20008959091C00095FFFCCF8093C600E9
S1130B9008952091C000222314F001960895209115
S1130BA0C600222329F088B18F7E88B980E090E0C6
S1130BB0089595B19F7795B995B19F7B95B995B1F6
S1130BC09F7D95B995B19F7E95B988231CF495B105
S1130BD0906895B986FF03C095B1906495B985FF77
S1130BE003C095B1906295B984FF03C085B180615B
S1130BF085B985B1826085B985E08A95F1F70000F1
S1130C0085B18D7F85B985E08A95F1F70000089557
S1130C10CF93C82F85B1816085B985B18D7F85B9A2
S1130C208C2F0E94D9058C2F8295807F0E94D90534
S1130C30CF9108950F931F93CF93DF9300D0CDB737
S1130C40DEB78C011A82198210C0E981FA81E00FA3
S1130C50F11F80810E94080689819A8101969A83F6
S1130C60898385ED8A95F1F70000E981FA81E00F27
S1130C70F11F80818111E9CF0F900F90DF91CF9107
S1130C801F910F910895CF93C82F85B18E7F85B999
S1130C9085B18D7F85B98C2F0E94D9058C2F8295C3
S1130CA0807F0E94D90585ED8A95F1F70000CF91E8
S1130CB00895EF92FF920F931F93CF93DF937C01DC
S1130CC000E010E00E9476058931E1F3C1E3C80F2A
S1130CD0CA33E1F410161106ACF7C2E0C00FC06CC1
S1130CE08C2F0E94430682E895E00E941A068C2FFE
S1130CF00E944306E4E0F0E0E01BF10B3196EE0DB8
S1130D00FF1D80E2808301501109DCCFCC3321F434
S1130D10F70185818032E1F4053011059CF6CB336F
S1130D2009F4C0E3E4E0F0E0E01BF10BEE0DFF1D7D
S1130D30C083D3E0D00FD06C8D2F0E9443068C2F3C
S1130D400E9408068D2F0E9443060F5F1F4FBACFE3
S1130D50DF91CF911F910F91FF90EF90089583EF52
S1130D6084B985B18E7F85B985B18D7F85B980E3DE
S1130D700E94D9058FE39CE90197F1F700C00000B8
S1130D8088E20E94D90595ED9A95F1F7000088E272
S1130D900E94430688E00E94430681E00E944306C5
S1130DA086E00E9443060895CF93DF93EC01DB01B4
S1130DB081E020E030E00EC0A901FE01E20FF31F44
S1130DC07081FD01E20FF31F9081791380E09A0195
S1130DD02F5F3F4F243031057CF3DF91CF9108958D
S1130DE0FF920F931F93CF93DF938C010E9476059C
S1130DF00E949405F801808380EC0E94430680E001
S1130E00C0E0D0E03EC00E947605F80180838931BD
S1130E10D1F08B30C1F08930B1F0C430D1059CF4ED
S1130E208F5C80838B3311F480E38083F8018081AD
S1130E30FE01EE5FFE4F808380EE94E00E941A066E
S1130E40219680E01EC08930B9F41C161D066CF48E
S1130E508C2F8150806CF82E0E94430680E20E9401
S1130E6008068F2D0E944306219786E4FE01EE5F5B
S1130E70FE4F808380E005C08B3011F080E001C01C
S1130E8081E0882309F4BFCF209709F4BCCF89E11E
S1130E90F8018083DF91CF911F910F91FF90089506
S1130EA081E00E94430680E80E94430687E391E0C4
S1130EB00E941A0680EC0E94430685E491E00E9499
S1130EC01A06089581E591E00E941A0680EC0E94BA
S1130ED043068DE591E00E941A062FEF8EE994E215
S1130EE0215080409040E1F700C0000080EC0E9457
S1130EF0430687E691E00E941A062FEF8EE994E2FA
S1130F00215080409040E1F700C0000080EC0E9436
S1130F1043068DE591E00E941A062FEF8EE994E2D4
S1130F20215080409040E1F700C0000081E00E9421
S1130F304306089581E00E94430680E80E94430628
S1130F4081E791E00E941A0680EC0E94430681E842
S1130F5091E00E941A0608950E949A070E9476055D
S1130F608931E1F38F5F089581E00E94430680E8B0
S1130F700E94430682E991E00E941A0680EC0E94D6
S1130F80430680EA91E00E941A06089581E00E94D7
S1130F90430680E80E9443068EEA91E00E941A0606
S1130FA080EC0E9443068CEB91E00E941A062FEF1E
S1130FB08FE493EC215080409040E1F700C00000A2
S1130FC0089581E00E94430680E80E94430688EC6D
S1130FD091E00E941A0680EC0E94430683ED91E0A2
S1130FE00E941A062FEF8BE792E92150804090402F
S1130FF0E1F700C00000089581E00E94430680E804
S11310000E94430688EC91E00E941A0680EC0E943C
S1131010430683EE91E00E941A062FEF8BE792E9D4
S1131020215080409040E1F700C00000089581E025
S11310300E94430680E80E94430688EC91E00E94E7
S11310401A0680EC0E94430680EF91E00E941A0683
S11310502FEF8BE792E9215080409040E1F700C0E8
S113106000000895EF92FF921F93CF93DF937C01CA
S113107010E053C081E00E94430682E00E944306D0
S113108080E092E00E941A06C7010E94F006C0E0C8
S1131090D0E03DC011110CC0BE01660F771F660F72
S11310A0771F6A5F7E4F82E091E00E94D406182F7A
S11310B0112361F181E00E94430680E80E94430607
S11310C08FE092E00E941A0680EC0E944306C11150
S11310D005C089E192E00E941A060DC0C13029F4CE
S11310E087E292E00E941A0606C0C23021F482E32D
S11310F092E00E941A062FEF87EA91E62150804081
S11311009040E1F700C000008C2F0BC02196C33043
S1131110D1050CF4BFCF0E941708112309F4AACFFC
S11311208FEFDF91CF911F91FF90EF90089581E0B1
S11311300E94430680E80E9443068DE392E00E94E9
S11311401A0680EC0E944306089581E00E9443063B
S113115080E80E9443068DE492E00E941A0680EC27
S11311600E9443068CE592E00E941A06089581E0ED
S11311700E94430680E80E94430680E692E00E94B3
S11311801A0680EC0E944306089581E00E944306FB
S113119080E80E9443068CE692E00E941A0680ECE6
S11311A00E9443068CE592E00E941A06089581E0AD
S11311B00E94430680E80E9443068DE792E00E9465
S11311C01A0680EC0E9443068CE592E00E941A06FF
S11311D00895CF93DF93EC0181E00E94430680E8F9
S11311E00E944306C130D105A9F48CE892E00E9424
S11311F01A0680EC0E9443068AE992E00E941A06CD
S11312002FEF87EA91E6215080409040E1F700C03B
S1131210000019C0CD2BA9F485EA92E00E941A06B9
S113122080EC0E94430685EB92E00E941A062FEFA1
S113123087EA91E6215080409040E1F700C0000029
S113124002C00E941708DF91CF91089581E00E94A7
S1131250430680E80E94430686EC92E00E941A0648
S113126080EC0E94430608950F931F93CF93DF935E
S11312700E942609C0E0D0E011E30E94760589317E
S1131280E1F38F5C8A3399F41C161D06B4F71C2F06
S11312901150106C812F0E94430682E895E00E9451
S11312A01A06812F0E944306219711E3E6CF8C335F
S11312B011F41133C9F41C161D06FCF28433E8F64C
S11312C08233D8F28B3311F0182F01C010E30C2FA6
S11312D0006C802F0E944306812F0E940806802FF5
S11312E00E9443062196C9CF812FDF91CF911F9190
S11312F00F91089581E00E94430680E80E9443060E
S113130087ED92E00E941A0680EC0E94430608953D
S1131310EF92FF921F93CF93DF937C010E947A098F
S1131320C0E0D0E00E9476058931E1F38F5C8A3316
S1131330B9F41C161D06B4F71C2F1150106C812F24
S11313400E94430682E895E00E941A06812F0E94BB
S113135043062197F701EC0FFD1F80E38083E2CF62
S11313608C33C1F0C630D105ECF68B3309F480E33D
S1131370F701EC0FFD1F80831C2F106C812F0E943E
S1131380430680EE94E00E941A06812F0E944306D1
S11313902196C8CFDF91CF911F91FF90EF900895D0
S11313A081E00E94430680E80E94430688EE92E0B2
S11313B00E941A0680EC0E9443060895EF92FF9261
S11313C00F931F93CF93DF937C010E94D00900E019
S11313D010E00E9476058931E1F3C1E3C80FCA33F6
S11313E0C1F410161106ACF7CFEFC00FC06C8C2FF0
S11313F00E94430682E895E00E941A068C2F0E9400
S1131400430601501109F701E00FF11F80E38083C7
S1131410E0CFCC33C1F006301105DCF6CB3309F450
S1131420C0E3F701E00FF11FC083D02FD06C8D2FE4
S11314300E9443068C2F0E9408068D2F0E944306AB
S11314400F5F1F4FC6CFDF91CF911F910F91FF9078
S1131450EF90089581E00E94430680E80E944306CD
S11314608AEF92E00E941A0680EC0E94430686E00E
S113147093E00E941A06089581E00E94430680E8E2
S11314800E9443068AEF92E00E941A0680EC0E94B2
S1131490430683E193E00E941A06089581E00E94C6
S11314A0430680E80E9443068AEF92E00E941A06EF
S11314B080EC0E94430683E293E00E941A0608959A
S11314C02FEF8EE994E2215080409040E1F700C074
S11314D0000083E00E94430683E393E00E941A061F
S11314E080EC0E94430683E493E00E941A062FEFE7
S11314F08DE399E4215080409040E1F700C0000062
S113150081E00E94430680E80E94430684E593E05C
S11315100E941A0680EC0E94430685E693E00E942E
S11315201A06089581E00E94430680E80E9443065B
S113153086E793E00E941A0680EC0E94430687E83F
S113154093E00E941A062FEF8DE399E42150804026
S11315509040E1F700C00000089581E00E94430636
S113156080E80E94430686E993E00E941A0680EC14
S11315700E94430686EA93E00E941A060895CF93D8
S1131580DF93EC010E94AD0A89E1888303C00E94C5
S11315907605888398819B3011F09930C1F781E0FA
S11315A09B3009F480E0DF91CF91089581E00E949F
S11315B0430680E80E94430685EB93E00E941A06E6
S11315C080EC0E9443068FEB93E00E941A062FEFF3
S11315D08DE399E4215080409040E1F700C0000081
S11315E081E00E94430680E80E9443068CEC93E06D
S11315F00E941A0680EC0E9443068AED93E00E9442
S11316001A06089581E00E94430680E80E9443067A
S113161085EB93E00E941A0680EC0E94430681EE5B
S113162093E00E941A062FEF8DE399E42150804045
S11316309040E1F700C0000081E00E94430680E88A
S11316400E9443068CEC93E00E941A0680EC0E94F0
S113165043068EEE93E00E941A06089581E00E94EC
S1131660430680E80E94430685EF93E00E941A0631
S113167080EC0E9443068EEF93E00E941A062FEF3F
S113168083ED90E3215080409040E1F700C00000DA
S1131690089581E00E94430680E80E94430689E0A1
S11316A094E00E941A0680EC0E94430688E194E0CC
S11316B00E941A062FEF83ED90E321508040904062
S11316C0E1F700C000000895CF93C82F81E00E9485
S11316D0430680E80E94430688E294E00E941A06CA
S11316E080E38C0F0E94080680EC0E94430682E38C
S11316F094E00E941A062FEF83ED90E3215080407E
S11317009040E1F700C00000CF91089581E00E946D
S1131710430680E80E9443068FE394E00E941A0681
S113172080EC0E94430687E494E00E941A062FEF9F
S113173083ED90E3215080409040E1F700C0000029
S1131740089581E00E94430680E80E94430682E5F2
S113175094E00E941A0680EC0E94430689E594E016
S11317600E941A062FEF83ED90E3215080409040B1
S1131770E1F700C00000089581E00E94430680E87C
S11317800E94430682E694E00E941A0680EC0E94BE
S113179043068BE694E00E941A062FEF83ED90E354
S11317A0215080409040E1F700C00000089581E09E
S11317B00E94430680E80E9443068AE794E00E9460
S11317C01A0680EC0E94430685E894E00E941A06FB
S11317D02FEF83ED90E3215080409040E1F700C06B
S11317E00000089581E00E94430680E80E944306B9
S11317F08DE894E00E941A0680EC0E9443068EE96C
S113180094E00E941A062FEF83ED90E3215080406C
S11318109040E1F700C00000089581E00E94430673
S113182080E80E9443068CEA94E00E941A0680EC49
S11318300E9443068DEB94E00E941A062FEF87EA7C
S113184091E6215080409040E1F700C000000895E7
S113185081E00E94430680E80E9443068CEC94E0F9
S11318600E941A0685E80E9443060E946A0281EFDC
S113187096E00E941A0683ED94E00E941A0680EC1A
S11318800E94430687ED94E00E941A0685EC0E94AC
S113189043068AEF96E00E941A068EED94E00E94B9
S11318A01A06089581E00E94430680E80E944306D8
S11318B082EE94E00E941A0680EC0E9443068AEEAF
S11318C094E00E941A062FEF87EA91E621508040A7
S11318D09040E1F700C0000008951CC08091E30629
S11318E0863061F018F4823031F014C08A3049F047
S11318F08D3051F00FC00E942A0A0CC00E943C0A8D
S113190009C00E944E0A06C00E94520C1092E306BF
S113191080E008958091C000882304F78091C60078
S11319200895CF930E94B407C9E115C00E947605BB
S1131930C82F8091C000882374F40E946D0C8334F6
S113194051F40E946D0C8D3419F0873549F003C0B1
S113195081E090E007C0C93149F383E090E002C020
S113196082E090E0CF910895CF92DF92EF92FF92C0
S11319700F931F93CF93DF93CDB7DEB765970FB661
S1131980F894DEBF0FBECDBF79012130310509F0D7
S113199043C026E529832A8322E030E034C028307E
S11319A0310564F4FC01E20FF31F3297A081E1E0FA
S11319B0F0E0EC0FFD1FE20FF31FA083D901F90142
S11319C03897E630F10550F4E60FF71F1081E1E097
S11319D0F0E0EC0FFD1FE20FF31F10832E303105F2
S11319E07CF0E2E1F0E0E21BF30BE40FF51FD080A2
S11319F0E1E0F0E0EC0FFD1F2E0F3F1FF901D08254
S1131A009D012F5F3F4F233131054CF20F2EF3E13F
S1131A10CF2ED12CF02D80C0232B81F525E42983F2
S1131A2026E52A8322E030E020C0283031056CF41A
S1131A30FC01E20FF31F32976081E1E0F0E0EC0F6C
S1131A40FD1FE20FF31F60830EC0ECE0F0E0E21B29
S1131A50F30BE40FF51F6081E1E0F0E0EC0FFD1FF4
S1131A60E20FF31F60832F5F3F4F2D303105ECF2FF
S1131A700F2EFDE0CF2ED12CF02D4EC026E529836C
S1131A8020E52A8322E030E03EC02830310564F4AA
S1131A90FC01E20FF31F3297A081E1E0F0E0EC0FCC
S1131AA0FD1FE20FF31FA083D901F9013897E63037
S1131AB0F10550F4E60FF71F1081E1E0F0E0EC0FC0
S1131AC0FD1FE20FF31F10832E30310539F4E1E0DE
S1131AD0F0E0EC0FFD1FE20FF31FE0822F30310521
S1131AE07CF0E3E1F0E0E21BF30BE40FF51FD080A0
S1131AF001E010E00C0F1D1F200F311FF901D082EF
S1131B009D012F5F3F4F243131050CF4BECF0F2EC2
S1131B10F4E1CF2ED12CF02D00E010E00BC0E1E079
S1131B20F0E0EC0FFD1FE00FF11F80810E94C20561
S1131B300F5F1F4F0C151D0594F38DE00E94C20525
S1131B4081E08093E306E114F10499F40E946D0CA2
S1131B50833451F08F3419F08111F5CF32C00E94D3
S1131B60C60781E090E035C00E94E10783E090E081
S1131B7030C00E946D0C833471F018F4882321F175
S1131B80E2CF8F3419F0833559F0DDCF0E94C607B8
S1131B9081E090E01EC00E94E10783E090E019C05C
S1131BA00E946D0C863419F0893431F010C00E9403
S1131BB0170882E090E00DC00E94FC0784E090E0EA
S1131BC008C085E090E005C085E090E002C085E0B3
S1131BD090E065960FB6F894DEBF0FBECDBFDF91DF
S1131BE0CF911F910F91FF90EF90DF90CF900895C8
S1131BF0AF92BF92CF92DF92EF92FF920F931F9317
S1131C00CF93DF937C016B018A0180E090E038C0C0
S1131C1021E0E216F10489F4029751F40EC0580150
S1131C20AC0EBD1E0E946D0CF5018083219602C08E
S1131C30C0E0D0E0C630D10594F3F2E0EF16F10431
S1131C4079F409C05801AC0EBD1E0E946D0CF5015B
S1131C508083219602C0C0E0D0E0C630D10594F361
S1131C60F3E0EF16F10419F4C8010E94DE0920E044
S1131C7030E0A601B801C8010E94B40C1092E3063A
S1131C808130910539F08330910521F0853091053B
S1131C9009F0BECFDF91CF911F910F91FF90EF908C
S1131CA0DF90CF90BF90AF9008950F931F93CF9381
S1131CB0DF93CDB7DEB76B970FB6F894DEBF0FBED8
S1131CC0CDBF80E389838A838B838C8386E0E4E1C0
S1131CD0F1E0DE01159601900D928A95E1F785E019
S1131CE0EAE1F1E0DE011B9601900D928A95E1F79D
S1131CF08CE0EFE1F1E0DE01509601900D928A95BF
S1131D00E1F70E94B708CE0101960E94880980E09D
S1131D1090E000E010E014C0009781F4B801660F71
S1131D20771F660F771F80E190E08C0F9D1F680F6F
S1131D30791FCE0101960E94D40690E00F5F1F4FD9
S1131D40033011054CF3892BC1F00E94A508CE0184
S1131D500B960E945906CE010B960E94E8040E943D
S1131D6097080E94910CAE014B5F5F4FBE01655F07
S1131D707F4F90E00E94F80D02C00E9417089FEF69
S1131D802BE782E9915020408040E1F700C0000039
S1131D906B960FB6F894DEBF0FBECDBFDF91CF9127
S1131DA01F910F9108952F923F924F925F926F92DD
S1131DB07F928F929F92AF92BF92CF92DF92EF92D7
S1131DC0FF920F931F93CF93DF931C015B01742E3B
S1131DD029014801612C00E010E075C081E0A816DB
S1131DE0B104B9F40230110559F410C0E701CC0D67
S1131DF0DD1D0E946D0C8883EFEFCE1ADE0A02C04F
S1131E00C12CD12CF6E0CF16D10484F3C4010E9476
S1131E10880982E0A816B104E1F416C0C630D105E1
S1131E203CF40E946D0CF701EC0FFD1F80830AC087
S1131E306E01E6E0CE1AD108C80CD91C0E946D0CC4
S1131E40F6018083219602C0C0E0D0E0CC30D105F9
S1131E502CF3F3E0AF16B10449F40230110519F084
S1131E60C7010E94DE09C4010E94880982E0781239
S1131E7004C0C7010E946F02682E611008C091015E
S1131E80A201B401C7010E94B40C8C0116C0A401C4
S1131E90B201862D0E94B40490E08130910531F0A6
S1131EA08230910531F402E010E005C001E010E059
S1131EB002C001E010E00E94E9081092E306C801A4
S1131EC00397039738F00130110509F087CF81E0BB
S1131ED090E002C080E090E0DF91CF911F910F91DC
S1131EE0FF90EF90DF90CF90BF90AF909F908F9036
S1131EF07F906F905F904F903F902F900895DF9266
S1131F00EF92FF920F931F93CF93DF93CDB7DEB77A
S1131F1061970FB6F894DEBF0FBECDBF86E0E4E153
S1131F20F1E0DE01119601900D928A95E1F786E0C9
S1131F30E4E1F1E0DE01179601900D928A95E1F754
S1131F4085E0EAE1F1E0DE011D9601900D928A95AB
S1131F50E1F70E94C508CE010D960E945906CE01F4
S1131F600D960E94E8040E94AC07D82E0E94910CA2
S1131F70BC017727CE0107967C018E010F5F1F4FAE
S1131F809E01235F3F4F4D2D81E090E00E94D30ED0
S1131F9061960FB6F894DEBF0FBECDBFDF91CF912F
S1131FA01F910F91FF90EF90DF90089581E00E94C0
S1131FB0430680E80E9443068BEF94E00E941A06D1
S1131FC080EC0E94430685E095E00E941A062FEFFC
S1131FD087EA91E6215080409040E1F700C000007C
S1131FE0089581E00E94430680E80E94430684E14C
S1131FF095E00E941A0680EC0E9443068EE195E06B
S11320000E941A062FEF87EA91E621508040904003
S1132010E1F700C00000089581E00E94430680E8D3
S11320200E9443068AE295E00E941A0680EC0E9410
S1132030430686E395E00E941A062FEF87EA91E6AD
S1132040215080409040E1F700C000000895FC0159
S1132050808190E0FC01E050FF4F2081213029F481
S1132060FC01E050FF4F108205C0FC01E050FF4F1F
S113207021E020830E942E0B089583E00E944306F2
S113208081E495E00E941A0680910001813029F4D0
S113209088E495E00E941A0604C083E595E00E9456
S11320A01A0680EC0E9443068EE595E00E941A060B
S11320B080910101813029F485E695E00E941A0699
S11320C0089580E795E00E941A060895E82FF0E04D
S11320D0E150FF4F80810895AF92BF92CF92DF927B
S11320E0EF92FF920F931F93CF93DF935C016B01E9
S11320F07A018BE795E00E941A0686EC0E9443065B
S1132100C0E0D0E0C7C0C230D105B4F50E94760566
S1132110893191F0893081F08B3071F08A3009F483
S11321208FEF11E3180F812F0E940806F501EC0FC1
S1132130F11D1083219620C08930D9F41C161D0688
S1132140C4F48E01C0FD05C0209719F0CC5FC068AF
S113215002C0CB5FC068C0648C2F0E94430682E833
S113216095E00E941A068C2F0E944306E8012197ED
S113217003C0893009F49DC08E01CE0102978230DC
S11321809105A8F5C230D10521F4875F806C0E94C7
S113219043060E9476058931A1F0893091F08B3095
S11321A081F08A3009F48FEFD1E3D80F8D2F0E948C
S11321B00806C250F601EC0FF11DD083E801219608
S11321C016C08930A1F400FD03C0CB5FC06802C013
S11321D0CA5FC068C0648C2F0E94430682E895E001
S11321E00E941A068C2F0E944306E80121978E0153
S11321F0CE01049782309105A8F5C430D10521F4AD
S1132200845F806C0E9443060E9476058931A1F0A8
S1132210893091F08B3081F08A3009F48FEFD1E36B
S1132220D80FC4508D2F0E940806F701EC0FF11D42
S1132230D083E801219616C08930A1F400FD03C0C3
S1132240CA5FC06802C0C95FC068C0648C2F0E94A6
S1132250430682E895E00E941A068C2F0E944306EA
S1132260E8012197C630D105A9F40E9476058B3088
S113227011F421960FC0893069F41C2F195F106C7A
S1132280812F0E94430680E20E940806812F0E944B
S113229043062197C730D1050CF435CF9FEF2EE9C3
S11322A084E2915020408040E1F700C0000081E0CA
S11322B001C080E0DF91CF911F910F91FF90EF90CB
S11322C0DF90CF90BF90AF900895AF92BF92CF921E
S11322D0DF92EF92FF920F931F93CF93DF935C01F2
S11322E06B017A0184E895E00E941A0686EC0E944C
S11322F04306C0E0D0E0CAC0C230D105B4F50E94A4
S11323007605893191F0893081F08B3071F08A3013
S113231009F48FEF11E3180F812F0E940806F501CD
S1132320EC0FF11D1083219620C08930D9F41C16BE
S11323301D06C4F48E01C0FD05C0209719F0CC5FC2
S1132340C06802C0CB5FC068C0648C2F0E94430683
S113235082E895E00E941A068C2F0E944306E80149
S1132360219703C0893009F4A0C08E01CE010297E1
S113237082309105B8F5C230D10521F4875F806CB5
S11323800E9443060E9476058931A1F0893091F0BC
S11323908B3081F08A3009F48FEFD1E3D80F8D2F81
S11323A00E940806C250F601EC0FF11DD083E8012B
S11323B0219618C08930B1F400FD05C0209719F0AA
S11323C0CB5FC06802C0CA5FC068C0648C2F0E9423
S11323D0430682E895E00E941A068C2F0E94430669
S11323E0E8012197C430D105CCF1C430D10529F4DA
S11323F08C2F885F806C0E9443060E947605893189
S1132400A1F0893091F08B3081F08A3009F48FEF9C
S113241011E3180F812F0E9408068C2F8450F701B6
S1132420E80FF11D1083219619C08930B9F48E018B
S1132430C0FD05C0209719F0CA5FC06802C0C95F1B
S1132440C068C0648C2F0E94430682E895E00E9415
S11324501A068C2F0E944306E8012197C630D10545
S1132460A9F40E9476058B3011F421960FC08930AF
S113247069F41C2F195F106C812F0E94430680E2BF
S11324800E940806812F0E9443062197C730D10578
S11324900CF432CF2FEF8EE994E22150804090402B
S11324A0E1F700C0000081E001C080E0DF91CF913E
S11324B01F910F91FF90EF90DF90CF90BF90AF905E
S11324C00895CF93A0E0B0E017C02091B6053091F5
S11324D0B705FC01EA0FFB1FC081F901EE0FFF1FD6
S11324E0E20FF31FEE0FFF1FE05AF94FEA0FFB1F35
S11324F020ED2C0F20831196A630B10534F320E093
S113250030E018C08091B6059091B705FB01E20F49
S1132510F31FA081FC01EE0FFF1FEE0FFF1FE80F5A
S1132520F91FEE5BF94FE20FF31F80ED8A0F8083F2
S11325302F5F3F4F253031052CF320E030E01AC0E7
S11325408091B6059091B705FA01E20FF31F6081FF
S1132550FC01EE0FFF1FE80FF91FEE0FFF1FEE0F38
S1132560FF1FE650FA4FE20FF31F80ED860F8083C2
S11325702F5F3F4F2C3031051CF38091B6059091AD
S1132580B705863091052CF401969093B705809396
S1132590B605CF910895AF92BF92CF92DF92EF929A
S11325A0FF920F931F93CF93DF93CDB7DEB76D9751
S11325B00FB6F894DEBF0FBECDBF86E0E4E1F1E0D4
S11325C0DE01119601900D928A95E1F786E0E4E12F
S11325D0F1E0DE01179601900D928A95E1F785E00E
S11325E0EAE1F1E0DE011D9601900D928A95E1F792
S11325F00E94D708CE010D960E945906CE010D9671
S11326000E94E8040E943409D82E0E94AC07C82E08
S11326100E94910CBC017727AE01495F5F4F7A019C
S11326208E010F5F1F4F9E01235F3F4F4C2D8D2D59
S113263090E00E94D30E019709F0AEC0498950E0A2
S11326404053510924E6249FC001259F900D112475
S1132650488950E09A0120533109B901660F771F68
S1132660A901440F551F440F551F440F551F9B01CB
S1132670240F351F280F391F8F8590E0C097820FD4
S1132680931F10ED1D0DE12EF12CB7010E94941C37
S11326905C01FB012E8530E020533109C901880F0C
S11326A0991F220F331F220F331F220F331F280FAE
S11326B0391F8D8590E0C097820F931FB7010E9448
S11326C0941CA60EB71E54E6A516B1043CF0C50131
S11326D064E670E00E94941C5C013196CF0164E6CC
S11326E070E00E94941C7C01605D6D872AE030E0FC
S11326F0CF01B9010E94941CCB01B9010E94941C22
S1132700805D8E87C701B9010E94941C805D8F870C
S1132710C501B9010E94941C605D688B805D898B42
S113272081E00E94280120E030E00DC0F901E5516C
S1132730F94F9081E2E1F0E0EC0FFD1FE20FF31F8F
S113274090832F5F3F4F2630310584F31330C1F45B
S113275082E00E94280180E090E00EC0FC013696E1
S1132760DC01A551B94F2C9142E150E04C0F5D1FA3
S1132770E40FF51F20830196863091057CF302C097
S113278089E0888FAE014E5E5F4FBE01635F7F4F6D
S1132790CE0107960E9461126D960FB6F894DEBFC3
S11327A00FBECDBFDF91CF911F910F91FF90EF909E
S11327B0DF90CF90BF90AF9008958133910519F4C5
S11327C00E947F0F08958233910519F40E94CB1261
S11327D00895C39711F40E94550E0895DC0120E07A
S11327E030E00CC0FD01E20FF31F4081FB01E20F5A
S11327F0F31F9081491308C02F5F3F4F26303105E6
S11328008CF381E090E0089580E090E00895CF9308
S1132810DF93AC012FC09A012F5F3F4FF901EE0FF8
S1132820FF1FDF01A20FB31FAA0FBB1FA05AB94F8E
S1132830A60FB71FAC91E20FF31FEE0FFF1FE05A74
S1132840F94FE60FF71F1082FA01EE0FFF1FE40F96
S1132850F51FEE0FFF1FE05AF94FE60FF71FA08395
S11328606F5F7F4F02C060E070E0663071059CF2DC
S11328704F5F5F4FA091B605B091B705BD016150A0
S11328807109461757077CF3EC0125C09E012F5FA1
S11328903F4FF901EE0FFF1FEE0FFF1FE20FF31F73
S11328A0EE5BF94FE40FF51F20811082FE01EE0F5D
S11328B0FF1FEE0FFF1FEC0FFD1FEE5BF94FE40F40
S11328C0F51F20834F5F5F4F02C040E050E045306A
S11328D05105E4F22196C617D707BCF334C09C0116
S11328E02F5F3F4FF901EE0FFF1FEF01C20FD31F00
S11328F0CC0FDD1FCC0FDD1FC650DA4FC40FD51F20
S1132900C881E20FF31FEE0FFF1FEE0FFF1FE6500B
S1132910FA4FE40FF51F1082FC01EE0FFF1FE80FC2
S1132920F91FEE0FFF1FEE0FFF1FE650FA4FE40FE3
S1132930F51FC0834F5F5F4F02C040E050E04C3052
S113294051056CF2019686179707BCF31197B09363
S1132950B705A093B605DF91CF910895FC01EE0F62
S1132960FF1FE80FF91FEE0FFF1FEE0FFF1FE650CA
S1132970FA4F28E020832681293011F40E9407149D
S113298008950E94071408950F931F93CF93DF9324
S11329908C01C0E0D0E00FC0CE01880F991F8C0FCE
S11329A09D1F880F991FB801805A994F0E94EE13FA
S11329B0019751F021968091B6059091B705C817FB
S11329C0D90754F3CFEFDFEFCF3F8FEFD80741F1B3
S11329D0FE01EE0FFF1FEC0FFD1FEE0FFF1FEE0FAA
S11329E0FF1FE650FA4F8081883031F0CE010E94FB
S11329F0AE1481E090E019C0FE01EE0FFF1FEC0F52
S1132A00FD1FEE0FFF1FEE0FFF1FE650FA4F8681EA
S1132A10893049F0CE010E94C11481E090E005C0E4
S1132A2080E090E002C081E090E0DF91CF911F91BF
S1132A300F9108958091B4059091B5051816190663
S1132A4014F481E0089580E0089540E050E01EC051
S1132A502091B4053091B505FC01EE0FFF1FE80F7E
S1132A60F91FEE0FFF1FE05AF94FE40FF51F7081B5
S1132A70F901EE0FFF1FE20FF31FEE0FFF1FEA52E3
S1132A80FA4FE40FF51F70834F5F5F4F46305105D7
S1132A90FCF240E050E01EC02091B4053091B50531
S1132AA0FC01EE0FFF1FEE0FFF1FE80FF91FEE5B97
S1132AB0F94FE40FF51F7081F901EE0FFF1FEE0FC0
S1132AC0FF1FE20FF31FE854FA4FE40FF51F708362
S1132AD04F5F5F4F45305105FCF2613019F40E949D
S1132AE0AE1402C00E94C1148091B4059091B50542
S1132AF001969093B5058093B40508950F931F93A1
S1132B00CF93DF9300D000D000D0CDB7DEB70E94C2
S1132B106A0280E090E025C0FC01EF50F94F20816B
S1132B20E1E0F0E0EC0FFD1FE80FF91F20532083D4
S1132B30FC01EC50F94F2081E3E0F0E0EC0FFD1FC5
S1132B40E80FF91F20532083FC01E950F94F20813D
S1132B50E5E0F0E0EC0FFD1FE80FF91F20532083A0
S1132B60019682309105C4F200E010E0B5C0F8018E
S1132B70EE0FFF1FE00FF11FEE0FFF1FEE0FFF1F01
S1132B80E650FA4F2081283009F4A4C09D81F80151
S1132B90EE0FFF1FE00FF11FEE0FFF1FEE0FFF1FE1
S1132BA0E650FA4F8481891708F479C0981310C04D
S1132BB04E81F801EE0FFF1FE00FF11FEE0FFF1F14
S1132BC0EE0FFF1FE650FA4F3581341708F469C041
S1132BD0981330C09E81F801EE0FFF1FE00FF11F24
S1132BE0EE0FFF1FEE0FFF1FE650FA4F858198137B
S1132BF021C09B81F801EE0FFF1FE00FF11FEE0FC4
S1132C00FF1FEE0FFF1FE650FA4F8281891708F469
S1132C104AC098130FC09C81F801EE0FFF1FE00F0C
S1132C20F11FEE0FFF1FEE0FFF1FE650FA4F8381D7
S1132C308917D8F19B81F801EE0FFF1FE00FF11FF8
S1132C40EE0FFF1FEE0FFF1FE650FA4F828198131D
S1132C502EC09C81F801EE0FFF1FE00FF11FEE0F55
S1132C60FF1FEE0FFF1FE650FA4F8381981322C017
S1132C708981281710F1281322C09A81F801EE0FD8
S1132C80FF1FE00FF11FEE0FFF1FEE0FFF1FE650B7
S1132C90FA4F81818917B0F08FEF9FEF14C0C801FC
S1132CA012C0C80110C0C8010EC0C8010CC08FEF0B
S1132CB09FEF09C08FEF9FEF06C0C80104C08FEFDC
S1132CC09FEF01C0C8018F3F2FEF920719F061E019
S1132CD00E9425150F5F1F4F8091B6059091B7058F
S1132CE0081719070CF443CF00E010E0B7C0F8014F
S1132CF0EE0FFF1FE00FF11FEE0FFF1FEE0FFF1F80
S1132D00E650FA4F268188EF820F823008F4A4C07F
S1132D109D81F801EE0FFF1FE00FF11FEE0FFF1F63
S1132D20EE0FFF1FE650FA4F8285891708F479C029
S1132D30981310C04E81F801EE0FFF1FE00FF11F32
S1132D40EE0FFF1FEE0FFF1FE650FA4F33853417C7
S1132D5008F469C0981330C09E81F801EE0FFF1F7C
S1132D60E00FF11FEE0FFF1FEE0FFF1FE650FA4FAB
S1132D708385981321C09B81F801EE0FFF1FE00F9C
S1132D80F11FEE0FFF1FEE0FFF1FE650FA4F808575
S1132D90891708F44AC098130FC09C81F801EE0FFC
S1132DA0FF1FE00FF11FEE0FFF1FEE0FFF1FE65096
S1132DB0FA4F81858917D8F19B81F801EE0FFF1F27
S1132DC0E00FF11FEE0FFF1FEE0FFF1FE650FA4F4B
S1132DD0808598132EC09C81F801EE0FFF1FE00F31
S1132DE0F11FEE0FFF1FEE0FFF1FE650FA4F818514
S1132DF0981322C08981281710F1281322C09A81C0
S1132E00F801EE0FFF1FE00FF11FEE0FFF1FEE0F93
S1132E10FF1FE650FA4F87818917B0F08FEF9FEFBD
S1132E2014C0C80112C0C80110C0C8010EC0C80136
S1132E300CC08FEF9FEF09C08FEF9FEF06C0C80152
S1132E4004C08FEF9FEF01C0C8018F3F2FEF92079F
S1132E5019F062E00E9425150F5F1F4F8091B6059F
S1132E609091B705081719070CF441CF26960FB6B1
S1132E70F894DEBF0FBECDBFDF91CF911F910F91AC
S1132E800895CF93DF93C82FD0E09E012F5F3F4F6B
S1132E908091B4059091B505821793070CF468C02E
S1132EA081E00E94430680E80E944306AE0127C0E9
S1132EB09A012F5F3F4FF901EE0FFF1FDF01A20FB1
S1132EC0B31FAA0FBB1FAA52BA4FA80FB91F6C9108
S1132ED0FD011082FA01EE0FFF1FE40FF51FEE0F44
S1132EE0FF1FEA52FA4FE80FF91F6083019602C0F0
S1132EF080E090E086309105DCF24F5F5F4F2091D7
S1132F00B4053091B505C90101974817590784F3F1
S1132F1024C0FE013196BF01660F771F660F771F2D
S1132F20E60FF71FE854FA4FE40FF51F6081108293
S1132F30FE01EE0FFF1FEE0FFF1FEC0FFD1FE85405
S1132F40FA4FE40FF51F60834F5F5F4F02C040E00C
S1132F5050E044305105ECF22196C817D907BCF370
S1132F60215031093093B5052093B40581E001C0A7
S1132F7080E0DF91CF9108950F931F93CF93DF9358
S1132F808C01C0E0D0E010C0F801EE0FFF1FE00F8D
S1132F90F11FEE0FFF1FEA52FA4FEC0FFD1F808165
S1132FA0805D0E9408062196C630D1056CF382E844
S1132FB095E00E941A06C0E0D0E010C0F801EE0FC0
S1132FC0FF1FEE0FFF1FE00FF11FE854FA4FEC0F45
S1132FD0FD1F8081805D0E9408062196C530D105C1
S1132FE06CF38DE895E00E941A0681E3800F0E943D
S1132FF00806DF91CF911F910F9108952091B40598
S11330003091B505121613060CF07AC0813021F503
S1133010121613060CF50E94430680E80E9443062C
S113302080E090E00E94BC178091B4059091B505B2
S113303002973CF080EC0E94430681E090E00E94FD
S1133040BC172FEF8BE792E9215080409040E1F7C5
S113305000C0000081E00895823041F5233031053D
S11330602CF12330310554F081E00E94430680E8BE
S11330700E94430682E090E00E94BC178091B40550
S11330809091B50504973CF080EC0E94430683E0E0
S113309090E00E94BC172FEF8BE792E9215080400B
S11330A09040E1F700C0000081E00895833051F5BD
S11330B0243031054CF12530310554F081E00E9473
S11330C0430680E80E94430684E090E00E94BC1717
S11330D08091B4059091B50506973CF080EC0E9470
S11330E0430685E090E00E94BC172FEF8BE792E93E
S11330F0215080409040E1F700C0000081E0089535
S113310080E0089581E0089581E008958F929F9270
S1133110AF92BF92DF92EF92FF920F931F93CF93E0
S1133120DF93CDB7DEB72C970FB6F894DEBF0FBE92
S1133130CDBF4C01FC01808181117FC089E1808376
S11331400E94280C81E08093E206A12CB12C6FC070
S11331500E947605F4018083893019F41092E20606
S113316066C08B3009F063C01092E20654C00E941E
S1133170D60AAE01495F5F4FBE01675F7F4FCE0144
S11331800B960E946C10D82E882329F1FFEFAF1AFA
S1133190BF0A0E94020BAE014F5F5F4FBE016D5F1D
S11331A07F4FCE0105960E946511D82E8823C1F069
S11331B0CE0101967C018E010D5F1F4F9E012B5F96
S11331C03F4FAE01495F5F4FBE01675F7F4F0A9675
S11331D00E94860006C080E0AA24AA94BA2C01C0EA
S11331E080E0882341F0DD2031F00E942E0BAA24D8
S11331F0AA94BA2C0DC0DD2019F00E94490B08C016
S1133200D11006C09FEFA916B90611F0A12CB12C5C
S113321089E1F4018083F2E0AF16B1042CF42FEFBE
S1133220A216B20609F0A3CF89E0F4018083F40169
S11332308081893009F08CCF64C0813099F40E9478
S11332401A15882361F00E940D0C81E00E94FE177C
S113325082E00E94FE1783E00E94FE1752C00E9483
S1133260860B4FC0823051F50E94920A0E943D1095
S113327089E1F401808304C00E947605F40180830F
S1133280F40180818931C1F3823020F4C4010E94A9
S1133290271010C083E00E94430680E995E00E9455
S11332A01A06FFEF23ED80E3F15020408040E1F760
S11332B000C0000089E1F401808323C0833009F554
S11332C00E941A158823C1F00E94F20B89E1F401CF
S11332D0808304C00E947605F4018083F401808118
S11332E08931C1F30E944117882319F00E942E0BE3
S11332F005C00E94A10B02C00E94860B89E1F40163
S1133300808389E1F40180832C960FB6F894DEBFA4
S11333100FBECDBFDF91CF911F910F91FF90EF9022
S1133320DF90BF90AF909F908F9008950F931F935D
S1133330CF93DF938C010E94BC0B0E94D70BC0E09B
S1133340D0E007C0F801EC0FFD1F80810E94C20588
S11333502196CD30D105B4F38DE00E94C2050E94C0
S11333606D0C8F3421F40E94C60781E001C080E017
S1133370DF91CF911F910F9108951F93CF93DF9306
S1133380CDB7DEB763970FB6F894DEBF0FBECDBFDF
S113339020E030E01FC0FC01EE0FFF1FE80FF91F13
S11333A0EE0FFF1FE05AF94FE20FF31F4081E1E0F7
S11333B0F0E0EC0FFD1FE20FF31F4083F90132969A
S11333C067E070E06C0F7D1FE60FF71F405D4083E0
S11333D02F5F3F4F26303105F4F220E030E01AC071
S11333E0A901485F5F4FFC01EE0FFF1FEE0FFF1FA7
S11333F0E80FF91FEE5BF94FE20FF31F6081E7E07E
S1133400F0E0EC0FFD1FE40FF51F40E3460F40838F
S11334102F5F3F4F253031051CF381E48F8380E516
S11334208887CE0107960E949619182F882339F0B1
S1133430CE0101960E94C4140E942E0B02C00E9469
S11334400C10812F63960FB6F894DEBF0FBECDBF6C
S1133450DF91CF911F9108950F931F93CF93DF9323
S113346000D000D000D0CDB7DEB70E946A0280E061
S113347090E025C0FC01EF50F94F2081E1E0F0E03D
S1133480EC0FFD1FE80FF91F20532083FC01EC50C3
S1133490F94F2081E3E0F0E0EC0FFD1FE80FF91F86
S11334A020532083FC01E950F94F2081E5E0F0E04E
S11334B0EC0FFD1FE80FF91F205320830196823083
S11334C09105C4F280E000E010E0DAC0F801EE0FEC
S11334D0FF1FE00FF11FEE0FFF1FEE0FFF1FE6505F
S11334E0FA4F9081983009F451C02981921351C048
S11334F0F801EE0FFF1FE00FF11FEE0FFF1FEE0F9D
S1133500FF1FE650FA4F21819A81291345C0F80123
S1133510EE0FFF1FE00FF11FEE0FFF1FEE0FFF1F57
S1133520E650FA4F22819B81291339C0F801EE0F2E
S1133530FF1FE00FF11FEE0FFF1FEE0FFF1FE650FE
S1133540FA4F23819C8129132DC0F801EE0FFF1F30
S1133550E00FF11FEE0FFF1FEE0FFF1FE650FA4FB3
S113356024819D81291321C0F801EE0FFF1FE00F74
S1133570F11FEE0FFF1FEE0FFF1FE650FA4F2581DC
S11335809E812917A9F02FEF3FEF13C02FEF3FEFD4
S113359010C02FEF3FEF0DC02FEF3FEF0AC02FEF0A
S11335A03FEF07C02FEF3FEF04C02FEF3FEF01C005
S11335B09801F801EE0FFF1FE00FF11FEE0FFF1F40
S11335C0EE0FFF1FE650FA4F9681993009F44FC071
S11335D0498194134CC0F801EE0FFF1FE00FF11F57
S11335E0EE0FFF1FEE0FFF1FE650FA4F47819A813F
S11335F049133DC0F801EE0FFF1FE00FF11FEE0F5E
S1133600FF1FEE0FFF1FE650FA4F40859B814913C1
S11336102EC0F801EE0FFF1FE00FF11FEE0FFF1F8A
S1133620EE0FFF1FE650FA4F41859C8149131FC0DE
S1133630F801EE0FFF1FE00FF11FEE0FFF1FEE0F5B
S1133640FF1FE650FA4F42859D81491310C0F801CF
S1133650EE0FFF1FE00FF11FEE0FFF1FEE0FFF1F16
S1133660E650FA4F43859E81491301C098012F3FCC
S11336709FEF390719F0C9010E94BD190F5F1F4F51
S11336802091B6053091B705021713070CF41ECF2D
S1133690882321F00E94F10F0E94D60F26960FB6C0
S11336A0F894DEBF0FBECDBFDF91CF911F910F9174
S11336B008951F920F920FB60F9211242F933F93E8
S11336C04F935F936F937F938F939F93AF93BF9326
S11336D0EF93FF930E94AA018091E20681110E9458
S11336E0280C8091E40690E00E94C9058093E406CA
S11336F0883731F41092E40698B180E1892788B9BB
S11337008091E306882319F08F5F8093E30680910C
S113371013018B3031F49091E7069F5F9093E70695
S113372002C01092E706893031F48091E6068F5F7B
S11337308093E60602C01092E6068091E706833085
S113374061F48091E506811108C08CE00E94430673
S11337501092E70681E08093E5068091E6068430C6
S113376059F48091E506813039F488E00E944306DB
S11337701092E6061092E5068091EA068C3021F05C
S1133780823111F0863181F48091E90681110CC0F7
S11337908091E806811108C00E942C1A8091EA06E3
S11337A0863111F40E947E150E941A15882329F08F
S11337B098B180E2892788B903C088B18F7D88B920
S11337C0FF91EF91BF91AF919F918F917F916F91F5
S11337D05F914F913F912F910F900FBE0F901F90CB
S11337E0189584E080938000809381001092850076
S11337F01092840084E294EF90938900809388006F
S1133800EFE6F0E080818260808378940895CF931E
S1133810DF93CDB7DEB72C970FB6F894DEBF0FBE9B
S1133820CDBF0E946B0083E390E00E94B7050E9425
S1133830AF060E94F11B8CE00E9443060E946207BF
S113384086E0EBE2F1E0DE01119601900D928A959B
S1133850E1F786E0E1E3F1E0DE01179601900D92D5
S11338608A95E1F7AE014F5F5F4F6FE975E0CB01D9
S11338700E94FA02AE01495F5F4F66EA75E08DEA85
S113388095E00E94FA0201E0002341F083E191E017
S11338900E9432088093120100E00CC083E191E0A1
S11338A00E94BF0A811106C083E191E00E943208A0
S11338B08093120189E18093130110911201112365
S11338C0E1F0812F0E9466108823A1F083E00E941A
S11338D043060E94500704C00E947605809313019A
S11338E08091130190E0C19684339105ACF70E9456
S11338F0DD1303C0812F0E94640B8091120181119A
S1133900C3CF0E94600A89E18093130104C00E941E
S1133910760580931301809113018931C1F383E10A
S113392091E00E948618B0CF97FB072E16F40094FE
S113393007D077FD09D00E94AE1C07FC05D03EF4E9
S1133940909581959F4F0895709561957F4F089547
S1133950EE0FFF1F0590F491E02D0994AA1BBB1BE9
S113396051E107C0AA1FBB1FA617B70710F0A61B7B
S1133970B70B881F991F5A95A9F780959095BC019C
S10B3980CD010895F894FFCF76
S1133988010146464646303132333132333432331C
S113399834350A193030303030302020202020309F
S11339A831323331323334323334353830303030E5
S11339B8303030323030305B315D204156205B325C
S11339C85D204150005B335D204573746F726E6FE8
S11339D80020202020204D69635061790020202098
S11339E8202020203A2900202020202020203B4489
S11339F8004D65746F646F2064652070676D743A58
S1133A08005B315D20646562205B325D2063726512
S1133A1864004170726F782E2F496E736972610069
S1133A284F75206E726F2043617274616F004F701E
S1133A382E207265616C697A61646100636F6D2020
S1133A487375636573736F004F702E206E656761BD
S1133A58646100436F6E746120636F6D2066616CEE
S1133A6868610053616C646F20696E7366632E002D
S1133A7853656E686120636F6D2066616C686100D0
S1133A88496E7369726120612053656E68610042F2
S1133A98656D2056696E646F0041646D696E697363
S1133AA8747261646F72004F70657261646F722022
S1133AB831004F70657261646F7220320043617225
S1133AC874616F206573746F726E6F3A0056616C1F
S1133AD86F72206573746F726E6F3A0052242000FF
S1133AE853656E686120284F50293A0056616C6FFF
S1133AF872202861207669737461293A0056616CD2
S1133B086F722028746F74616C293A0056656E646C
S1133B186120696E7465726E61007265616C697AA0
S1133B28616461200056656E64612063616E63653B
S1133B386C616461004C696D697465206174696EB7
S1133B486769646F20004E722E206465207061726C
S1133B5863656C61733A00496E7369726120612010
S1133B6873656E68613A200043617274616F20283E
S1133B786E756D65726F293A2000416775617264CC
S1133B88616E646F20007365727669646F722E2E9D
S1133B982E20007365727669646F722E2E2E20288B
S1133BA83229007365727669646F722E2E2E20286E
S1133BB833290053656C6563696F6E65206F2071E6
S1133BC87565007175657220636F6E6669677572D5
S1133BD861723A00312D4461746120322D56657248
S1133BE82E50656E00332D4F70657220342D446558
S1133BF8732E50656E0053656C6563696F6E65203E
S1133C086F206F70657200702F206861622F646581
S1133C18736861623A00446573656A61206D75640E
S1133C286172206465006D6F646F3F202A3A4E20EC
S1133C3820233A5300666F726D61746F3A20002036
S1133C4820202064642F6D6D2F797900696E736963
S1133C5872612061206E6F766100646174613A203C
S1133C68002020202068683A6D6D3A737300686FED
S1133C7872613A20004F7065726163616F00436F2F
S1133C886E636C7569646121004461746120494EF6
S1133C9856414C49444121004461746120696E6174
S1133CA86C746572616461004F70657261646F72EF
S1133CB820004465736162696C697461646F004EC5
S1133CC8616F206861200050656E64656E63696188
S1133CD873004F5043414F2000494E56414C4944CC
S1133CE84100436F6272616E646F005061677320B4
S1133CF84167656E6461646F7300416775617264DE
S1133D08616E646F0053697374656D6100496E6612
S1133D186F726D65206F206E756D65726F006461DA
S1133D282070656E64656E6369613A004F726465FC
S1133D386D2064617320696E666F733A0063617203
S1133D4874616F2076616C2E50656E0044617461F5
S1133D583A200020452300486F72613A200020561B
S1133D682A004572726F206E6100436F6D6F6E6931
S1133D78636163616F204578742E00434F4E464952
S1133D88524D4120005061726120636F6E74696EF8
S1133D9875617200636F6272616E63617300666954
S1133DA86E616C697A616461730050617263656CF9
S1133DB861206E616F006C6F63616C697A61646F16
S1133DC8004F706572312000646573686162202059
S1133DD82D310068616220202020202D31004F7091
S1133DE8657232200064657368616220202D320098
S1133DF868616220202020202D320020202F2020DE
S1133E082F20200020203A20203A202000202D00B6
S1133E184F7063616F20496E76616C69646100312B
S1133E2832333435360031313131313100303030CC
S1073E3830303100F1
S9030000FC
