:100000000C9440000C945D000C945D000C945D0019
:100010000C945D000C945D000C945D000C945D00EC
:100020000C945D000C945D000C945D000C947A01BE
:100030000C945D000C945D000C945D000C945D00CC
:100040000C945D000C945D000C945D000C945D00BC
:100050000C945D000C945D000C945D000C945D00AC
:100060000C945D000C945D00BB00D300BD00BF008C
:10007000C100C300C500C700C900CB00CD00CF0040
:1000800011241FBECFEFD8E0DEBFCDBF11E0A0E04E
:10009000B1E0E0E3F5E002C005900D92A633B107B0
:1000A000D9F721E0A6E3B1E001C01D92A833B20761
:1000B000E1F70E9455020C9496020C94000087B15F
:1000C000807F87B98AB18F788AB988B18F6088B903
:1000D00080E026C09AB120E130E0082E02C0220F55
:1000E000331F0A94E2F7292B2AB9E7ECF0E03197A5
:1000F000F1F700C0000090E010C026B130E0092EFA
:1001000002C0359527950A94E2F720FD05C0292FF6
:10011000220F920F890F08959F5F943070F38F5FC5
:100120008330C0F289E108951F93CF93DF930E943B
:100130005F00182FD0E00FC08FE79EE30197F1F723
:1001400000C000000E945F00C82F181302C0DF5FCC
:1001500001C0D0E01C2FDA3078F38C2FDF91CF91E3
:100160001F91089590E08C309105D8F4FC01EC5C6F
:10017000FF4F0C94900281E0089583E0089584E09D
:10018000089585E0089586E0089587E0089588E061
:10019000089589E008958AE008958BE008958CE041
:1001A000089589E1089582E0089595B19F7795B902
:1001B00095B19F7B95B995B19F7D95B995B19F7E7E
:1001C00095B988231CF495B1906895B986FF03C052
:1001D00095B1906495B985FF03C095B1906295B9CA
:1001E00084FF03C085B1806185B985B1826085B91E
:1001F00085E08A95F1F7000085B18D7F85B985E0AE
:100200008A95F1F700000895CF93C82F85B18160DA
:1002100085B985B18D7F85B98C2F0E94D5008C2F33
:100220008295807F0E94D500CF9108950F931F93F0
:10023000CF93DF9300D0CDB7DEB78C011A8219823D
:1002400010C0E981FA81E00FF11F80810E94040152
:1002500089819A8101969A83898385ED8A95F1F740
:100260000000E981FA81E00FF11F80818111E9CF5F
:100270000F900F90DF91CF911F910F910895CF9321
:10028000C82F85B18E7F85B985B18D7F85B98C2FBB
:100290000E94D5008C2F8295807F0E94D50085ED2D
:1002A0008A95F1F70000CF91089583EF84B985B165
:1002B0008E7F85B985B18D7F85B980E30E94D50099
:1002C0008FE39CE90197F1F700C0000088E20E94EB
:1002D000D50095ED9A95F1F7000088E20E943F0164
:1002E00088E00E943F0181E00E943F0186E00E9479
:1002F0003F0108951F920F920FB60F9211242F9372
:100300003F934F935F936F937F938F939F93AF939D
:10031000BF93EF93FF93809119018B3031F480915B
:1003200037018F5F8093370102C0109237018091AF
:1003300037018330C1F480913601882349F080E889
:100340000E943F0188E00E943F011092360109C0DF
:1003500080E80E943F018CE00E943F0181E0809391
:10036000360110923701FF91EF91BF91AF919F91AC
:100370008F917F916F915F914F913F912F910F904E
:100380000FBE0F901F90189584E08093800080939B
:100390008100109285001092840084E294EF909383
:1003A000890080938800EFE6F0E08081826080839E
:1003B00078940895EF92FF920F931F93CF93DF935A
:1003C0007C018B0181E020E030E012C0E901F701FF
:1003D000E20FF31F4081F801E20FF31F90814917EC
:1003E00021F081E40E94040180E09E012F5F3F4FD5
:1003F000263031055CF3DF91CF911F910F91FF9073
:10040000EF9008951F93CF93DF930E9494000E9472
:10041000B2008093190180EC0E943F0180E0C0E0AF
:10042000D0E038C00E94940080931901893199F07E
:100430008B3089F0893079F0C630D10564F491E0D1
:10044000980FFE01EF5FFE4F90838F5C0E940401C6
:10045000219680E01FC08930C1F41C161D0674F47B
:100460001C2F1150106C812F0E943F018AE191E0F6
:100470000E941601812F0E943F01219786E4FE0110
:10048000EF5FFE4F808380E005C08B3011F080E08D
:1004900001C081E0882331F2209721F289E1809325
:1004A0001901DF91CF911F9108950E9455010E947B
:1004B000C4018CE00E943F0189E1809319018CE125
:1004C00091E00E94160110E01EC00E940202C0E0EE
:1004D000D0E016C011110EC0BE01660F771F6C0F61
:1004E0007D1F660F771F695F7E4F81E091E00E945C
:1004F000DA01182F112319F0C093000104C02196CE
:10050000C330D1053CF3112301F381E00E943F0188
:1005100080E80E943F018BE291E00E941601FFCF2C
:10052000EE0FFF1F0590F491E02D0994F894FFCF92
:100530000A46464646464601010101010101010104
:10054000010101010101010101192000496E7369D6
:10055000726120612053656E68610042656D2056AE
:06056000696E646F0000EB
:00000001FF
