:100000000C9440000C945D000C945D000C945D0019
:100010000C945D000C945D000C945D000C945D00EC
:100020000C945D000C945D000C945D000C946202D5
:100030000C945D000C945D000C945D000C945D00CC
:100040000C945D000C945D000C945D000C945D00BC
:100050000C945D000C945D000C945D000C945D00AC
:100060000C945D000C945D004D0252024D025D0245
:100070004D025D024D024D025D024D025D024D02D8
:1000800011241FBECFEFD8E0DEBFCDBF14E0A0E04B
:10009000B1E0ECE4F6E002C005900D92AA36B1079B
:1000A000D9F724E0AAE6B4E001C01D92AE3CB20745
:1000B000E1F70E94D1020C9424030C940000DC01AF
:1000C00090E017C02091700430E0492F50E0FD010E
:1000D000E40FF51F6081F901EE0FFF1FEE0FFF1F08
:1000E0002E0F3F1F2F583B4FF901E40FF51F608380
:1000F0009F5F953038F30895DC0190E017C02091A0
:10010000700430E0492F50E0FD01E40FF51F6081DD
:10011000F901EE0FFF1F2E0F3F1F220F331F235534
:100120003B4FF901E40FF51F60839F5F963038F372
:100130000895DC0190E017C02091700430E0492F51
:1001400050E0FD01E40FF51F6081F901EE0FFF1F84
:100150002E0F3F1F220F331F21573B4FF901E40F92
:10016000F51F60839F5F963038F308950F931F93B8
:10017000CF93DF93209170042530B8F4EB018C010C
:10018000CA010E945F00C8010E947C00CE010E944B
:10019000990080917004E82FF0E0E657FB4F108241
:1001A0008F5F8093700481E001C080E0DF91CF9188
:1001B0001F910F91089587B1807F87B98AB18F7899
:1001C0008AB988B18F6088B980E026C09AB120E1F1
:1001D00030E0082E02C0220F331F0A94E2F7292BC9
:1001E0002AB9E7ECF0E03197F1F700C0000090E0A9
:1001F00010C026B130E0092E02C0359527950A942B
:10020000E2F720FD05C0292F220F920F890F0895D4
:100210009F5F943070F38F5F8330C0F289E108955F
:100220001F93CF93DF930E94DB00182FD0E00FC005
:100230008FE79EE30197F1F700C000000E94DB000A
:10024000C82F181302C0DF5F01C0D0E01C2FDA30C6
:1002500078F38C2FDF91CF911F9108959093C50073
:100260008093C40088E18093C10089E08093C2003C
:10027000089595B19F7795B995B19F7B95B995B143
:100280009F7D95B995B19F7E95B988231CF495B152
:10029000906895B986FF03C095B1906495B985FFC4
:1002A00003C095B1906295B984FF03C085B18061A8
:1002B00085B985B1826085B985E08A95F1F700003E
:1002C00085B18D7F85B985E08A95F1F700000895A5
:1002D000CF93C82F85B1816085B985B18D7F85B9F0
:1002E0008C2F0E9439018C2F8295807F0E943901CA
:1002F000CF9108950F931F93CF93DF9300D0CDB785
:10030000DEB78C011A82198210C0E981FA81E00FF0
:10031000F11F80810E94680189819A8101969A83E8
:10032000898385ED8A95F1F70000E981FA81E00F74
:10033000F11F80818111E9CF0F900F90DF91CF9154
:100340001F910F910895CF93C82F85B18E7F85B9E6
:1003500085B18D7F85B98C2F0E9439018C2F8295B4
:10036000807F0E94390185ED8A95F1F70000CF91D9
:10037000089583EF84B985B18E7F85B985B18D7F6E
:1003800085B980E30E9439018FE39CE90197F1F779
:1003900000C0000088E20E94390195ED9A95F1F7BE
:1003A000000088E20E94A30188E00E94A30181E08E
:1003B0000E94A30186E00E94A301089581E891E0D4
:1003C0000E947A0180EC0E94A3018DE891E00E94D6
:1003D0007A012FEF83ED90E3215080409040E1F7C8
:1003E00000C0000083E00E94A301089510926F04F2
:1003F00010926E0410926D0481E080936C048093DF
:100400006B0486E180936A04089581E080936C0414
:1004100080916B048F5F80936B048D3061F481E079
:1004200080936B0480916A048F5F80936A048436A2
:1004300011F410926A04089580916D048F5F809387
:100440006D048C3339F410926D0480916E048F5FCB
:1004500080936E0480916E048C3339F410926E0494
:1004600080916F048F5F80936F0480916F04883157
:1004700041F510926F0420916C042F5F20936C045F
:10048000E0916B048E2F90E0FC013197EC30F10588
:10049000A0F4EC5CFF4F0C941E03203291F40E94F8
:1004A000050208952D3121F480916A04837011F4BE
:1004B0002E3139F40E94050208952F3111F40E9463
:1004C000050208951F920F920FB60F9211242F93D9
:1004D0003F934F935F936F937F938F939F93AF93CC
:1004E000BF93EF93FF93809100018B3031F4909193
:1004F000CD049F5F9093CD0402C01092CD0489304B
:1005000031F48091CC048F5F8093CC0402C01092B0
:10051000CC048091CD04833061F48091CB048111AF
:1005200008C08CE00E94A3011092CD0481E080936A
:10053000CB048091CC04843059F48091CB04813079
:1005400039F488E00E94A3011092CC041092CB04ED
:100550000E941C02FF91EF91BF91AF919F918F91EB
:100560007F916F915F914F913F912F910F900FBEAF
:100570000F901F90189584E08093800080938100F5
:10058000109285001092840084E294EF9093890089
:1005900080938800EFE6F0E0808182608083789429
:1005A0000895CF93DF93CDB7DEB72C970FB6F894AD
:1005B000DEBF0FBECDBF0E94F60183E390E00E9434
:1005C0002E010E94B9010E94BB0288E00E94A30193
:1005D00004C00E941001809300018091CB04882305
:1005E000C1F38CE00E94A3010E94DE0186E0EEE1EF
:1005F000F1E0DE01119601900D928A95E1F786E017
:10060000E4E2F1E0DE01179601900D928A95E1F7A0
:10061000AE014F5F5F4F65E574E0CB010E94B6000D
:10062000AE01495F5F4F6CE574E083E694E00E94A1
:10063000B6000E94100180930001FBCFEE0FFF1F58
:0C0640000590F491E02D0994F894FFCF90
:10064C001930303030303020202020203131313101
:10065C003131323232323232333333333333383066
:10066C0030303030303032303030496E7369726136
:10067C0020612053656E68610042656D2056696E7D
:10068C00646F0041646D696E6973747261646F723A
:10069C00004F70657261646F722031004F7065722B
:1006AC0061646F722032005B315D204156205B32F9
:1006BC005D204150005B335D204573746F726E6F2B
:1006CC000020202020204D696350617900202020DB
:1006DC00202020203A29004D65746F646F206465DA
:1006EC002070676D743A005B315D20646562205B3D
:1006FC00325D2063726564004170726F782E2F49F1
:10070C006E73697261004F75206E726F2043617257
:10071C0074616F004F702E207265616C697A616430
:10072C006100636F6D207375636573736F004F7039
:10073C002E206E656761646100436F6E7461206387
:10074C006F6D2066616C68610053616C646F206929
:10075C006E7366632E0053656E686120636F6D2047
:10076C0066616C68610043617274616F20657374BB
:10077C006F726E6F3A0056616C6F72206573746F96
:10078C00726E6F3A005224200053656E6861202807
:10079C004F50293A0056616C6F722028612076699F
:1007AC00737461293A0056616C6F722028746F74EF
:1007BC00616C293A0056656E646120696E746572CD
:1007CC006E61007265616C697A61646120005665C6
:1007DC006E64612063616E63656C616461004C6979
:1007EC006D697465206174696E6769646F20004E71
:1007FC00722E2064652070617263656C61733A00BF
:10080C00496E7369726120612073656E68613A206C
:10081C00002A0043617274616F20286E756D6572D9
:10082C006F293A2000416775617264616E646F20B4
:10083C00007365727669646F722E2E2E20005365DC
:10084C006C6563696F6E65206F20717565007175DD
:10085C00657220636F6E666967757261723A0031FA
:10086C002D4461746120322D5665722E50656E00D8
:10087C00332D4F70657220342D4465732E50656E88
:10088C000053656C6563696F6E65206F206F7065D2
:10089C007200702F206861622F6465736861623A20
:1008AC0000446573656A61206D75646172206465CE
:1008BC00006D6F646F3F202A3A4E2020233A53007C
:1008CC00666F726D61746F3A200020202020646482
:1008DC002F6D6D2F797900696E73697261206120BB
:1008EC006E6F766100646174613A200020202020D4
:1008FC0068683A6D6D3A737300686F72613A2000E4
:10090C004F7065726163616F00436F6E636C7569E4
:10091C00646121004461746120494E56414C494444
:10092C004121004461746120696E616C746572616F
:10093C006461004F70657261646F7220004465736E
:10094C006162696C697461646F004F70657231200B
:10095C000064657368616220202D3100686162203B
:10096C00202020202D31004F7065723220006465EC
:10097C007368616220202D32006861622020202083
:10098C00202D32002F004F7063616F20496E76610D
:10099C006C696461003132333435360031313131B8
:0A09AC0031310030303030303100BE
:00000001FF
