:100000000C944C000C9469000C9469000C946900E9
:100010000C9469000C9469000C9469000C946900BC
:100020000C9469000C9469000C9469000C944418B9
:100030000C9469000C9469000C9469000C9469009C
:100040000C9469000C9469000C9469000C9469008C
:100050000C9469000C9469000C9469000C9469007C
:100060000C9469000C9469009903B1039B039D03F0
:100070009F03A103A303A503A703A903AB03AD0338
:10008000B710BC10B710C710B710C710B710B71013
:10009000C710B710C710B71011241FBECFEFD8E09C
:1000A000DEBFCDBF15E0A0E0B1E0E4E4F3E302C0C1
:1000B00005900D92A037B107D9F726E0A0E7B5E08B
:1000C00001C01D92AA37B207E1F70E94E5180C940F
:1000D000A0190C940000DC0160E022C0262F30E063
:1000E000492F50E0F901EE0FFF1FE20FF31FEE0F53
:1000F000FF1FE45CF94F9A01E20FF31F4081FD01FD
:10010000E20FF31F808148130AC0953019F481E093
:10011000860F08959F5F01C090E09630F8F26F5F00
:100120006530D0F380E00895E82FF0E0E85EF94F05
:100130008081833011F481E0089580E00895DC012E
:1001400090E017C02091FF0530E0492F50E0FD01FD
:10015000E40FF51F6081F901EE0FFF1FEE0FFF1F87
:100160002E0F3F1F20503A4FF901E40FF51F608317
:100170009F5F953038F30895DC0190E017C020911F
:10018000FF0530E0492F50E0FD01E40FF51F6081CD
:10019000F901EE0FFF1F2E0F3F1F220F331F245CAC
:1001A000394FF901E40FF51F60839F5F963038F3F4
:1001B0000895DC0190E017C02091FF0530E0492F41
:1001C00050E0FD01E40FF51F6081F901EE0FFF1F04
:1001D0002E0F3F1F220F331F225E394FF901E40F0C
:1001E000F51F60839F5F963038F308950F931F9338
:1001F000CF93DF932091FF052530B8F4EB018C01FC
:10020000CA010E949F00C8010E94BC00CE010E944A
:10021000D9008091FF05E82FF0E0E75EF94F1082EA
:100220008F5F8093FF0581E001C080E0DF91CF9177
:100230001F910F910895CF92DF92EF92FF920F934B
:100240001F93CF93DF938150E0E0F0E0C12CD12CDD
:1002500090E067C0923059F028F4992341F0913032
:1002600079F00BC0933061F0943021F006C041E08A
:1002700050E008C044E650E005C040E050E002C055
:100280004AE050E0923038F5A92FB0E024E030E0A9
:1002900089010A1B1B0B282F30E07901EE0CFF1C93
:1002A000EE0CFF1C2E0D3F1D20503A4F200F311F2A
:1002B000E9012881ED01C60FD71FC88130E02C1B52
:1002C0003109429FE001439FD00D529FD00D112470
:1002D000CC0EDD1E25C0C92FD0E024E030E089011E
:1002E0000C1B1D0B282F30E07901EE0CFF1CEE0CCF
:1002F000FF1C2E0D3F1D20503A4F200F311FD901FA
:100300002C91C60FD71FC88130E02C1B3109429FAA
:10031000E001439FD00D529FD00D1124EC0FFD1F23
:100320009F5F953008F496CFDD2024F43197B4E632
:10033000CB0ED11CC82FD0E02AE030E0C601B901B5
:100340000E947219AE01440F551F440F551FC40F70
:10035000D51FC050DA4F805D8C83605D6B83CF0109
:1003600064E670E00E947219CF0144E6649F801930
:1003700091091124605D6883B9010E947219605D62
:100380006983805D8A83DF91CF911F910F91FF90E8
:10039000EF90DF90CF900895815090E0FC01EE0F38
:1003A000FF1FEE0FFF1FE80FF91FE050FA4F3081DB
:1003B000FB012481231708F49AC032130FC0FC01FB
:1003C000EE0FFF1FEE0FFF1FE80FF91FE050FA4F6F
:1003D0005181FB014381451708F48BC032131DC0C6
:1003E000FC01EE0FFF1FEE0FFF1FE80FF91FE0509B
:1003F000FA4F5181FB01438154130FC0FC01EE0FF2
:10040000FF1FEE0FFF1FE80FF91FE050FA4F528158
:10041000FB014281451708F46EC032132BC0FC016A
:10042000EE0FFF1FEE0FFF1FE80FF91FE050FA4F0E
:100430005181FB01438154131DC0FC01EE0FFF1FCE
:10044000EE0FFF1FE80FF91FE050FA4F5281FB013A
:10045000428154130FC0FC01EE0FFF1FEE0FFF1F70
:10046000E80FF91FE050FA4F5381FB014181451716
:1004700008F443C0321343C0FC01EE0FFF1FEE0F20
:10048000FF1FE80FF91FE050FA4F3181FB01238174
:10049000321337C0FC01EE0FFF1FEE0FFF1FE80FF6
:1004A000F91FE050FA4F3281FB01228132132BC039
:1004B000FC01EE0FFF1FEE0FFF1FE80FF91FE050CA
:1004C000FA4F3381FB01218132131FC0FC01EE0F73
:1004D000FF1FEE0FFF1F8E0F9F1FFC01E050FA4F12
:1004E0009481FB018081981790F480E0089581E069
:1004F000089581E0089581E0089581E0089580E005
:10050000089580E0089580E0089580E0089581E0F6
:100510000895FB0190E01CC0492F50E0DF01A40FBB
:10052000B51F7C91282F30E021503109D901AA0F45
:10053000BB1F2A0F3B1F220F331F225E394FD901E9
:10054000A40FB51F2C91721307C0953039F09F5F2F
:10055000963010F381E0089580E0089581E00895D9
:100560000F931F93CF93C82F8B01BA010E9489026A
:10057000882319F1B8018C2F0E949400882351F030
:10058000F801838182508383EC2FF0E0E85EF94F1D
:10059000108207C0EC2FF0E0E85EF94F80818F5F9A
:1005A0008083B8018C2F0E94CC01882341F0B801D0
:1005B0008C2F0E941B0181E003C082E001C080E01B
:1005C000CF911F910F910895DC0114968C9114978F
:1005D0008033C9F013969C9113979032A1F4129630
:1005E0009C911297903279F411969C9111979032C8
:1005F00051F49C91903239F412968C93129780E2C8
:1006000014968C93149714968C9114978032E1F081
:1006100013969C9113979032B9F012962C911297E1
:10062000203291F411962C911197203269F42C917B
:10063000203251F412969C93129713968C93139731
:1006400080E214968C93149720E030E00CC0C9012E
:10065000FD01E20FF31F2081203211F420E32083FB
:100660009C012F5F3F4F253031058CF3089587B1F2
:10067000807F87B98AB18F788AB987B1806187B95D
:1006800087B1806287B988B18F6088B980E026C061
:100690009AB120E130E0082E02C0220F331F0A94E5
:1006A000E2F7292B2AB9E7ECF0E03197F1F700C027
:1006B000000090E010C026B130E0092E02C0359550
:1006C00027950A94E2F720FD05C0292F220F920FEB
:1006D000890F08959F5F943070F38F5F8330C0F26D
:1006E00089E108951F93CF93DF930E943703182F5A
:1006F000D0E00FC08FE79EE30197F1F700C0000044
:100700000E943703C82F181302C0DF5F01C0D0E07A
:100710001C2FDA3078F38C2FDF91CF911F91089541
:1007200090E08C309105D8F4FC01EC5CFF4F0C9408
:10073000861981E0089583E0089584E0089585E0B6
:10074000089586E0089587E0089588E0089589E097
:1007500008958AE008958BE008958CE0089589E17A
:10076000089582E008959093C5008093C40088E1C5
:100770008093C10089E08093C20008959091C000E9
:1007800095FFFCCF8093C60008958091C000882318
:10079000E4F78091C60008952091C000222314F050
:1007A000019608952091C600222329F088B18F7EFA
:1007B00088B980E090E0089595B19F7795B995B19B
:1007C0009F7B95B995B19F7D95B995B19F7E95B960
:1007D00088231CF495B1906895B986FF03C095B144
:1007E000906495B985FF03C095B1906295B984FF77
:1007F00003C085B1806185B985B1826085B985E026
:100800008A95F1F7000085B18D7F85B985E08A95DD
:10081000F1F700000895CF93C82F85B1816085B9A5
:1008200085B18D7F85B98C2F0E94DC038C2F82953A
:10083000807F0E94DC03CF9108950F931F93CF9385
:10084000DF9300D0CDB7DEB78C011A82198210C0B9
:10085000E981FA81E00FF11F80810E940B048981F8
:100860009A8101969A83898385ED8A95F1F7000034
:10087000E981FA81E00FF11F80818111E9CF0F90AA
:100880000F90DF91CF911F910F910895CF93C82FB3
:1008900085B18E7F85B985B18D7F85B98C2F0E94FA
:1008A000DC038C2F8295807F0E94DC0385ED8A9586
:1008B000F1F70000CF910895EF92FF920F931F93ED
:1008C000CF93DF937C0100E010E00E947203893136
:1008D000E1F3C1E3C80FCA33E1F410161106ACF717
:1008E000C2E0C00FC06C8C2F0E94460487E295E0E6
:1008F0000E941D048C2F0E944604E4E0F0E0E01BFF
:10090000F10B3196EE0DFF1D80E28083015011093D
:10091000DCCFCC3321F4F70185818032E1F405305E
:1009200011059CF6CB3309F4C0E3E4E0F0E0E01BF2
:10093000F10BEE0DFF1DC083D3E0D00FD06C8D2FD7
:100940000E9446048C2F0E940B048D2F0E944604A7
:100950000F5F1F4FBACFDF91CF911F910F91FF9083
:10096000EF90089583EF84B985B18E7F85B985B105
:100970008D7F85B980E30E94DC038FE39CE90197BA
:10098000F1F700C0000088E20E94DC0395ED9A9523
:10099000F1F7000088E20E94460488E00E944604C5
:1009A00081E00E94460486E00E9446040895CF93A9
:1009B000DF93EC01DB0181E020E030E00EC0A90113
:1009C000FE01E20FF31F7081FD01E20FF31F908122
:1009D000791380E09A012F5F3F4F243031057CF37B
:1009E000DF91CF910895FF920F931F93CF93DF93E1
:1009F0008C010E9472030E949003F801808380ECB6
:100A00000E94460480E0C0E0D0E03EC00E94720335
:100A1000F80180838931D1F08B30C1F08930B1F099
:100A2000C430D1059CF48F5C80838B3311F480E358
:100A30008083F8018081FE01EA5BFE4F808386E4BB
:100A400095E00E941D04219680E01EC08930B9F413
:100A50001C161D066CF48C2F8150806CF82E0E94A1
:100A6000460480E20E940B048F2D0E9446042197C9
:100A700086E4FE01EA5BFE4F808380E005C08B3098
:100A800011F080E001C081E0882309F4BFCF2097F6
:100A900009F4BCCF89E1F8018083DF91CF911F91E8
:100AA0000F91FF90089581E00E94460480E80E9423
:100AB00046048BE791E00E941D0480EC0E944604EE
:100AC00089E891E00E941D04089585E991E00E9463
:100AD0001D0480EC0E94460481EA91E00E941D04FE
:100AE0002FEF83ED90E3215080409040E1F700C06C
:100AF000000083E00E944604089581E00E944604BD
:100B000080E80E9446048BEA91E00E941D0480EC7C
:100B10000E9446048BEB91E00E941D0408950E9400
:100B20007D050E9472038931E1F38F5F089581E0B2
:100B30000E94460480E80E9446048CEC91E00E94EA
:100B40001D0480EC0E9446048AED91E00E941D0481
:100B50000895CF930E949705C9E115C00E947203C2
:100B6000C82F8091C000882374F40E94C503833489
:100B700051F40E94C5038D3419F0873549F003C044
:100B800081E090E007C0C93149F383E090E002C002
:100B900082E090E0CF91089581E00E94460480E8D1
:100BA0000E94460488EE91E00E941D0480EC0E94A1
:100BB000460486EF91E00E941D042FEF8FE493EC32
:100BC000215080409040E1F700C00000089581E08E
:100BD0000E94460480E80E94460482E092E00E945F
:100BE0001D0480EC0E9446048DE092E00E941D04EA
:100BF0002FEF8BE792E9215080409040E1F700C051
:100C00000000089581E00E94460480E80E944604A6
:100C100082E092E00E941D0480EC0E9446048DE177
:100C200092E00E941D042FEF8BE792E92150804053
:100C30009040E1F700C00000089581E00E94460462
:100C400080E80E94460482E092E00E941D0480EC4D
:100C50000E9446048AE292E00E941D042FEF8BE777
:100C600092E9215080409040E1F700C000000895D3
:100C7000EF92FF921F93CF93DF937C0110E053C05C
:100C800081E00E94460482E00E9446048AE392E0EA
:100C90000E941D04C7010E94F304C0E0D0E03DC0E3
:100CA00011110CC0BE01660F771F660F771F665BC0
:100CB0007E4F86E491E00E94D704182F112361F142
:100CC00081E00E94460480E80E94460489E492E0A4
:100CD0000E941D0480EC0E944604C11105C083E5FA
:100CE00092E00E941D040DC0C13029F481E692E01B
:100CF0000E941D0406C0C23021F48CE692E00E94DE
:100D00001D042FEF87EA91E6215080409040E1F7E3
:100D100000C000008C2F0BC02196C330D1050CF40D
:100D2000BFCF0E941D06112309F4AACF8FEFDF91D8
:100D3000CF911F91FF90EF90089581E00E944604AB
:100D400080E80E94460487E792E00E941D0480EC40
:100D50000E944604089581E00E94460480E80E94B3
:100D6000460487E892E00E941D0480EC0E9446043D
:100D700086E992E00E941D04089581E00E944604E5
:100D800080E80E9446048AE992E00E941D0480ECFB
:100D90000E944604089581E00E94460480E80E9473
:100DA000460486EA92E00E941D0480EC0E944604FC
:100DB00086E992E00E941D04089581E00E944604A5
:100DC00080E80E94460487EB92E00E941D0480ECBC
:100DD0000E94460486E992E00E941D040895CF9384
:100DE000DF93EC0181E00E94460480E80E94460403
:100DF000C130D105A9F486EC92E00E941D0480EC7C
:100E00000E94460484ED92E00E941D042FEF87EAC1
:100E100091E6215080409040E1F700C0000019C0E9
:100E2000CD2BA9F48FED92E00E941D0480EC0E946E
:100E300046048FEE92E00E941D042FEF87EA91E6B0
:100E4000215080409040E1F700C0000002C00E94A5
:100E50001D06DF91CF91089581E00E94460480E84D
:100E60000E94460480E093E00E941D0480EC0E94F2
:100E7000460408950F931F93CF93DF930E942C078E
:100E8000C0E0D0E011E30E9472038931E1F38F5C8E
:100E90008A3399F41C161D06B4F71C2F1150106CE0
:100EA000812F0E94460487E295E00E941D04812F55
:100EB0000E944604219711E3E6CF8C3311F41133DD
:100EC000C9F41C161D06FCF28433E8F68233D8F20E
:100ED0008B3311F0182F01C010E30C2F006C802F02
:100EE0000E944604812F0E940B04802F0E9446041A
:100EF0002196C9CF812FDF91CF911F910F91089536
:100F000081E00E94460480E80E94460481E193E06B
:100F10000E941D0480EC0E9446040895EF92FF9207
:100F20001F93CF93DF937C010E948007C0E0D0E045
:100F30000E9472038931E1F38F5C8A33B9F41C1685
:100F40001D06B4F71C2F1150106C812F0E9446040F
:100F500087E295E00E941D04812F0E94460421979C
:100F6000F701EC0FFD1F80E38083E2CF8C33C1F0EB
:100F7000C630D105ECF68B3309F480E3F701EC0FB2
:100F8000FD1F80831C2F106C812F0E94460486E475
:100F900095E00E941D04812F0E9446042196C8CF2F
:100FA000DF91CF911F91FF90EF90089581E00E9413
:100FB000460480E80E94460482E293E00E941D04F9
:100FC00080EC0E9446040895EF92FF920F931F93C6
:100FD000CF93DF937C010E94D60700E010E00E94CF
:100FE00072038931E1F3C1E3C80FCA33C1F41016AB
:100FF0001106ACF7CFEFC00FC06C8C2F0E944604D7
:1010000087E295E00E941D048C2F0E944604015047
:101010001109F701E00FF11F80E38083E0CFCC33AB
:10102000C1F006301105DCF6CB3309F4C0E3F7015B
:10103000E00FF11FC083D02FD06C8D2F0E9446048B
:101040008C2F0E940B048D2F0E9446040F5F1F4FB0
:10105000C6CFDF91CF911F910F91FF90EF90089530
:1010600081E00E94460480E80E94460484E393E005
:101070000E941D0480EC0E94460480E493E00E94DC
:101080001D040895CF92DF92EF92FF920F931F936A
:10109000CF93DF93CDB7DEB765970FB6F894DEBF79
:1010A0000FBECDBF79012130310509F043C026E5DF
:1010B00029832A8322E030E034C02830310564F4EB
:1010C000FC01E20FF31F3297A081E1E0F0E0EC0FAA
:1010D000FD1FE20FF31FA083D901F9013897E63015
:1010E000F10550F4E60FF71F1081E1E0F0E0EC0F9E
:1010F000FD1FE20FF31F10832E3031057CF0E2E17B
:10110000F0E0E21BF30BE40FF51FD080E1E0F0E02C
:10111000EC0FFD1F2E0F3F1FF901D0829D012F5FA5
:101120003F4F233131054CF20F2EF3E1CF2ED12C5E
:10113000F02D80C0232B81F525E4298326E52A8321
:1011400022E030E020C0283031056CF4FC01E20FD1
:10115000F31F32976081E1E0F0E0EC0FFD1FE20F3A
:10116000F31F60830EC0ECE0F0E0E21BF30BE40F32
:10117000F51F6081E1E0F0E0EC0FFD1FE20FF31FCF
:1011800060832F5F3F4F2D303105ECF20F2EFDE0D5
:10119000CF2ED12CF02D4EC026E5298320E52A83C1
:1011A00022E030E03EC02830310564F4FC01E20F5B
:1011B000F31F3297A081E1E0F0E0EC0FFD1FE20F9A
:1011C000F31FA083D901F9013897E630F10550F4F7
:1011D000E60FF71F1081E1E0F0E0EC0FFD1FE20FDA
:1011E000F31F10832E30310539F4E1E0F0E0EC0F0D
:1011F000FD1FE20FF31FE0822F3031057CF0E3E1A9
:10120000F0E0E21BF30BE40FF51FD08001E010E0EB
:101210000C0F1D1F200F311FF901D0829D012F5F80
:101220003F4F243131050CF4BECF0F2EF4E1CF2E09
:10123000D12CF02D00E010E00BC0E1E0F0E0EC0F6D
:10124000FD1FE00FF11F80810E94BE030F5F1F4F43
:101250000C151D0594F38DE00E94BE030E9430081A
:10126000E114F10481F40E94C503833439F08F3412
:10127000B9F70E94CC0581E090E028C00E94E70504
:1012800081E090E023C00E94C5038F3429F08335AC
:1012900069F0833429F705C00E94CC0581E090E015
:1012A00015C00E94E70581E090E010C00E94C503D0
:1012B000863419F0893431F0D3CF0E941D0682E0C4
:1012C00090E004C00E94020681E090E065960FB6AF
:1012D000F894DEBF0FBECDBFDF91CF911F910F916C
:1012E000FF90EF90DF90CF900895AF92BF92CF9292
:1012F000DF92EF92FF920F931F93CF93DF936C01D6
:101300005B018A0180E090E036C021E0C216D10482
:1013100089F4029751F40EC07801EC0EFD1E0E9474
:10132000C503F7018083219602C0C0E0D0E0C6303B
:10133000D10594F3F2E0CF16D10479F409C0780115
:10134000EC0EFD1E0E94C503F7018083219602C0AA
:10135000C0E0D0E0C630D10594F3F3E0CF16D1045D
:1013600019F4C8010E94E40720E030E0A501B801AB
:10137000C8010E9442088130910539F6DF91CF9172
:101380001F910F91FF90EF90DF90CF90BF90AF90A3
:1013900008950F931F93CF93DF93CDB7DEB76B976D
:1013A0000FB6F894DEBF0FBECDBF80E389838A837A
:1013B0008B838C8386E0E8E5F1E0DE0115960190F1
:1013C0000D928A95E1F785E0EEE5F1E0DE011B96EE
:1013D00001900D928A95E1F78CE0E3E6F1E0DE0101
:1013E000509601900D928A95E1F70E94BD06CE01BC
:1013F00001960E948E0780E090E000E010E014C0AB
:10140000009781F4B801660F771F660F771F80E1A0
:1014100090E08C0F9D1F680F791FCE0101960E94EE
:10142000D70490E00F5F1F4F033011054CF3892B59
:10143000C1F00E94AB06CE010B960E945C04CE0167
:101440000B960E94E4020E949D060E94A905AE012F
:101450004B5F5F4FBE01655F7F4F90E00E94750953
:1014600002C00E941D069FEF23E284EF91502040AE
:101470008040E1F700C000006B960FB6F894DEBF25
:101480000FBECDBFDF91CF911F910F9108952F9285
:101490003F924F925F926F927F928F929F92AF9204
:1014A000BF92CF92DF92EF92FF920F931F93CF9351
:1014B000DF931C015B01742E2901612C812C912C7E
:1014C00075C081E0A816B104C1F4E2E08E16910463
:1014D00059F410C0E701CC0DDD1D0E94C5038883BF
:1014E000FFEFCF1ADF0A02C0C12CD12C86E0C8164C
:1014F000D10484F3C8010E948E07E2E0AE16B10465
:10150000E1F416C0C630D1053CF40E94C503F701D2
:10151000EC0FFD1F80830AC06E01F6E0CF1AD108E0
:10152000C00ED11E0E94C503F6018083219602C021
:10153000C0E0D0E0CC30D1052CF3F3E0AF16B1041D
:1015400051F482E08816910419F0C7010E94E40763
:10155000C8010E948E07E2E07E1204C0C7010E940B
:101560006B00682E611008C09101A201B801C7018B
:101570000E9442084C011AC0A801B201862D0E94A7
:10158000B00290E08130910541F08230910549F43C
:101590006894882481F8912C07C088248394912C26
:1015A00003C088248394912C0E94EF06F1E08F16EB
:1015B000910409F086CFDF91CF911F910F91FF9099
:1015C000EF90DF90CF90BF90AF909F908F907F90E3
:1015D0006F905F904F903F902F900895DF92EF9221
:1015E000FF920F931F93CF93DF93CDB7DEB7619731
:1015F0000FB6F894DEBF0FBECDBF86E0E8E5F1E0A0
:10160000DE01119601900D928A95E1F786E0E8E5FA
:10161000F1E0DE01179601900D928A95E1F785E0E1
:10162000EEE5F1E0DE011D9601900D928A95E1F75D
:101630000E94CB06CE010D960E945C04CE010D9651
:101640000E94E4020E948F05D82E0E94A905BC01C9
:101650007727CE0107967C018E010F5F1F4F9E01F9
:10166000235F3F4F4D2D81E090E00E94470A619635
:101670000FB6F894DEBF0FBECDBFDF91CF911F91A3
:101680000F91FF90EF90DF9008952FEF8EE994E295
:10169000215080409040E1F700C0000083E00E94AC
:1016A00046048DE493E00E941D0480EC0E944604F1
:1016B0008DE593E00E941D042FEF8DE399E4215006
:1016C00080409040E1F700C0000081E00E944604A5
:1016D00080E80E9446048EE693E00E941D0480ECA0
:1016E0000E9446048FE793E00E941D04089581E064
:1016F0000E94460480E80E94460480E993E00E942C
:101700001D0480EC0E94460481EA93E00E941D04BF
:101710002FEF8DE399E4215080409040E1F700C025
:101720000000089581E00E94460480E80E9446047B
:1017300080EB93E00E941D0480EC0E94460480EC44
:1017400093E00E941D040895CF93DF93EC010E9463
:10175000920B89E1888303C00E9472038883988179
:101760009B3011F09930C1F781E09B3009F480E0A3
:10177000DF91CF91089581E00E94460480E80E94A5
:1017800046048FEC93E00E941D0480EC0E94460406
:1017900089ED93E00E941D042FEF8DE399E4215021
:1017A00080409040E1F700C0000081E00E944604C4
:1017B00080E80E94460486EE93E00E941D0480ECBF
:1017C0000E94460484EF93E00E941D04089581E086
:1017D0000E94460480E80E9446048FEC93E00E9439
:1017E0001D0480EC0E9446048BEF93E00E941D04D0
:1017F0002FEF8DE399E4215080409040E1F700C045
:10180000000081E00E94460480E80E94460486EEC3
:1018100093E00E941D0480EC0E94460488E094E05E
:101820000E941D04089581E00E94460480E80E9401
:1018300046048FE094E00E941D0480EC0E94460460
:1018400088E194E00E941D042FEF83ED90E3215086
:1018500080409040E1F700C00000089581E00E94C0
:10186000460480E80E94460483E294E00E941D043E
:1018700080EC0E94460482E394E00E941D042FEF56
:1018800083ED90E3215080409040E1F700C00000DC
:101890000895CF93C82F81E00E94460480E80E94FB
:1018A000460482E494E00E941D0480E38C0F0E94B1
:1018B0000B0480EC0E9446048CE494E00E941D041A
:1018C0002FEF83ED90E3215080409040E1F700C07E
:1018D0000000CF91089581E00E94460480E80E94B4
:1018E000460489E594E00E941D0480EC0E944604B1
:1018F00081E694E00E941D042FEF83ED90E32150D8
:1019000080409040E1F700C00000089581E00E940F
:10191000460480E80E9446048CE694E00E941D0480
:1019200080EC0E94460483E794E00E941D042FEFA0
:1019300083ED90E3215080409040E1F700C000002B
:10194000089581E00E94460480E80E9446048CE7E6
:1019500094E00E941D0480EC0E94460485E894E017
:101960000E941D042FEF83ED90E3215080409040B2
:10197000E1F700C00000089581E00E94460480E87D
:101980000E94460484E994E00E941D0480EC0E94B9
:1019900046048FE994E00E941D042FEF83ED90E34D
:1019A000215080409040E1F700C00000089581E0A0
:1019B0000E94460480E80E94460487EA94E00E9460
:1019C0001D0480EC0E94460488EB94E00E941D04F4
:1019D0002FEF83ED90E3215080409040E1F700C06D
:1019E0000000089581E00E94460480E80E944604B9
:1019F00086EC94E00E941D0480EC0E94460487ED72
:101A000094E00E941D042FEF87EA91E62150804068
:101A10009040E1F700C000000895FC01808190E053
:101A2000FC01EC5BFE4F2081213029F4FC01EC5BD2
:101A3000FE4F108205C0FC01EC5BFE4F21E02083CD
:101A40000E94130C089583E00E94460486EE94E001
:101A50000E941D0480914401813029F48DEE94E0B0
:101A60000E941D0404C088EF94E00E941D0480ECD5
:101A70000E94460483E095E00E941D048091450188
:101A8000813029F48AE095E00E941D04089585E1E3
:101A900095E00E941D040895E82FF0E0ED5BFE4FF5
:101AA00080810895AF92BF92CF92DF92EF92FF9222
:101AB0000F931F93CF93DF935C016B017A0180E258
:101AC00095E00E941D0486EC0E944604C0E0D0E030
:101AD000C7C0C230D105B4F50E947203893191F0BC
:101AE000893081F08B3071F08A3009F48FEF11E387
:101AF000180F812F0E940B04F501EC0FF11D1083CC
:101B0000219620C08930D9F41C161D06C4F48E011C
:101B1000C0FD05C0209719F0CC5FC06802C0CB5F44
:101B2000C068C0648C2F0E94460487E295E00E9442
:101B30001D048C2F0E944604E801219703C08930C0
:101B400009F49DC08E01CE01029782309105A8F55F
:101B5000C230D10521F4875F806C0E9446040E9448
:101B600072038931A1F0893091F08B3081F08A3095
:101B700009F48FEFD1E3D80F8D2F0E940B04C250D0
:101B8000F601EC0FF11DD083E801219616C08930D3
:101B9000A1F400FD03C0CB5FC06802C0CA5FC0688B
:101BA000C0648C2F0E94460487E295E00E941D04C9
:101BB0008C2F0E944604E80121978E01CE010497E4
:101BC00082309105A8F5C430D10521F4845F806C82
:101BD0000E9446040E9472038931A1F0893091F07D
:101BE0008B3081F08A3009F48FEFD1E3D80FC450E5
:101BF0008D2F0E940B04F701EC0FF11DD083E8013B
:101C0000219616C08930A1F400FD03C0CA5FC068E8
:101C100002C0C95FC068C0648C2F0E94460487E27E
:101C200095E00E941D048C2F0E944604E801219734
:101C3000C630D105A9F40E9472038B3011F42196AD
:101C40000FC0893069F41C2F195F106C812F0E941E
:101C5000460480E20E940B04812F0E9446042197D3
:101C6000C730D1050CF435CF9FEF2EE984E29150B7
:101C700020408040E1F700C0000081E001C080E02A
:101C8000DF91CF911F910F91FF90EF90DF90CF9058
:101C9000BF90AF900895AF92BF92CF92DF92EF9234
:101CA000FF920F931F93CF93DF935C016B017A0137
:101CB00089E295E00E941D0486EC0E944604C0E083
:101CC000D0E0CAC0C230D105B4F50E947203893198
:101CD00091F0893081F08B3071F08A3009F48FEF08
:101CE00011E3180F812F0E940B04F501EC0FF11D79
:101CF0001083219620C08930D9F41C161D06C4F427
:101D00008E01C0FD05C0209719F0CC5FC06802C0ED
:101D1000CB5FC068C0648C2F0E94460487E295E0C8
:101D20000E941D048C2F0E944604E801219703C0E5
:101D3000893009F4A0C08E01CE010297823091054E
:101D4000B8F5C230D10521F4875F806C0E9446044B
:101D50000E9472038931A1F0893091F08B3081F0BB
:101D60008A3009F48FEFD1E3D80F8D2F0E940B0436
:101D7000C250F601EC0FF11DD083E801219618C086
:101D80008930B1F400FD05C0209719F0CB5FC06821
:101D900002C0CA5FC068C0648C2F0E94460487E2FC
:101DA00095E00E941D048C2F0E944604E8012197B3
:101DB000C430D105CCF1C430D10529F48C2F885F13
:101DC000806C0E9446040E9472038931A1F0893020
:101DD00091F08B3081F08A3009F48FEF11E3180F06
:101DE000812F0E940B048C2F8450F701E80FF11D06
:101DF0001083219619C08930B9F48E01C0FD05C049
:101E0000209719F0CA5FC06802C0C95FC068C0648B
:101E10008C2F0E94460487E295E00E941D048C2FBF
:101E20000E944604E8012197C630D105A9F40E941A
:101E300072038B3011F421960FC0893069F41C2F86
:101E4000195F106C812F0E94460480E20E940B04EF
:101E5000812F0E9446042197C730D1050CF432CF60
:101E60002FEF8EE994E2215080409040E1F700C0CE
:101E7000000081E001C080E0DF91CF911F910F91C0
:101E8000FF90EF90DF90CF90BF90AF9008951092A9
:101E900061061092600610925F0681E08093FE0555
:101EA0008093FD0586E18093FC05E8E6F6E08FE28D
:101EB000828385831086E1E7F6E08AE38283858367
:101EC00010860895CF92DF92EF92FF920F931F93A7
:101ED000CF93DF936B01EA01D801FC01408150E010
:101EE000405351098181440F742F770F770F470FAB
:101EF000742F780F7053F601808190E0C097918124
:101F0000880F582F550F550F850F582F590F5053C5
:101F1000888190E0C0979981880F482F440F440F23
:101F2000840F482F490F40538C9190E0C097119631
:101F30009C91880F682F660F660F860F890F60EDE2
:101F4000680FF901808190E0C0979181880F282F58
:101F5000220F220F820F890F20ED280FF7018081B9
:101F600090E0C0979181880F382F330F330F830F84
:101F7000890F8053443670F55D3070F5703270F51E
:101F80007D3140F0523031F4942F937049F57D311A
:101F900049F50CC07F3151F4563031F118F454300A
:101FA00029F422C0593001F15B30F1F08C33F0F4A8
:101FB0006C33F0F42831F0F47093FE055093FD0576
:101FC0004093FC05209361066093600680935F0652
:101FD00081E011C080E00FC080E00DC080E00BC048
:101FE00080E009C080E007C080E005C080E003C059
:101FF00080E001C080E0DF91CF911F910F91FF90B1
:10200000EF90DF90CF9008955091FE053091FD053F
:102010006091FC05462F20E026C091E0930F9D3093
:1020200030F095EF930F4F5F443608F056C096306E
:1020300051F028F4923061F0943099F404C0993052
:1020400011F09B3071F45F3161F49F5F51E009C082
:102050005D3138F0362F337011F45C5101C05B51A3
:102060009F5F2F5F392F2817C0F2E2E6F6E08DEC74
:10207000589F912D112496959695969520E3290FBA
:102080002083990F292F220F220F920F591B505D89
:102090005183389F912D112496959695969520E31E
:1020A000290F2283990F292F220F220F920F391BFC
:1020B000305D3383489F812D1124869586958695C2
:1020C00090E3980F9483880F982F990F990F890F99
:1020D000481B405D458381E0089580E0089581E0DC
:1020E0008093FE058091FD058F5F8093FD058D3007
:1020F00061F481E08093FD058091FC058F5F809302
:10210000FC05843611F41092FC05089580915F0659
:102110008F5F80935F068C3339F410925F06809155
:1021200060068F5F80936006809160068C3339F47F
:1021300010926006809161068F5F809361068091A6
:102140006106883141F5109261062091FE052F5FEE
:102150002093FE05E091FD058E2F90E0FC01319764
:10216000EC30F105A0F4E05CFF4F0C9486192032AE
:1021700091F40E946F1008952D3121F48091FC0597
:10218000837011F42E3139F40E946F1008952F31AD
:1021900011F40E946F10089520916106E1E7F6E0C6
:1021A0008DEC289F912D112496959695969530E368
:1021B000390F3083990F392F330F330F930F291BAA
:1021C000205D218320916006289F912D11249695F2
:1021D0009695969530E3390F3383990F392F330F46
:1021E000330F930F291B205D248390915F06989FE6
:1021F000812D112486958695869520E3280F2683C8
:10220000880F282F220F220F820F981B905D978333
:1022100008952091FE05E8E6F6E08DEC289F912DCB
:10222000112496959695969530E3390F3083990F42
:10223000392F330F330F930F291B205D21832091FA
:10224000FD05289F912D112496959695969530E33E
:10225000390F3383990F392F330F330F930F291B06
:10226000205D24839091FC05989F812D11248695F3
:102270008695869520E3280F2683880F282F220F26
:10228000220F820F981B905D978308950E94091179
:102290000E94CC10089581E00E94460480E80E94CC
:1022A000460482E395E00E941D0485E80E944604EE
:1022B0000E94461188E696E00E941D0489E395E09D
:1022C0000E941D0480EC0E9446048DE395E00E946C
:1022D0001D0485EC0E94460481E796E00E941D04DF
:1022E00084E495E00E941D040895CF93A0E0B0E03F
:1022F00017C02091700530917105FC01EA0FFB1F9A
:10230000C081F901EE0FFF1FE20FF31FEE0FFF1F59
:10231000E852FA4FEA0FFB1F20ED2C0F2083119695
:10232000A630B10534F320E030E018C0809170058C
:1023300090917105FB01E20FF31FA081FC01EE0FEC
:10234000FF1FEE0FFF1FE80FF91FE654FA4FE20FD1
:10235000F31F80ED8A0F80832F5F3F4F25303105BB
:102360002CF320E030E01AC0809170059091710547
:10237000FA01E20FF31F6081FC01EE0FFF1FE80F6F
:10238000F91FEE0FFF1FEE0FFF1FEE58FA4FE20F7F
:10239000F31F80ED860F80832F5F3F4F2C30310578
:1023A0001CF38091700590917105863091052CF495
:1023B00001969093710580937005CF910895AF9227
:1023C000BF92CF92DF92EF92FF920F931F93CF9322
:1023D000DF93CDB7DEB76D970FB6F894DEBF0FBEB3
:1023E000CDBF86E0E8E5F1E0DE01119601900D92A7
:1023F0008A95E1F786E0E8E5F1E0DE0117960190C5
:102400000D928A95E1F785E0EEE5F1E0DE011D969B
:1024100001900D928A95E1F70E94DD06CE010D969E
:102420000E945C04CE010D960E94E4020E943A07CD
:10243000D82E0E948F05C82E0E94A905BC017727BF
:10244000AE01495F5F4F7A018E010F5F1F4F9E0102
:10245000235F3F4F4C2D8D2D90E00E94470A498904
:1024600050E04053510924E6249FC001259F900D60
:102470001124488950E09A0120533109B901660FAF
:10248000771FA901440F551F440F551F440F551FB7
:102490009B01240F351F280F391F8F8590E0C097AF
:1024A000820F931F10ED1D0DE12EF12CB7010E943C
:1024B00072195C01FB012E8530E020533109C901FE
:1024C000880F991F220F331F220F331F220F331F34
:1024D000280F391F8D8590E0C097820F931FB70199
:1024E0000E947219A60EB71E54E6A516B1043CF060
:1024F000C50164E670E00E9472195C013196CF015B
:1025000064E670E00E9472197C01605D6D872AE0CC
:1025100030E0CF01B9010E947219CB01B9010E94CC
:102520007219805D8E87C701B9010E947219805DA2
:102530008F87C501B9010E947219605D688B805D4B
:10254000898B81E00E94041020E030E00DC0F90189
:10255000EE59F94F9081E2E1F0E0EC0FFD1FE20F40
:10256000F31F90832F5F3F4F2630310584F31330E4
:10257000C1F482E00E94041080E090E00EC0FC01F3
:102580003696DC01AE59B94F2C9142E150E04C0F28
:102590005D1FE40FF51F20830196863091057CF3C3
:1025A00002C089E0888FAE014E5E5F4FBE01635F5F
:1025B0007F4FCE0107960E9475116D960FB6F89465
:1025C000DEBF0FBECDBFDF91CF911F910F91FF9066
:1025D000EF90DF90CF90BF90AF9008958133910539
:1025E00019F40E94EE0A08958233910519F40E94AD
:1025F000DF110895C39711F40E94C9090895DC0101
:1026000020E030E00CC0FD01E20FF31F4081FB0130
:10261000E20FF31F9081491308C02F5F3F4F263010
:1026200031058CF381E090E0089580E090E008951A
:10263000CF93DF93AC012FC09A012F5F3F4FF90179
:10264000EE0FFF1FDF01A20FB31FAA0FBB1FA8527F
:10265000BA4FA60FB71FAC91E20FF31FEE0FFF1F8B
:10266000E852FA4FE60FF71F1082FA01EE0FFF1F34
:10267000E40FF51FEE0FFF1FE852FA4FE60FF71FAA
:10268000A0836F5F7F4F02C060E070E0663071052D
:102690009CF24F5F5F4FA0917005B0917105BD0135
:1026A00061507109461757077CF3EC0125C09E0164
:1026B0002F5F3F4FF901EE0FFF1FEE0FFF1FE20FDD
:1026C000F31FE654FA4FE40FF51F20811082FE013C
:1026D000EE0FFF1FEE0FFF1FEC0FFD1FE654FA4F2A
:1026E000E40FF51F20834F5F5F4F02C040E050E0D2
:1026F00045305105E4F22196C617D707BCF334C024
:102700009C012F5F3F4FF901EE0FFF1FEF01C20F3A
:10271000D31FCC0FDD1FCC0FDD1FCE58DA4FC40FF7
:10272000D51FC881E20FF31FEE0FFF1FEE0FFF1F33
:10273000EE58FA4FE40FF51F1082FC01EE0FFF1F59
:10274000E80FF91FEE0FFF1FEE0FFF1FEE58FA4FB5
:10275000E40FF51FC0834F5F5F4F02C040E050E0C1
:102760004C3051056CF2019686179707BCF3119710
:10277000B0937105A0937005DF91CF910895FC018E
:10278000EE0FFF1FE80FF91FEE0FFF1FEE0FFF1FE9
:10279000EE58FA4F28E020832681293011F40E9458
:1027A000181308950E94181308950F931F93CF9341
:1027B000DF938C01C0E0D0E00FC0CE01880F991FDD
:1027C0008C0F9D1F880F991FB80188529A4F0E9445
:1027D000FF12019751F0219680917005909171053B
:1027E000C817D90754F3CFEFDFEFCF3F8FEFD807EC
:1027F00041F1FE01EE0FFF1FEC0FFD1FEE0FFF1F5B
:10280000EE0FFF1FEE58FA4F8081883031F0CE0175
:102810000E94BF1381E090E019C0FE01EE0FFF1F80
:10282000EC0FFD1FEE0FFF1FEE0FFF1FEE58FA4FCC
:102830008681893049F0CE010E94D21381E090E078
:1028400005C080E090E002C081E090E0DF91CF9190
:102850001F910F9108958091000190910101181628
:10286000190614F481E0089580E00895CF93DF9372
:10287000C82FD0E09E012F5F3F4F809100019091C3
:102880000101821793070CF46EC081E00E94460498
:1028900080E80E944604AE0127C09A012F5F3F4F97
:1028A000F901EE0FFF1FDF01A20FB31FAA0FBB1F1D
:1028B000A05EBE4FA80FB91F6C91FD011082FA01F6
:1028C000EE0FFF1FE40FF51FEE0FFF1FE05EFE4F40
:1028D000E80FF91F6083019602C080E090E0863027
:1028E0009105DCF24F5F5F4F8091000190910101F3
:1028F0000197481759078CF384E40E940B0423C006
:10290000FE0131969F01220F331F220F331FE20F6A
:10291000F31FEE5FFE4FE80FF91F20811082FE01CA
:10292000EE0FFF1FEE0FFF1FEC0FFD1FEE5FFE4FC0
:10293000E80FF91F2083019602C080E090E0843008
:102940009105F4F2219680910001909101019C0182
:1029500021503109C217D30784F33093010120932A
:10296000000181E001C080E0DF91CF9108950F93D5
:102970001F93CF93DF938C01C0E0D0E010C0F8012B
:10298000EE0FFF1FE00FF11FEE0FFF1FE05EFE4F87
:10299000EC0FFD1F8081805D0E940B042196C630E4
:1029A000D1056CF387E295E00E941D04C0E0D0E001
:1029B00010C0F801EE0FFF1FEE0FFF1FE00FF11F19
:1029C000EE5FFE4FEC0FFD1F8081805D0E940B04C7
:1029D0002196C530D1056CF388E495E00E941D0472
:1029E00081E3800F0E940B04DF91CF911F910F9123
:1029F00008952091000130910101121613060CF088
:102A00007AC0813021F5121613060CF50E94460497
:102A100080E80E94460480E090E00E94B714809114
:102A200000019091010102973CF080EC0E94460465
:102A300081E090E00E94B7142FEF8DE490E72150E1
:102A400080409040E1F700C0000081E008958230AE
:102A500041F5233031052CF12330310554F081E06C
:102A60000E94460480E80E94460482E090E00E94B2
:102A7000B714809100019091010104973CF080EC23
:102A80000E94460483E090E00E94B7142FEF8DE48B
:102A900090E7215080409040E1F700C0000081E0C5
:102AA0000895833051F5243031054CF1253031053E
:102AB00054F081E00E94460480E80E94460484E0CD
:102AC00090E00E94B7148091000190910101069757
:102AD0003CF080EC0E94460485E090E00E94B71430
:102AE0002FEF8DE490E7215080409040E1F700C047
:102AF000000081E0089580E0089581E0089581E07C
:102B000008958F929F92AF92BF92DF92EF92FF92C1
:102B10000F931F93CF93DF93CDB7DEB72C970FB6EC
:102B2000F894DEBF0FBECDBF4C01FC018081811146
:102B30007FC089E180830E944B1181E080935A0617
:102B4000A12CB12C6FC00E947203F40180838930E4
:102B500019F410925A0666C08B3009F063C01092C7
:102B60005A0654C00E94BB0BAE01495F5F4FBE01C5
:102B7000675F7F4FCE010B960E94520DD82E88239F
:102B800029F1FFEFAF1ABF0A0E94E70BAE014F5FBA
:102B90005F4FBE016D5F7F4FCE0105960E944B0EC9
:102BA000D82E8823C1F0CE0101967C018E010D5FE5
:102BB0001F4F9E012B5F3F4FAE01495F5F4FBE012C
:102BC000675F7F4F0A960E94620F06C080E0AA24CA
:102BD000AA94BA2C01C080E0882341F0DD2031F0B6
:102BE0000E94130CAA24AA94BA2C0DC0DD2019F05F
:102BF0000E942E0C08C0D11006C09FEFA916B9067E
:102C000011F0A12CB12C89E1F4018083F2E0AF1620
:102C1000B1042CF42FEFA216B20609F0A3CF89E07D
:102C2000F4018083F4018081893009F08CCF64C085
:102C3000813099F40E942B14882361F00E94F20CD9
:102C400081E00E94F91482E00E94F91483E00E945E
:102C5000F91452C00E946B0C4FC0823051F50E9493
:102C6000770B0E94230D89E1F401808304C00E9448
:102C70007203F4018083F40180818931C1F38230D1
:102C800020F4C4010E940D0D10C083E00E94460490
:102C90008BE495E00E941D04FFEF23ED80E3F150EB
:102CA00020408040E1F700C0000089E1F40180830A
:102CB00023C0833009F50E942B148823C1F00E94A1
:102CC000D70C89E1F401808304C00E947203F401EF
:102CD0008083F40180818931C1F30E9436148823F6
:102CE00019F00E94130C05C00E94860C02C00E94BD
:102CF0006B0C89E1F401808389E1F40180832C96D7
:102D00000FB6F894DEBF0FBECDBFDF91CF911F91FC
:102D10000F91FF90EF90DF90BF90AF909F908F90BA
:102D200008950F931F93CF93DF938C010E94A10C02
:102D30000E94BC0CC0E0D0E007C0F801EC0FFD1F02
:102D400080810E94BE032196CD30D105B4F30E944C
:102D5000C5038F3421F40E94CC0581E001C080E0DE
:102D6000DF91CF911F910F910895CF93DF93CDB74E
:102D7000DEB763970FB6F894DEBF0FBECDBF20E07D
:102D800030E01FC0FC01EE0FFF1FE80FF91FEE0F30
:102D9000FF1FE852FA4FE20FF31F4081E1E0F0E03D
:102DA000EC0FFD1FE20FF31F4083F901329667E03D
:102DB00070E06C0F7D1FE60FF71F405D40832F5FB3
:102DC0003F4F26303105F4F220E030E01AC0A9016F
:102DD000485F5F4FFC01EE0FFF1FEE0FFF1FE80F74
:102DE000F91FE654FA4FE20FF31F6081E7E0F0E0CD
:102DF000EC0FFD1FE40FF51F40E3460F40832F5FEC
:102E00003F4F253031051CF381E48F8380E58887AF
:102E10008DE08B8BCE0107960E949116882331F0AE
:102E2000CE0101960E94D5130E94130C63960FB633
:102E3000F894DEBF0FBECDBFDF91CF9108950F9301
:102E40001F93CF93DF9300D000D000D0CDB7DEB773
:102E50000E94461180E090E025C0FC01E859F94F3E
:102E60002081E1E0F0E0EC0FFD1FE80FF91F205397
:102E70002083FC01E559F94F2081E3E0F0E0EC0FFD
:102E8000FD1FE80FF91F20532083FC01E259F94F81
:102E90002081E5E0F0E0EC0FFD1FE80FF91F205363
:102EA0002083019682309105C4F200E010E0D9C081
:102EB000F801EE0FFF1FE00FF11FEE0FFF1FEE0FE7
:102EC000FF1FEE58FA4F8081883009F451C0998174
:102ED000891351C0F801EE0FFF1FE00FF11FEE0F35
:102EE000FF1FEE0FFF1FEE58FA4F91818A81981352
:102EF00045C0F801EE0FFF1FE00FF11FEE0FFF1F9F
:102F0000EE0FFF1FEE58FA4F92818B81981339C054
:102F1000F801EE0FFF1FE00FF11FEE0FFF1FEE0F86
:102F2000FF1FEE58FA4F93818C8198132DC0F80142
:102F3000EE0FFF1FE00FF11FEE0FFF1FEE0FFF1F41
:102F4000EE58FA4F94818D81981321C0F801EE0F4D
:102F5000FF1FE00FF11FEE0FFF1FEE0FFF1FEE58D8
:102F6000FA4F95818E819817A9F02FEF3FEF13C08C
:102F70002FEF3FEF10C02FEF3FEF0DC02FEF3FEFD0
:102F80000AC02FEF3FEF07C02FEF3FEF04C02FEF36
:102F90003FEF01C09801F801EE0FFF1FE00FF11F96
:102FA000EE0FFF1FEE0FFF1FEE58FA4F968199307C
:102FB00009F44FC0898198134CC0F801EE0FFF1F30
:102FC000E00FF11FEE0FFF1FEE0FFF1FEE58FA4F3D
:102FD00097818A8198133DC0F801EE0FFF1FE00F23
:102FE000F11FEE0FFF1FEE0FFF1FEE58FA4F9085F7
:102FF0008B8198132EC0F801EE0FFF1FE00FF11F19
:10300000EE0FFF1FEE0FFF1FEE58FA4F91858C81D8
:1030100098131FC0F801EE0FFF1FE00FF11FEE0F16
:10302000FF1FEE0FFF1FEE58FA4F92858D81981308
:1030300010C0F801EE0FFF1FE00FF11FEE0FFF1F92
:10304000EE0FFF1FEE58FA4F93858E81981301C043
:1030500098012115310519F0C9010E94B5160F5FBD
:103060001F4F8091700590917105081719070CF496
:103070001FCF26960FB6F894DEBF0FBECDBFDF91EF
:10308000CF911F910F9108951F920F920FB60F923B
:1030900011242F933F934F935F936F937F938F935D
:1030A0009F93AF93BF93EF93FF930E9486108091FD
:1030B0005A0681110E944B1180915B0690E00E949C
:1030C000CC0380935B06883731F410925B0698B18D
:1030D00080E1892788B9809157018B3031F4909134
:1030E0005E069F5F90935E0602C010925E06893076
:1030F00031F480915D068F5F80935D0602C010926F
:103100005D0680915E06833061F480915C068111DA
:1031100008C08CE00E94460410925E0681E0809315
:103120005C0680915D06843059F480915C068130A4
:1031300039F488E00E94460410925D0610925C0605
:10314000809161068C3021F0823111F0863151F48A
:1031500080916006811106C080915F06833010F473
:103160000E941F170E942B14882329F098B180E237
:10317000892788B903C088B18F7D88B9FF91EF9105
:10318000BF91AF919F918F917F916F915F914F917F
:103190003F912F910F900FBE0F901F90189584E0D4
:1031A00080938000809381001092850010928400AB
:1031B00084E294EF9093890080938800EFE6F0E03A
:1031C00080818260808378940895CF93DF93CDB718
:1031D000DEB72C970FB6F894DEBF0FBECDBF0E94AE
:1031E000470F83E390E00E94B3030E94B2040E9461
:1031F000CF188CE00E9446040E94650586E0EFE649
:10320000F1E0DE01119601900D928A95E1F786E0DA
:10321000E5E7F1E0DE01179601900D928A95E1F75E
:10322000AE014F5F5F4F6AE575E0CB010E94F6008B
:10323000AE01495F5F4F61E675E088E695E00E9468
:10324000F60001E0002341F087E591E00E94380696
:103250008093560100E00CC087E591E00E94A40B2A
:10326000811106C087E591E00E94380680935601DF
:1032700089E180935701109156011123E1F0812FCC
:103280000E944C0D8823A1F083E00E9446040E9416
:10329000530504C00E947203809357018091570127
:1032A00090E0C19684339105ACF70E94EE1203C002
:1032B000812F0E94490C809156018111C3CF0E9439
:1032C000450B89E18093570104C00E9472038093EB
:1032D0005701809157018931C1F387E591E00E9440
:1032E0008115B0CF97FB072E16F4009407D077FD19
:1032F00009D00E948C1907FC05D03EF49095819569
:103300009F4F0895709561957F4F0895EE0FFF1FB1
:103310000590F491E02D0994AA1BBB1B51E107C055
:10332000AA1FBB1FA617B70710F0A61BB70B881F55
:10333000991F5A95A9F780959095BC01CD010895E4
:04334000F894FFCF2F
:103344000300010205080901040705080506020334
:103354000000000000000000000000000000000069
:1033640007080904050507050301050901050907FF
:103374000503000000000000000000000000000041
:1033840000000000010146464646303132333132F6
:103394003334323334350A19303030303030202071
:1033A4002020203031323331323334323334353823
:1033B40030303030303030323030305B315D2041AD
:1033C40056205B325D204150005B335D20457374B1
:1033D4006F726E6F0020202020204D696350617948
:1033E40000202020202020203A29004D65746F649D
:1033F4006F2064652070676D743A005B315D2064F2
:103404006562205B325D2063726564004170726F97
:10341400782E2F496E73697261004F75206E726F3A
:103424002043617274616F004F702E207265616C6D
:10343400697A61646100636F6D207375636573738A
:103444006F004F702E206E656761646100436F6E7C
:10345400746120636F6D2066616C68610053616CF8
:10346400646F20696E7366632E0053656E68612015
:10347400636F6D2066616C686100496E7369726187
:1034840020612053656E68610042656D2056696E47
:10349400646F0041646D696E6973747261646F7204
:1034A400004F70657261646F722031004F706572F5
:1034B40061646F7220320043617274616F206573BE
:1034C400746F726E6F3A0056616C6F72206573741C
:1034D4006F726E6F3A005224200053656E6861204B
:1034E400284F50293A0056616C6F7220286120766B
:1034F40069737461293A0056616C6F722028746F85
:1035040074616C293A0056656E646120696E746555
:10351400726E61007265616C697A61646120005643
:10352400656E64612063616E63656C616461004C07
:10353400696D697465206174696E6769646F2000E0
:103544004E722E2064652070617263656C61733AFB
:1035540000496E7369726120612073656E68613A17
:10356400200043617274616F20286E756D65726FFF
:10357400293A2000416775617264616E646F2000AE
:103584007365727669646F722E2E2E200053656CFB
:103594006563696F6E65206F20717565007175656F
:1035A4007220636F6E666967757261723A00312DBD
:1035B4004461746120322D5665722E50656E00335D
:1035C4002D4F70657220342D4465732E50656E0046
:1035D40053656C6563696F6E65206F206F706572EB
:1035E40000702F206861622F6465736861623A001D
:1035F400446573656A61206D756461722064650059
:103604006D6F646F3F202A3A4E2020233A530066A0
:103614006F726D61746F3A20002020202064642F43
:103624006D6D2F797900696E736972612061206E06
:103634006F766100646174613A2000202020206864
:10364400683A6D6D3A737300686F72613A20004F87
:103654007065726163616F00436F6E636C7569645A
:103664006121004461746120494E56414C494441F2
:1036740021004461746120696E616C7465726164D7
:1036840061004F70657261646F72200044657361FC
:1036940062696C697461646F004E616F20686120B7
:1036A4000050656E64656E63696173004F504341F9
:1036B4004F2000494E56414C49444100436F6272C9
:1036C400616E646F0050616773204167656E646169
:1036D400646F7300416775617264616E646F005357
:1036E400697374656D6100496E666F726D65206FF4
:1036F400206E756D65726F0064612070656E64651F
:103704006E6369613A004F7264656D206461732071
:10371400696E666F733A0063617274616F207661DB
:103724006C2E50656E004F706572312000646573B5
:1037340068616220202D31006861622020202020F1
:103744002D31004F706572322000646573686162C8
:1037540020202D320068616220202020202D32009C
:1037640020202F20202F20200020203A20203A2023
:103774002000446174613A200020452300486F72A0
:10378400613A200020562A00202D004F7063616F9B
:1037940020496E76616C69646100313233343536A8
:1037A40000313131313131003030303030310000CE
:00000001FF
