S00F00006D69635F7061792E7372656333
S11300000C9440000C9455000C9455000C9455002D
S11300100C9455000C9455000C9455000C94550008
S11300200C9455000C9455000C9455000C945500F8
S11300300C9455000C9455000C9455000C945500E8
S11300400C9483000C9455000C9455000C945500AA
S11300500C9455000C9455000C9455000C945500C8
S11300600C9455000C945500BE00C100C400C70098
S1130070CA00CD00D000D300D600D900DC00DF00D8
S113008011241FBECFEFD8E0DEBFCDBF11E0A0E04A
S1130090B1E0E2EAF2E002C005900D92A230B107AD
S11300A0D9F70E9434010C944F010C940000109273
S11300B085001092840080E89EE3909389008093E9
S11300C0880081E080936E007894089581E08093A5
S11300D08100B09BFECF1092810086B3816086BB05
S11300E008959093C5008093C40088E18093C10073
S11300F089E08093C20008959091C00095FFFCCFE1
S11301008093C60008951F920F920FB60F92112488
S11301108F939F9380910001843171F0880F880F31
S1130120982F990F990F890F86BD95B180E2892781
S113013085B985B3816085BB9F918F910F900FBE68
S11301400F901F9018958FE88AB98FEF87B98FE3C6
S113015088B914BC84E085BD089584B1806284B9F3
S113016085B1806285B90895482F50E04C3051051F
S113017040F5FA01EC5CFF4F0C94490180930001B7
S11301800895809300010895809300010895809359
S1130190000108958093000108958093000108955B
S11301A080930001089580930001089580930001D5
S11301B00895809300010895809300010895809329
S11301C0000108951F93CF93DF9314E0180FD0E03C
S11301D0C0E012C00E94660029B181E090E0012EC7
S11301E002C0880F991F0A94E2F78223D81302C031
S11301F0CF5F01C0C0E0D82F80910101C813EACFBE
S11302008D2FDF91CF911F9108950F931F93CF935B
S1130210DF9300E0D4E110E01FC081E090E0012E04
S113022002C0880F991F0A94E2F7809588B9C0E04C
S11302300EC08C2F0E94E200811106C0812F880F0E
S1130240810FD82FDC0F01E0013019F0CF5FC330EC
S113025080F3013019F01F5F1430F8F28D2FDF9115
S1130260CF911F910F91089587E690E00E9471004D
S11302700E94A3000E9457000E94AD000E94050145
S11302808431E1F30E94B400809100010E947C005B
S1130290F5CFEE0FFF1F0590F491E02D0994F8942B
S10502A0FFCF8A
S10502A214073B
S9030000FC
