:100000000C944C000C9469000C9469000C946900E9
:100010000C9469000C9469000C9469000C946900BC
:100020000C9469000C9469000C9469000C940717F7
:100030000C9469000C9469000C9469000C9469009C
:100040000C9469000C9469000C9469000C9469008C
:100050000C9469000C9469000C9469000C9469007C
:100060000C9469000C9469009603AE0398039A03FC
:100070009C039E03A003A203A403A603A803AA0350
:100080005E1063105E106E105E106E105E105E10DB
:100090006E105E106E105E1011241FBECFEFD8E000
:1000A000DEBFCDBF15E0A0E0B1E0EEEBF0E302C0B3
:1000B00005900D92A833B107D9F726E0A8E3B5E083
:1000C00001C01D92A833B207E1F70E94A2170C9459
:1000D0005D180C940000DC0160E022C0262F30E0A7
:1000E000492F50E0F901EE0FFF1FE20FF31FEE0F53
:1000F000FF1FEC5FF94F9A01E20FF31F4081FD01F2
:10010000E20FF31F808148130AC0953019F481E093
:10011000860F08959F5F01C090E09630F8F26F5F00
:100120006530D0F380E00895E82FF0E0E052FA4F18
:100130008081833011F481E0089580E00895DC012E
:1001400090E017C02091C70530E0492F50E0FD0135
:10015000E40FF51F6081F901EE0FFF1FEE0FFF1F87
:100160002E0F3F1F28533A4FF901E40FF51F60830C
:100170009F5F953038F30895DC0190E017C020911F
:10018000C70530E0492F50E0FD01E40FF51F608105
:10019000F901EE0FFF1F2E0F3F1F220F331F2C5FA1
:1001A000394FF901E40FF51F60839F5F963038F3F4
:1001B0000895DC0190E017C02091C70530E0492F79
:1001C00050E0FD01E40FF51F6081F901EE0FFF1F04
:1001D0002E0F3F1F220F331F2A513A4FF901E40F10
:1001E000F51F60839F5F963038F308950F931F9338
:1001F000CF93DF932091C7052530B8F4EB018C0134
:10020000CA010E949F00C8010E94BC00CE010E944A
:10021000D9008091C705E82FF0E0EF51FA4F108226
:100220008F5F8093C70581E001C080E0DF91CF91AF
:100230001F910F910895CF92DF92EF92FF920F934B
:100240001F93CF93DF938150E0E0F0E0C12CD12CDD
:1002500090E067C0923059F028F4992341F0913032
:1002600079F00BC0933061F0943021F006C041E08A
:1002700050E008C044E650E005C040E050E002C055
:100280004AE050E0923038F5A92FB0E024E030E0A9
:1002900089010A1B1B0B282F30E07901EE0CFF1C93
:1002A000EE0CFF1C2E0D3F1D28533A4F200F311F1F
:1002B000E9012881ED01C60FD71FC88130E02C1B52
:1002C0003109429FE001439FD00D529FD00D112470
:1002D000CC0EDD1E25C0C92FD0E024E030E089011E
:1002E0000C1B1D0B282F30E07901EE0CFF1CEE0CCF
:1002F000FF1C2E0D3F1D28533A4F200F311FD901EF
:100300002C91C60FD71FC88130E02C1B3109429FAA
:10031000E001439FD00D529FD00D1124EC0FFD1F23
:100320009F5F953008F496CFDD2024F43197B4E632
:10033000CB0ED11CC82FD0E02AE030E0C601B901B5
:100340000E942F18AE01440F551F440F551FC40FB4
:10035000D51FC853DA4F805D8C83605D6B83CF01FE
:1003600064E670E00E942F18CF0144E6649F801974
:1003700091091124605D6883B9010E942F18605DA6
:100380006983805D8A83DF91CF911F910F91FF90E8
:10039000EF90DF90CF900895815090E0FC01EE0F38
:1003A000FF1FEE0FFF1FE80FF91FE853FA4F3081D0
:1003B000FB012481231708F49AC032130FC0FC01FB
:1003C000EE0FFF1FEE0FFF1FE80FF91FE853FA4F64
:1003D0005181FB014381451708F48BC032131DC0C6
:1003E000FC01EE0FFF1FEE0FFF1FE80FF91FE85390
:1003F000FA4F5181FB01438154130FC0FC01EE0FF2
:10040000FF1FEE0FFF1FE80FF91FE853FA4F52814D
:10041000FB014281451708F46EC032132BC0FC016A
:10042000EE0FFF1FEE0FFF1FE80FF91FE853FA4F03
:100430005181FB01438154131DC0FC01EE0FFF1FCE
:10044000EE0FFF1FE80FF91FE853FA4F5281FB012F
:10045000428154130FC0FC01EE0FFF1FEE0FFF1F70
:10046000E80FF91FE853FA4F5381FB01418145170B
:1004700008F443C0321343C0FC01EE0FFF1FEE0F20
:10048000FF1FE80FF91FE853FA4F3181FB01238169
:10049000321337C0FC01EE0FFF1FEE0FFF1FE80FF6
:1004A000F91FE853FA4F3281FB01228132132BC02E
:1004B000FC01EE0FFF1FEE0FFF1FE80FF91FE853BF
:1004C000FA4F3381FB01218132131FC0FC01EE0F73
:1004D000FF1FEE0FFF1F8E0F9F1FFC01E853FA4F07
:1004E0009481FB018081981790F480E0089581E069
:1004F000089581E0089581E0089581E0089580E005
:10050000089580E0089580E0089580E0089581E0F6
:100510000895FB0190E01CC0492F50E0DF01A40FBB
:10052000B51F7C91282F30E021503109D901AA0F45
:10053000BB1F2A0F3B1F220F331F2A513A4FD901ED
:10054000A40FB51F2C91721307C0953039F09F5F2F
:10055000963010F381E0089580E0089581E00895D9
:100560000F931F93CF93C82F8B01BA010E9489026A
:10057000882319F1B8018C2F0E949400882351F030
:10058000F801838182508383EC2FF0E0E052FA4F30
:10059000108207C0EC2FF0E0E052FA4F80818F5FAD
:1005A0008083B8018C2F0E94CC01882341F0B801D0
:1005B0008C2F0E941B0181E003C082E001C080E01B
:1005C000CF911F910F910895DC0114968C9114978F
:1005D0008033C9F013969C9113979032A1F4129630
:1005E0009C911297903279F411969C9111979032C8
:1005F00051F49C91903239F412968C93129780E2C8
:1006000014968C93149714968C9114978032E1F081
:1006100013969C9113979032B9F012962C911297E1
:10062000203291F411962C911197203269F42C917B
:10063000203251F412969C93129713968C93139731
:1006400080E214968C93149720E030E00CC0C9012E
:10065000FD01E20FF31F2081203211F420E32083FB
:100660009C012F5F3F4F253031058CF3089587B1F2
:10067000807F87B98AB18F788AB987B1806187B95D
:1006800088B18F6088B980E026C09AB120E130E05F
:10069000082E02C0220F331F0A94E2F7292B2AB931
:1006A000E7ECF0E03197F1F700C0000090E010C0F7
:1006B00026B130E0092E02C0359527950A94E2F75D
:1006C00020FD05C0292F220F920F890F08959F5FEB
:1006D000943070F38F5F8330C0F289E108951F93E7
:1006E000CF93DF930E943703182FD0E00FC08FE71E
:1006F0009EE30197F1F700C000000E943703C82F66
:10070000181302C0DF5F01C0D0E01C2FDA3078F38D
:100710008C2FDF91CF911F91089590E08C3091053F
:10072000D8F4FC01EC5CFF4F0C94431881E0089571
:1007300083E0089584E0089585E0089586E00895B3
:1007400087E0089588E0089589E008958AE0089593
:100750008BE008958CE0089589E1089582E0089582
:100760009093C5008093C40088E18093C10089E024
:100770008093C20008959091C00095FFFCCF8093B4
:10078000C60008958091C0008823E4F78091C600D8
:1007900008952091C000222314F00196089520911D
:1007A000C600222329F088B18F7E88B980E090E0CE
:1007B000089595B19F7795B995B19F7B95B995B1FE
:1007C0009F7D95B995B19F7E95B988231CF495B10D
:1007D000906895B986FF03C095B1906495B985FF7F
:1007E00003C095B1906295B984FF03C085B1806163
:1007F00085B985B1826085B985E08A95F1F70000F9
:1008000085B18D7F85B985E08A95F1F7000008955F
:10081000CF93C82F85B1816085B985B18D7F85B9AA
:100820008C2F0E94D9038C2F8295807F0E94D90340
:10083000CF9108950F931F93CF93DF9300D0CDB73F
:10084000DEB78C011A82198210C0E981FA81E00FAB
:10085000F11F80810E94080489819A8101969A8300
:10086000898385ED8A95F1F70000E981FA81E00F2F
:10087000F11F80818111E9CF0F900F90DF91CF910F
:100880001F910F910895CF93C82F85B18E7F85B9A1
:1008900085B18D7F85B98C2F0E94D9038C2F8295CD
:1008A000807F0E94D90385ED8A95F1F70000CF91F2
:1008B0000895EF92FF920F931F93CF93DF937C01E4
:1008C00000E010E00E946F038931E1F3C1E3C80F3B
:1008D000CA33E1F410161106ACF7C2E0C00FC06CC9
:1008E0008C2F0E94430486E095E00E941A048C2F0E
:1008F0000E944304E4E0F0E0E01BF10B3196EE0DC2
:10090000FF1D80E2808301501109DCCFCC3321F43C
:10091000F70185818033E1F4053011059CF6CB3376
:1009200009F4C0E3E4E0F0E0E01BF10BEE0DFF1D85
:10093000C083D3E0D00FD06C8D2F0E9443048C2F46
:100940000E9408048D2F0E9443040F5F1F4FBACFEF
:10095000DF91CF911F910F91FF90EF90089583EF5A
:1009600084B985B18E7F85B985B18D7F85B980E3E6
:100970000E94D9038FE39CE90197F1F700C00000C2
:1009800088E20E94D90395ED9A95F1F7000088E27C
:100990000E94430488E00E94430481E00E944304D3
:1009A00086E00E9443040895CF93DF93EC01DB01BE
:1009B00081E020E030E00EC0A901FE01E20FF31F4C
:1009C0007081FD01E20FF31F9081791380E09A019D
:1009D0002F5F3F4F243031057CF3DF91CF91089595
:1009E000FF920F931F93CF93DF938C010E946F03AD
:1009F0000E948D03F801808380EC0E94430480E014
:100A0000C0E0D0E03EC00E946F03F80180838931CE
:100A1000D1F08B30C1F08930B1F0C430D1059CF4F5
:100A20008F5C80838B3311F480E38083F8018081B5
:100A3000FE01EA5BFE4F80838BE791E00E941A047F
:100A4000219680E01EC08930B9F41C161D066CF496
:100A50008C2F8150806CF82E0E94430480E20E940B
:100A600008048F2D0E944304219786E4FE01EA5B6F
:100A7000FE4F808380E005C08B3011F080E001C024
:100A800081E0882309F4BFCF209709F4BCCF89E126
:100A9000F8018083DF91CF911F910F91FF9008950E
:100AA00081E00E94430480E80E9443048DE791E0C6
:100AB0000E941A0480EC0E9443048BE891E00E949B
:100AC0001A04089587E991E00E941A0480EC0E94BC
:100AD000430483EA91E00E941A042FEF83ED90E330
:100AE000215080409040E1F700C0000083E00E9468
:100AF0004304089581E00E94430480E80E94430477
:100B00008DEA91E00E941A0480EC0E9443048DEB70
:100B100091E00E941A0408950E947A050E946F03D2
:100B20008931E1F38F5F089581E00E94430480E8FA
:100B30000E9443048EEC91E00E941A0480EC0E9413
:100B400043048CED91E00E941A040895CF930E9413
:100B50009405C9E115C00E946F03C82F8091C000A1
:100B6000882374F40E94C203833451F40E94C203A8
:100B70008D3419F0873549F003C081E090E007C05B
:100B8000C93149F383E090E002C082E090E0CF9168
:100B9000089581E00E94430480E80E9443048AEEA5
:100BA00091E00E941A0480EC0E94430488EF91E0D7
:100BB0000E941A042FEF8FE493EC21508040904064
:100BC000E1F700C00000089581E00E94430480E83E
:100BD0000E94430484E092E00E941A0480EC0E9488
:100BE00043048FE092E00E941A042FEF8BE792E912
:100BF000215080409040E1F700C00000089581E05E
:100C00000E94430480E80E94430484E092E00E9432
:100C10001A0480EC0E9443048FE192E00E941A04BF
:100C20002FEF8BE792E9215080409040E1F700C020
:100C30000000089581E00E94430480E80E9443047C
:100C400084E092E00E941A0480EC0E9443048CE24B
:100C500092E00E941A042FEF8BE792E92150804026
:100C60009040E1F700C000000895EF92FF921F93BB
:100C7000CF93DF937C0110E053C081E00E944304D6
:100C800082E00E9443048CE392E00E941A04C701B0
:100C90000E94F004C0E0D0E03DC011110CC0BE01C4
:100CA000660F771F660F771F665B7E4F86E491E0C5
:100CB0000E94D404182F112361F181E00E944304A3
:100CC00080E80E9443048BE492E00E941A0480ECC6
:100CD0000E944304C11105C085E592E00E941A04F8
:100CE0000DC0C13029F483E692E00E941A0406C0C8
:100CF000C23021F48EE692E00E941A042FEF87EAB8
:100D000091E6215080409040E1F700C000008C2F18
:100D10000BC02196C330D1050CF4BFCF0E941A0638
:100D2000112309F4AACF8FEFDF91CF911F91FF908C
:100D3000EF90089581E00E94430480E80E944304FC
:100D400089E792E00E941A0480EC0E94430408950F
:100D500081E00E94430480E80E94430489E892E015
:100D60000E941A0480EC0E94430488E992E00E94E9
:100D70001A04089581E00E94430480E80E9443041D
:100D80008CE992E00E941A0480EC0E9443040895CA
:100D900081E00E94430480E80E94430488EA92E0D4
:100DA0000E941A0480EC0E94430488E992E00E94A9
:100DB0001A04089581E00E94430480E80E944304DD
:100DC00089EB92E00E941A0480EC0E94430488E9B7
:100DD00092E00E941A040895CF93DF93EC0181E022
:100DE0000E94430480E80E944304C130D105A9F465
:100DF00088EC92E00E941A0480EC0E94430486ED85
:100E000092E00E941A042FEF87EA91E62150804079
:100E10009040E1F700C0000019C0CD2BA9F481EE8D
:100E200092E00E941A0480EC0E94430481EF92E059
:100E30000E941A042FEF87EA91E6215080409040EB
:100E4000E1F700C0000002C00E941A06DF91CF91B6
:100E5000089581E00E94430480E80E94430482E0F8
:100E600093E00E941A0480EC0E94430408950F93BB
:100E70001F93CF93DF930E942907C0E0D0E011E3D6
:100E80000E946F038931E1F38F5C8A3399F41C1659
:100E90001D06B4F71C2F1150106C812F0E944304C3
:100EA00086E095E00E941A04812F0E944304219756
:100EB00011E3E6CF8C3311F41133C9F41C161D066F
:100EC000FCF28433E8F68233D8F28B3311F0182F1A
:100ED00001C010E30C2F006C802F0E944304812F6F
:100EE0000E940804802F0E9443042196C9CF812FBD
:100EF000DF91CF911F910F91089581E00E944304EB
:100F000080E80E94430483E193E00E941A0480EC8D
:100F10000E9443040895EF92FF921F93CF93DF93B3
:100F20007C010E947D07C0E0D0E00E946F03893100
:100F3000E1F38F5C8A33B9F41C161D06B4F71C2F3D
:100F40001150106C812F0E94430486E095E00E94AE
:100F50001A04812F0E9443042197F701EC0FFD1F13
:100F600080E38083E2CF8C33C1F0C630D105ECF64C
:100F70008B3309F480E3F701EC0FFD1F80831C2FF6
:100F8000106C812F0E9443048BE791E00E941A04A9
:100F9000812F0E9443042196C8CFDF91CF911F91EA
:100FA000FF90EF90089581E00E94430480E80E9442
:100FB000430484E293E00E941A0480EC0E944304FC
:100FC0000895EF92FF920F931F93CF93DF937C01CD
:100FD0000E94D30700E010E00E946F038931E1F323
:100FE000C1E3C80FCA33C1F410161106ACF7CFEF36
:100FF000C00FC06C8C2F0E94430486E095E00E94D5
:101000001A048C2F0E94430401501109F701E00FCC
:10101000F11F80E38083E0CFCC33C1F006301105AF
:10102000DCF6CB3309F4C0E3F701E00FF11FC08316
:10103000D02FD06C8D2F0E9443048C2F0E94080467
:101040008D2F0E9443040F5F1F4FC6CFDF91CF91BA
:101050001F910F91FF90EF90089581E00E9443044B
:1010600080E80E94430486E393E00E941A0480EC27
:101070000E94430482E493E00E941A040895EF92D0
:10108000FF920F931F93CF93DF93CDB7DEB7659792
:101090000FB6F894DEBF0FBECDBF2130310509F089
:1010A00043C026E529832A8322E030E034C028307B
:1010B000310564F4FC01E20FF31F3297A081E1E0F7
:1010C000F0E0EC0FFD1FE20FF31FA083D901F9013F
:1010D0003897E630F10550F4E60FF71F1081E1E094
:1010E000F0E0EC0FFD1FE20FF31F10832E303105EF
:1010F0007CF0E2E1F0E0E21BF30BE40FF51FF0807F
:1011000001E010E00C0F1D1F200F311FF901F082CC
:101110009D012F5F3F4F233131054CF20F2EF3E13C
:10112000EF2EF12CF02D80C02115310581F525E43D
:10113000298326E52A8322E030E020C028303105CB
:101140006CF4FC01E20FF31F32976081E1E0F0E004
:10115000EC0FFD1FE20FF31F60830EC0ECE0F0E028
:10116000E21BF30BE40FF51F6081E1E0F0E0EC0F10
:10117000FD1FE20FF31F60832F5F3F4F2D303105BE
:10118000ECF20F2EFDE0EF2EF12CF02D4DC0E6E538
:10119000E983E0E5EA83E2E0F0E03DC0E830F10514
:1011A00064F4DC01AE0FBF1F12971C91A1E0B0E008
:1011B000AC0FBD1FAE0FBF1F1C938F01DF0118972F
:1011C000A630B10550F4A60FB71FFC90A1E0B0E027
:1011D000AC0FBD1FAE0FBF1FFC92EE30F10539F40E
:1011E000A1E0B0E0AC0FBD1FAE0FBF1F2C93EF30DE
:1011F000F1057CF0A3E1B0E0AE1BBF0BA40FB51F5F
:10120000AC91EE24E394F12CEC0EFD1EEE0DFF1DCF
:10121000A083F8013196E431F1050CF4BFCF0F2E15
:10122000F4E1EF2EF12CF02D00E010E00BC0E1E036
:10123000F0E0EC0FFD1FE00FF11F80810E94BB0367
:101240000F5F1F4F0E151F0594F38DE00E94BB0327
:101250000E942D080E94C2038F3429F0833569F063
:101260008334C1F705C00E94C90581E090E015C034
:101270000E94E40581E090E010C00E94C203863421
:1012800019F0893431F0E6CF0E941A0682E090E02E
:1012900004C00E94FF0581E090E065960FB6F894C7
:1012A000DEBF0FBECDBFDF91CF911F910F91FF9099
:1012B000EF900895AF92BF92CF92DF92EF92FF929C
:1012C0000F931F93CF93DF936C015B018A0180E042
:1012D00090E036C021E0C216D10489F4029751F49F
:1012E0000EC07801EC0EFD1E0E94C203F701808340
:1012F000219602C0C0E0D0E0C630D10594F3F2E000
:10130000CF16D10479F409C07801EC0EFD1E0E94BD
:10131000C203F7018083219602C0C0E0D0E0C6304E
:10132000D10594F3F3E0CF16D10419F4C8010E945B
:10133000E10720E030E0A501B801C8010E943F08A4
:101340008130910539F6DF91CF911F910F91FF9078
:10135000EF90DF90CF90BF90AF9008950F931F93C1
:10136000CF93DF93CDB7DEB76D970FB6F894DEBF9E
:101370000FBECDBF86E0E8E5F1E0DE0111960190F9
:101380000D928A95E1F786E0E8E5F1E0DE01179637
:1013900001900D928A95E1F785E0EEE5F1E0DE013E
:1013A0001D9601900D928A95E1F78CE0E3E6F1E05D
:1013B000DE01529601900D928A95E1F70E94BA06DD
:1013C000CE0101960E948B0780E090E000E010E0E3
:1013D00014C0009781F4B801660F771F660F771F5E
:1013E00082E190E08C0F9D1F680F791FCE0101965E
:1013F0000E94D40490E00F5F1F4F033011054CF39F
:10140000892BC1F00E94A806CE010D960E945904B6
:10141000CE010D960E94E4020E949A060E94A60543
:10142000AE01495F5F4FBE01635F7F4F90E00E9456
:101430005A0902C00E941A069FEF23E284EF9150DE
:1014400020408040E1F700C000006D960FB6F89490
:10145000DEBF0FBECDBFDF91CF911F910F910895D9
:101460002F923F924F925F926F927F928F929F92B4
:10147000AF92BF92CF92DF92EF92FF920F931F93A2
:10148000CF93DF931C015B01742E2901612C812C09
:10149000912C75C081E0A816B104C1F4E2E08E166B
:1014A000910459F410C0E701CC0DDD1D0E94C20368
:1014B0008883FFEFCF1ADF0A02C0C12CD12C86E04F
:1014C000C816D10484F3C8010E948B07E2E0AE166F
:1014D000B104E1F416C0C630D1053CF40E94C20349
:1014E000F701EC0FFD1F80830AC06E01F6E0CF1AF2
:1014F000D108C00ED11E0E94C203F601808321963E
:1015000002C0C0E0D0E0CC30D1052CF3F3E0AF1640
:10151000B10451F482E08816910419F0C7010E94C9
:10152000E107C8010E948B07E2E07E1204C0C701F8
:101530000E946B00682E611008C09101A201B801E1
:10154000C7010E943F084C011AC0A801B201862DB4
:101550000E94B00290E08130910541F08230910507
:1015600049F46894882481F8912C07C088248394D6
:10157000912C03C088248394912C0E94EC06F1E006
:101580008F16910409F086CFDF91CF911F910F91B3
:10159000FF90EF90DF90CF90BF90AF909F908F9093
:1015A0007F906F905F904F903F902F900895DF92C3
:1015B000EF92FF920F931F93CF93DF93CDB7DEB7D8
:1015C00061970FB6F894DEBF0FBECDBF86E0E8E5A9
:1015D000F1E0DE01119601900D928A95E1F786E027
:1015E000E8E5F1E0DE01179601900D928A95E1F7AA
:1015F00085E0EEE5F1E0DE011D9601900D928A9501
:10160000E1F70E94C806CE010D960E945904CE0152
:101610000D960E94E4020E948C05D82E0E94A60519
:10162000BC017727CE0107967C018E010F5F1F4F0B
:101630009E01235F3F4F4D2D81E090E00E94300AD4
:1016400061960FB6F894DEBF0FBECDBFDF91CF918C
:101650001F910F91FF90EF90DF9008952FEF8EE98B
:1016600094E2215080409040E1F700C0000083E008
:101670000E9443048FE493E00E941A0480EC0E94CD
:1016800043048FE593E00E941A042FEF8DE399E461
:10169000215080409040E1F700C0000081E00E94AE
:1016A000430480E80E94430480E793E00E941A0408
:1016B00080EC0E94430481E893E00E941A0408959C
:1016C00081E00E94430480E80E94430482E993E0A1
:1016D0000E941A0480EC0E94430483EA93E00E9473
:1016E0001A042FEF8DE399E4215080409040E1F7F8
:1016F00000C00000089581E00E94430480E80E9439
:10170000430482EB93E00E941A0480EC0E9443049D
:1017100082EC93E00E941A040895CF93DF93EC01CA
:101720000E947B0B89E1888303C00E946F0388833A
:1017300098819B3011F09930C1F781E09B3009F41A
:1017400080E0DF91CF91089581E00E94430480E81A
:101750000E94430481ED93E00E941A0480EC0E94F1
:1017600043048BED93E00E941A042FEF8DE399E47C
:10177000215080409040E1F700C0000081E00E94CD
:10178000430480E80E94430488EE93E00E941A0418
:1017900080EC0E94430486EF93E00E941A040895AF
:1017A00081E00E94430480E80E94430481ED93E0BD
:1017B0000E941A0480EC0E9443048DEF93E00E9483
:1017C0001A042FEF8DE399E4215080409040E1F717
:1017D00000C0000081E00E94430480E80E944304AE
:1017E00088EE93E00E941A0480EC0E9443048AE091
:1017F00094E00E941A04089581E00E94430480E866
:101800000E94430481E194E00E941A0480EC0E944B
:1018100043048AE194E00E941A042FEF83ED90E3E1
:10182000215080409040E1F700C00000089581E021
:101830000E94430480E80E94430485E294E00E94F1
:101840001A0480EC0E94430484E394E00E941A048A
:101850002FEF83ED90E3215080409040E1F700C0EE
:1018600000000895CF93C82F81E00E94430480E8D0
:101870000E94430484E494E00E941A0480E38C0FE5
:101880000E94080480EC0E9443048EE494E00E94CD
:101890001A042FEF83ED90E3215080409040E1F750
:1018A00000C00000CF91089581E00E94430480E8C9
:1018B0000E9443048BE594E00E941A0480EC0E948D
:1018C000430483E694E00E941A042FEF83ED90E333
:1018D000215080409040E1F700C00000089581E071
:1018E0000E94430480E80E9443048EE694E00E9434
:1018F0001A0480EC0E94430485E794E00E941A04D5
:101900002FEF83ED90E3215080409040E1F700C03D
:101910000000089581E00E94430480E80E9443048F
:101920008EE794E00E941A0480EC0E94430487E84A
:1019300094E00E941A042FEF83ED90E32150804041
:101940009040E1F700C00000089581E00E94430448
:1019500080E80E94430486E994E00E941A0480EC27
:101960000E94430481EA94E00E941A042FEF83ED61
:1019700090E3215080409040E1F700C000000895BE
:1019800081E00E94430480E80E94430489EA94E0D5
:101990000E941A0480EC0E94430487EB94E00E94AA
:1019A0001A042FEF83ED90E3215080409040E1F73F
:1019B00000C000000895FC01808190E0FC01EC5B18
:1019C000FE4F2081213029F4FC01EC5BFE4F108298
:1019D00005C0FC01EC5BFE4F21E020830E94FC0B64
:1019E000089583E00E94430485EC94E00E941A0469
:1019F00080914401813029F48CEC94E00E941A0417
:101A000004C087ED94E00E941A0480EC0E94430415
:101A100082EE94E00E941A0480914501813029F4FD
:101A200089EE94E00E941A04089584EF94E00E94E5
:101A30001A040895E82FF0E0ED5BFE4F80810895D1
:101A4000AF92BF92CF92DF92EF92FF920F931F93CC
:101A5000CF93DF935C016B017A018FEF94E00E94DA
:101A60001A0486EC0E944304C0E0D0E0B6C0C23045
:101A7000D105B4F50E946F03893191F0893081F06E
:101A80008B3071F08A3009F48FEF11E3180F812F3A
:101A90000E940804F501EC0FF11D1083219620C06F
:101AA0008930D9F41C161D06C4F48E01C0FD05C092
:101AB000209719F0CC5FC06802C0CB5FC068C064DB
:101AC0008C2F0E94430486E095E00E941A048C2F1C
:101AD0000E944304E801219703C0893009F48CC0B7
:101AE0008E01CE01029782309105A8F5C230D10552
:101AF00021F4875F806C0E9443040E946F03893148
:101B0000A1F0893091F08B3081F08A3009F48FEFA9
:101B1000D1E3D80F8D2F0E940804C250F601EC0FBC
:101B2000F11DD083E801219616C08930A1F400FD93
:101B300003C0CB5FC06802C0CA5FC068C0648C2F9E
:101B40000E94430486E095E00E941A048C2F0E94B4
:101B50004304E8012197C430D105BCF1C430D1055C
:101B600029F48C2F885F806C0E9443040E946F03CD
:101B70008931A1F0893091F08B3081F08A3009F4FD
:101B80008FEF11E3180F0C2F0450812F0E940804CF
:101B9000F701E00FF11D1083219617C08930A9F4D9
:101BA0008E01C0FD03C0CA5FC06802C0C95FC068C3
:101BB000C0648C2F0E94430486E095E00E941A04C2
:101BC0008C2F0E944304E8012197C630D10529F4E7
:101BD0000E946F038B3009F42196C730D1050CF4B5
:101BE00046CF2FEF8EE994E2215080409040E1F7FC
:101BF00000C0000081E001C080E0DF91CF911F9123
:101C00000F91FF90EF90DF90CF90BF90AF9008952D
:101C1000AF92BF92CF92DF92EF92FF920F931F93FA
:101C2000CF93DF935C016B017A0188E095E00E941D
:101C30001A0486EC0E944304C0E0D0E0BAC0C2306F
:101C4000D105B4F50E946F03893191F0893081F09C
:101C50008B3071F08A3009F48FEF11E3180F812F68
:101C60000E940804F501EC0FF11D1083219620C09D
:101C70008930D9F41C161D06C4F48E01C0FD05C0C0
:101C8000209719F0CC5FC06802C0CB5FC068C06409
:101C90008C2F0E94430486E095E00E941A048C2F4A
:101CA0000E944304E801219703C0893009F490C0E1
:101CB0008E01CE01029782309105B8F5C230D10570
:101CC00021F4875F806C0E9443040E946F03893176
:101CD000A1F0893091F08B3081F08A3009F48FEFD8
:101CE000D1E3D80F8D2F0E940804C250F601EC0FEB
:101CF000F11DD083E801219618C08930B1F400FDB0
:101D000005C0209719F0CB5FC06802C0CA5FC068E9
:101D1000C0648C2F0E94430486E095E00E941A0460
:101D20008C2F0E944304E8012197C430D105CCF1E7
:101D3000C430D10529F48C2F885F806C0E94430445
:101D40000E946F038931A1F0893091F08B3081F0CE
:101D50008A3009F48FEF11E3180F812F0E940804D5
:101D60008C2F8450F701E80FF11D1083219619C0C4
:101D70008930B9F48E01C0FD05C0209719F0CA5F03
:101D8000C06802C0C95FC068C0648C2F0E94430451
:101D900086E095E00E941A048C2F0E944304E8011B
:101DA0002197C630D10529F40E946F038B3009F4C6
:101DB0002196C730D1050CF442CF2FEF8EE994E283
:101DC000215080409040E1F700C0000081E001C058
:101DD00080E0DF91CF911F910F91FF90EF90DF9006
:101DE000CF90BF90AF9008951092280610922706CA
:101DF0001092260681E08093C6058093C50586E192
:101E00008093C405EFE2F6E08FE28283858310863B
:101E10000895CF92DF92EF92FF920F931F93CF938B
:101E2000DF936B01EA01D801FC01408150E040538F
:101E300051098181440F742F770F770F470F742F4B
:101E4000780F7053F601808190E0C0979181880FE0
:101E5000582F550F550F850F582F590F5053888104
:101E600090E0C0979981880F482F440F440F840F4A
:101E7000482F490F40538C9190E0C09711969C9148
:101E8000880F682F660F660F860F890F60ED680F49
:101E9000F901808190E0C0979181880F282F220F4F
:101EA000220F820F890F20ED280FF701808190E02B
:101EB000C0979181880F382F330F330F830F890F0D
:101EC0008053443670F55D3070F5703270F57D31B9
:101ED00040F0523031F4942F937049F57D3149F53B
:101EE0000CC07F3151F4563031F118F4543029F4DC
:101EF00022C0593001F15B30F1F08C33F0F46C33D7
:101F0000F0F42831F0F47093C6055093C505409362
:101F1000C40520932806609327068093260681E057
:101F200011C080E00FC080E00DC080E00BC080E0F9
:101F300009C080E007C080E005C080E003C080E009
:101F400001C080E0DF91CF911F910F91FF90EF9042
:101F5000DF90CF9008955091C6053091C5056091EE
:101F6000C405462F20E026C091E0930F9D3030F04D
:101F700095EF930F4F5F443608F056C0963051F0FE
:101F800028F4923061F0943099F404C0993011F043
:101F90009B3071F45F3161F49F5F51E009C05D31A6
:101FA00038F0362F337011F45C5101C05B519F5FE4
:101FB0002F5F392F2817C0F2E9E2F6E08DEC589F29
:101FC000912D112496959695969520E3290F2083BF
:101FD000990F292F220F220F920F591B505D518309
:101FE000389F912D112496959695969520E3290F6B
:101FF0002283990F292F220F220F920F391B305D58
:102000003383489F812D112486958695869590E38C
:10201000980F9483880F982F990F990F890F481B59
:10202000405D458381E0089580E0089581E08093DC
:10203000C6058091C5058F5F8093C5058D3061F41D
:1020400081E08093C5058091C4058F5F8093C405AE
:10205000843611F41092C4050895809126068F5F8E
:10206000809326068C3339F4109226068091270639
:102070008F5F80932706809127068C3339F4109266
:102080002706809128068F5F809328068091280676
:10209000883141F5109228062091C6052F5F2093C4
:1020A000C605E091C5058E2F90E0FC013197EC301C
:1020B000F105A0F4E05CFF4F0C944318203291F43A
:1020C0000E94161008952D3121F48091C40583706B
:1020D00011F42E3139F40E94161008952F3111F4A5
:1020E0000E94161008952091C605EFE2F6E08DECEF
:1020F000289F912D112496959695969530E3390F4A
:102100003083990F392F330F330F930F291B205D25
:1021100021832091C505289F912D11249695969590
:10212000969530E3390F3383990F392F330F330FDF
:10213000930F291B205D24839091C405989F812DC6
:10214000112486958695869520E3280F2683880F8F
:10215000282F220F220F820F981B905D97830895DE
:102160000E9473100895CF93A0E0B0E017C02091B3
:10217000380530913905FC01EA0FFB1FC081F901D8
:10218000EE0FFF1FE20FF31FEE0FFF1FE056FA4F97
:10219000EA0FFB1F20ED2C0F20831196A630B1050E
:1021A00034F320E030E018C0809138059091390573
:1021B000FB01E20FF31FA081FC01EE0FFF1FEE0FEA
:1021C000FF1FE80FF91FEE57FA4FE20FF31F80EDE4
:1021D0008A0F80832F5F3F4F253031052CF320E09D
:1021E00030E01AC08091380590913905FA01E20F6C
:1021F000F31F6081FC01EE0FFF1FE80FF91FEE0FC8
:10220000FF1FEE0FFF1FE65CFA4FE20FF31F80ED9A
:10221000860F80832F5F3F4F2C3031051CF3809158
:10222000380590913905863091052CF401969093EC
:10223000390580933805CF910895AF92BF92CF9220
:10224000DF92EF92FF920F931F93CF93DF93CDB75F
:10225000DEB76D970FB6F894DEBF0FBECDBF86E038
:10226000E8E5F1E0DE01119601900D928A95E1F723
:1022700086E0E8E5F1E0DE01179601900D928A957F
:10228000E1F785E0EEE5F1E0DE011D9601900D92AB
:102290008A95E1F70E94DA06CE010D960E94590454
:1022A000CE010D960E94E4020E943707D82E0E94AC
:1022B0008C05C82E0E94A605BC017727AE01495F98
:1022C0005F4F7A018E010F5F1F4F9E01235F3F4FCB
:1022D0004C2D8D2D90E00E94300A498950E04053EA
:1022E000510924E6249FC001259F900D112448899F
:1022F00050E09A0120533109B901660F771FA901F7
:10230000440F551F440F551F440F551F9B01240FA9
:10231000351F280F391F8F8590E0C097820F931FBC
:1023200010ED1D0DE12EF12CB7010E942F185C015C
:10233000FB012E8530E020533109C901880F991F18
:10234000220F331F220F331F220F331F280F391F75
:102350008D8590E0C097820F931FB7010E942F18C0
:10236000A60EB71E54E6A516B1043CF0C50164E6FE
:1023700070E00E942F185C013196CF0164E670E096
:102380000E942F187C01605D6D872AE030E0CF014C
:10239000B9010E942F18CB01B9010E942F18805D4E
:1023A0008E87C701B9010E942F18805D8F87C501F4
:1023B000B9010E942F18605D688B805D898B81E078
:1023C0000E94AB0F20E030E00DC0F901E75DF94F4E
:1023D0009081E2E1F0E0EC0FFD1FE20FF31F90832C
:1023E0002F5F3F4F2630310584F31330C1F482E074
:1023F0000E94AB0F80E090E00EC0FC013696DC013D
:10240000A75DB94F2C9142E150E04C0F5D1FE40FE6
:10241000F51F20830196863091057CF302C089E088
:10242000888FAE014E5E5F4FBE01635F7F4FCE016E
:1024300007960E94B3106D960FB6F894DEBF0FBEDC
:10244000CDBFDF91CF911F910F91FF90EF90DF9063
:10245000CF90BF90AF9008958133910519F40E94F9
:10246000D70A08958233910519F40E941D11089529
:10247000C39711F40E94AE090895DC0120E030E01A
:102480000CC0FD01E20FF31F4081FB01E20FF31FBF
:102490009081491308C02F5F3F4F263031058CF3E0
:1024A00081E090E0089580E090E00895AC012FC0B5
:1024B0009A012F5F3F4FF901EE0FFF1FDF01A20FBF
:1024C000B31FAA0FBB1FA056BA4FA60FB71FAC91E0
:1024D000E20FF31FEE0FFF1FE056FA4FE60FF71F54
:1024E0001082FA01EE0FFF1FE40FF51FEE0FFF1F22
:1024F000E056FA4FE60FF71FA0836F5F7F4F02C0D1
:1025000060E070E0463051059CF24F5F5F4F609194
:102510003805709139054617570794F3AC0125C06B
:102520009A012F5F3F4FF901EE0FFF1FEE0FFF1FC4
:10253000E20FF31FEE57FA4FEA0FFB1F20811082C4
:10254000FA01EE0FFF1FEE0FFF1FE40FF51FEE570E
:10255000FA4FEA0FFB1F2083119602C0A0E0B0E003
:1025600045305105ECF24F5F5F4F46175707B4F304
:1025700034C09C012F5F3F4FF901EE0FFF1FDF01B9
:10258000A20FB31FAA0FBB1FAA0FBB1FA65CBA4F97
:10259000A40FB51FAC91E20FF31FEE0FFF1FEE0F5C
:1025A000FF1FE65CFA4FE40FF51F1082FC01EE0FEF
:1025B000FF1FE80FF91FEE0FFF1FEE0FFF1FE65C76
:1025C000FA4FE40FF51FA0834F5F5F4F02C040E05A
:1025D00050E08C3091056CF2019686179707BCF39A
:1025E0006150710970933905609338050895FC01B5
:1025F000EE0FFF1FE80FF91FEE0FFF1FEE0FFF1F7B
:10260000E65CFA4F28E020832681293011F40E94ED
:10261000561208950E94561208950F931F93CF9358
:10262000DF938C01C0E0D0E00FC0CE01880F991F6E
:102630008C0F9D1F880F991FB80180569A4F0E94DA
:102640003D12019751F021968091380590913905FE
:10265000C817D90754F3CFEFDFEFCF3F8FEFD8077D
:1026600041F1FE01EE0FFF1FEC0FFD1FEE0FFF1FEC
:10267000EE0FFF1FE65CFA4F8081883031F0CE010B
:102680000E94F71281E090E019C0FE01EE0FFF1FDB
:10269000EC0FFD1FEE0FFF1FEE0FFF1FE65CFA4F62
:1026A0008681893049F0CE010E940A1381E090E0D2
:1026B00005C080E090E002C081E090E0DF91CF9122
:1026C0001F910F91089580910001909101011816BA
:1026D000190614F481E0089580E00895CF93DF9304
:1026E00090E0A0910001B0910101A817B9070CF486
:1026F00063C0BC012FC09B012F5F3F4FF901EE0F5C
:10270000FF1FEF01C20FD31FCC0FDD1FC05EDE4FD6
:10271000C40FD51FC881E20FF31FEE0FFF1FE05E4D
:10272000FE4FE40FF51F1082FB01EE0FFF1FE60FB7
:10273000F71FEE0FFF1FE05EFE4FE40FF51FC08393
:102740004F5F5F4F02C040E050E0663071059CF281
:102750006F5F7F4F6A177B07B4F324C0FC0131968B
:10276000AF01440F551F440F551FE40FF51FEE5FD7
:10277000FE4FE20FF31F40811082FC01EE0FFF1F9E
:10278000EE0FFF1FE80FF91FEE5FFE4FE20FF31F82
:1027900040832F5F3F4F02C020E030E0853091053D
:1027A000ECF201968A179B07BCF31197B0930101D5
:1027B000A093000181E001C080E0DF91CF910895F6
:1027C0000F931F93CF93DF938C01C0E0D0E010C034
:1027D000F801EE0FFF1FE00FF11FEE0FFF1FE05E8D
:1027E000FE4FEC0FFD1F8081805D0E940804219642
:1027F000C630D1056CF386E095E00E941A04C0E073
:10280000D0E010C0F801EE0FFF1FEE0FFF1FE00F2A
:10281000F11FEE5FFE4FEC0FFD1F8081805D0E9477
:1028200008042196C530D1056CF381E195E00E9442
:102830001A0481E3800F0E940804DF91CF911F9159
:102840000F91089520910001309101011216130695
:102850000CF07AC0813021F5121613060CF50E9497
:10286000430480E80E94430480E090E00E94E0136B
:10287000809100019091010102973CF080EC0E9450
:10288000430481E090E00E94E0132FEF87EA91E695
:10289000215080409040E1F700C0000081E00895A1
:1028A000823041F5233031052CF12330310554F0CD
:1028B00081E00E94430480E80E94430482E090E0AB
:1028C0000E94E013809100019091010104973CF077
:1028D00080EC0E94430483E090E00E94E0132FEF1D
:1028E00087EA91E6215080409040E1F700C0000067
:1028F00081E00895833051F5243031054CF12530C5
:10290000310554F081E00E94430480E80E944304B2
:1029100084E090E00E94E013809100019091010119
:1029200006973CF080EC0E94430485E090E00E9412
:10293000E0132FEF87EA91E6215080409040E1F7C5
:1029400000C0000081E0089580E0089581E00895CE
:1029500081E00895CF92DF92EF92FF920F931F9341
:10296000CF93DF93CDB7DEB72C970FB6F894DEBFC9
:102970000FBECDBF6C01FC018081811135C00E946A
:10298000A40BAE01495F5F4FBE01675F7F4FCE0171
:102990000B960E94200D0E94D00BAE014F5F5F4F3F
:1029A000BE016D5F7F4FCE0105960E94080ECE01DD
:1029B00001967C018E010D5F1F4F9E012B5F3F4FE3
:1029C000AE01495F5F4FBE01675F7F4F0A960E946D
:1029D000090F882319F00E94FC0B02C00E94170CFB
:1029E00089E1F601808362C0813089F40E9463131B
:1029F000882351F081E00E94221482E00E94221478
:102A000083E00E94221452C00E94540C4FC08230B6
:102A100051F50E94600B0E94F10C89E1F601808360
:102A200004C00E946F03F6018083F6018081893122
:102A3000C1F3823020F4C6010E94DB0C10C083E099
:102A40000E94430484E195E00E941A04FFEF23ED05
:102A500080E3F15020408040E1F700C0000089E1B0
:102A6000F601808323C0833009F50E946313882315
:102A7000C1F00E94C00C89E1F601808304C00E946D
:102A80006F03F6018083F60180818931C1F30E94D2
:102A90006E13882319F00E94FC0B05C00E946F0C76
:102AA00002C00E94540C89E1F60180832C960FB677
:102AB000F894DEBF0FBECDBFDF91CF911F910F9174
:102AC000FF90EF90DF90CF9008950F931F93CF93D7
:102AD000DF938C010E948A0C0E94A50CC0E0D0E01C
:102AE00007C0F801EC0FFD1F80810E94BB032196F7
:102AF000CD30D105B4F30E94C2038F3421F40E947B
:102B0000C90581E001C080E0DF91CF911F910F9155
:102B10000895CF93DF93CDB7DEB763970FB6F894E0
:102B2000DEBF0FBECDBF20E030E01FC0FC01EE0FC6
:102B3000FF1FE80FF91FEE0FFF1FE056FA4FE20FDD
:102B4000F31F4081E1E0F0E0EC0FFD1FE20FF31F07
:102B50004083F901329667E070E06C0F7D1FE60F4D
:102B6000F71F405D40832F5F3F4F26303105F4F261
:102B700020E030E01AC0A901485F5F4FFC01EE0F72
:102B8000FF1FEE0FFF1FE80FF91FEE57FA4FE20F7E
:102B9000F31F6081E7E0F0E0EC0FFD1FE40FF51F8D
:102BA00040E3460F40832F5F3F4F253031051CF334
:102BB00081E48F8380E588878DE08B8BCE0107963B
:102BC0000E946515882331F0CE0101960E940D13F5
:102BD0000E94FC0B63960FB6F894DEBF0FBECDBF0C
:102BE000DF91CF9108950F931F93CF93DF9300D080
:102BF00000D000D0CDB7DEB70E94B01080E090E0EA
:102C000025C0FC01E15DF94F2081E1E0F0E0EC0F2F
:102C1000FD1FE80FF91F20532083FC01EE5CF94FE4
:102C20002081E3E0F0E0EC0FFD1FE80FF91F2053D7
:102C30002083FC01EB5CF94F2081E5E0F0E0EC0F34
:102C4000FD1FE80FF91F2053208301968230910564
:102C5000C4F28FEF9FEF00E010E0C6C0F801EE0F66
:102C6000FF1FE00FF11FEE0FFF1FEE0FFF1FE65CCF
:102C7000FA4F2081283009F450C0398123134DC008
:102C8000F801EE0FFF1FE00FF11FEE0FFF1FEE0F19
:102C9000FF1FE65CFA4F31812A8132133EC0F801F2
:102CA000EE0FFF1FE00FF11FEE0FFF1FEE0FFF1FD4
:102CB000E65CFA4F32812B8132132FC0F801EE0F00
:102CC000FF1FE00FF11FEE0FFF1FEE0FFF1FE65C6F
:102CD000FA4F33812C81321320C0F801EE0FFF1F11
:102CE000E00FF11FEE0FFF1FEE0FFF1FE65CFA4F24
:102CF00034812D81321311C0F801EE0FFF1FE00F58
:102D0000F11FEE0FFF1FEE0FFF1FE65CFA4F35813C
:102D10002E81321302C081E090E0F801EE0FFF1F18
:102D2000E00FF11FEE0FFF1FEE0FFF1FE65CFA4FE3
:102D30002681293009F450C0398123134DC0F80190
:102D4000EE0FFF1FE00FF11FEE0FFF1FEE0FFF1F33
:102D5000E65CFA4F37812A8132133EC0F801EE0F4C
:102D6000FF1FE00FF11FEE0FFF1FEE0FFF1FE65CCE
:102D7000FA4F30852B8132132FC0F801EE0FFF1F61
:102D8000E00FF11FEE0FFF1FEE0FFF1FE65CFA4F83
:102D900031852C81321320C0F801EE0FFF1FE00FA8
:102DA000F11FEE0FFF1FEE0FFF1FE65CFA4F32859B
:102DB0002D81321311C0F801EE0FFF1FE00FF11F3C
:102DC000EE0FFF1FEE0FFF1FE65CFA4F33852E81DB
:102DD000321302C081E090E0009721F00E94891533
:102DE0008FEF9FEF0F5F1F4F20913805309139050E
:102DF000021713070CF432CF26960FB6F894DEBFF5
:102E00000FBECDBFDF91CF911F910F9108951F92FB
:102E10000F920FB60F9211242F933F934F935F930E
:102E20006F937F938F939F93AF93BF93EF93FF9392
:102E30008091220690E00E94C90380932206883781
:102E400031F41092220698B180E1892788B98091E7
:102E500057018B3031F4909125069F5F90932506A2
:102E600002C010922506893031F4809124068F5FCC
:102E70008093240602C01092240680912506833098
:102E800061F480912306811108C08CE00E94430404
:102E90001092250681E080932306809124068430D9
:102EA00059F480912306813039F488E00E9443046C
:102EB00010922406109223060E942D10809128065D
:102EC0008C3021F0823111F08631A9F480912706EF
:102ED000811111C080912606833068F40E94F31599
:102EE0000E946313882321F088B1806288B903C0EF
:102EF00088B18F7D88B9FF91EF91BF91AF919F917C
:102F00008F917F916F915F914F913F912F910F9092
:102F10000FBE0F901F90189584E0809380008093DF
:102F20008100109285001092840084E294EF9093C7
:102F3000890080938800EFE6F0E0808182608083E2
:102F400078940895CF93DF93CDB7DEB72C970FB663
:102F5000F894DEBF0FBECDBF0E94F40E83E390E075
:102F60000E94B0030E94AF040E948C178CE00E9464
:102F700043040E94620586E0EFE6F1E0DE0111966F
:102F800001900D928A95E1F786E0E5E7F1E0DE0138
:102F9000179601900D928A95E1F7AE014F5F5F4F52
:102FA00063E275E0CB010E94F600AE01495F5F4F1E
:102FB0006AE275E081E395E00E94F60001E00023FB
:102FC00041F087E591E00E9435068093560100E0CC
:102FD0000CC087E591E00E948D0B811106C087E54A
:102FE00091E00E9435068093560189E18093570154
:102FF000109156011123E1F0812F0E941A0D8823B0
:10300000A1F083E00E9443040E94500504C00E9486
:103010006F03809357018091570190E0C1968433EC
:103020009105ACF70E942C1203C0812F0E94320C34
:10303000809156018111C3CF0E942E0B89E18093AC
:10304000570104C00E946F0380935701809157017C
:103050008931C1F387E591E00E94AA14B0CF97FBB4
:10306000072E16F4009407D077FD09D00E94491866
:1030700007FC05D03EF4909581959F4F089570957B
:1030800061957F4F0895EE0FFF1F0590F491E02D9D
:103090000994AA1BBB1B51E107C0AA1FBB1FA6179F
:1030A000B70710F0A61BB70B881F991F5A95A9F7F1
:0E30B00080959095BC01CD010895F894FFCF56
:1030BE0003000102050809010407050805060203BD
:1030CE0000000000000000000000000000000000F2
:1030DE000708090405050705030105090105090788
:1030EE0005030000000000000000000000000000CA
:1030FE00000000000101464646463031323331327F
:10310E003334323334350A193030303030302020F9
:10311E0020202000010203010203040203040538EB
:10312E0030303030303030323030302A005B315D6C
:10313E00204156205B325D204150005B335D2045BF
:10314E0073746F726E6F0020202020204D696350C3
:10315E00617900202020202020203A29004D65741E
:10316E006F646F2064652070676D743A005B315D2B
:10317E0020646562205B325D20637265640041707D
:10318E00726F782E2F496E73697261004F75206EC3
:10319E00726F2043617274616F004F702E207265E2
:1031AE00616C697A61646100636F6D20737563652C
:1031BE0073736F004F702E206E65676164610043FC
:1031CE006F6E746120636F6D2066616C6861005371
:1031DE00616C646F20696E7366632E0053656E6852
:1031EE006120636F6D2066616C686100496E736962
:1031FE00726120612053656E68610042656D2056D4
:10320E00696E646F0041646D696E69737472616496
:10321E006F72004F70657261646F722031004F7073
:10322E00657261646F7220320043617274616F2047
:10323E006573746F726E6F3A0056616C6F722065B3
:10324E0073746F726E6F3A005224200053656E686D
:10325E006120284F50293A0056616C6F7220286108
:10326E00207669737461293A0056616C6F7220285A
:10327E00746F74616C293A0056656E646120696ED4
:10328E007465726E61007265616C697A6164612049
:10329E000056656E64612063616E63656C61646186
:1032AE00004C696D697465206174696E6769646F3D
:1032BE0020004E722E2064652070617263656C6111
:1032CE00733A00496E7369726120612073656E688E
:1032DE00613A200043617274616F20286E756D65CE
:1032EE00726F293A2000416775617264616E646F76
:1032FE0020007365727669646F722E2E2E20005335
:10330E00656C6563696F6E65206F20717565007100
:10331E0075657220636F6E666967757261723A00C9
:10332E00312D4461746120322D5665722E50656EBA
:10333E0000332D4F70657220342D4465732E506509
:10334E006E0053656C6563696F6E65206F206F70DC
:10335E00657200702F206861622F64657368616208
:10336E003A00446573656A61206D7564617220640C
:10337E0065006D6F646F3F202A3A4E2020233A532A
:10338E0000666F726D61746F3A20002020202064F9
:10339E00642F6D6D2F797900696E7369726120618A
:1033AE00206E6F766100646174613A2000202020E7
:1033BE002068683A6D6D3A737300686F72613A20D7
:1033CE00004F7065726163616F00436F6E636C7561
:1033DE0069646121004461746120494E56414C4933
:1033EE00444121004461746120696E616C746572A0
:1033FE00616461004F70657261646F722000446594
:10340E00736162696C697461646F004E616F2068EC
:10341E0061200050656E64656E63696173004F5084
:10342E0043414F2000494E56414C49444100436FA1
:10343E006272616E646F0050616773204167656EE2
:10344E006461646F7300416775617264616E646F6D
:10345E000053697374656D6100496E666F726D65B8
:10346E00206F206E756D0064612070656E64656EF0
:10347E006369613A004F706572312000646573684C
:10348E00616220202D310068616220202020202DD5
:10349E0031004F706572322000646573686162207E
:1034AE00202D320068616220202020202D32002045
:1034BE00202F20202F20200020203A20203A2020CC
:1034CE0000202D004F7063616F20496E76616C692C
:1034DE0064610031323334353600313131313131BE
:0834EE000030303030303100B5
:00000001FF
