:100000000C9440000C945D000C945D000C945D0019
:100010000C945D000C945D000C945D000C945D00EC
:100020000C945D000C945D000C945D000C947501C3
:100030000C945D000C945D000C945D000C945D00CC
:100040000C945D000C945D000C945D000C945D00BC
:100050000C945D000C945D000C945D000C945D00AC
:100060000C945D000C945D009D00B5009F00A10004
:10007000A300A500A700A900AB00AD00AF00B10030
:1000800011241FBECFEFD8E0DEBFCDBF11E0A0E04E
:10009000B1E0E2EBF3E002C005900D92A430B107AD
:1000A000D9F721E0A4E0B1E001C01D92A530B2076C
:1000B000E1F70E94BD010C94D7010C94000087B1B8
:1000C000807F87B98AB18F788AB988B18F6088B903
:1000D00080E026C09AB120E130E0082E02C0220F55
:1000E000331F0A94E2F7292B2AB9E7ECF0E03197A5
:1000F000F1F700C0000090E010C026B130E0092EFA
:1001000002C0359527950A94E2F720FD05C0292FF6
:10011000220F920F890F08959F5F943070F38F5FC5
:100120008330C0F284E1089590E08C309105D8F4DA
:10013000FC01EC5CFF4F0C94D10181E0089583E059
:10014000089584E0089585E0089586E0089587E0A5
:10015000089588E0089589E008958AE008958BE085
:1001600008958CE0089584E1089582E0089595B1A2
:100170009F7795B995B19F7B95B995B19F7D95B9BD
:1001800095B19F7E95B988231CF495B1906895B977
:1001900086FF03C095B1906495B985FF03C095B102
:1001A000906295B984FF03C085B1806185B985B13E
:1001B000826085B985E08A95F1F7000085B18D7F71
:1001C00085B985E08A95F1F700000895CF93C82F8F
:1001D00085B1816085B985B18D7F85B98C2F0E94ED
:1001E000B7008C2F8295807F0E94B700CF91089531
:1001F0000F931F93CF93DF9300D0CDB7DEB78C0161
:100200001A82198210C0E981FA81E00FF11F808102
:100210000E94E60089819A8101969A83898385EDFF
:100220008A95F1F70000E981FA81E00FF11F8081E2
:100230008111E9CF0F900F90DF91CF911F910F9116
:100240000895CF93C82F85B18E7F85B985B18D7FF5
:1002500085B98C2F0E94B7008C2F8295807F0E94D9
:10026000B70085ED8A95F1F70000CF91089583EFEF
:1002700084B985B18E7F85B985B18D7F85B980E3DD
:100280000E94B7008FE39CE90197F1F700C00000DE
:1002900088E20E94B70095ED9A95F1F7000088E298
:1002A0000E94210188E00E94210181E00E94210139
:1002B00086E00E9421018CE00E942101089584E0E3
:1002C00080938000809381001092850010928400BA
:1002D00084E294EF9093890080938800EFE6F0E049
:1002E000808182608083789408951F920F920FB668
:1002F0000F9211242F933F934F935F936F937F93AC
:100300008F939F93AF93BF93EF93FF9382E091E01E
:100310000E94F800809101018C3031F48091040139
:100320008F5F8093040102C0109204018091040148
:10033000833091F480910001882331F088E00E949D
:1003400021011092000106C08CE00E94210181E091
:100350008093000110920401FF91EF91BF91AF9142
:100360009F918F917F916F915F914F913F912F91CD
:100370000F900FBE0F901F9018950E9437010E949A
:100380005F010E945F000E949400809301012FEFA3
:1003900080E792E0215080409040E1F700C00000EB
:1003A000F0CFEE0FFF1F0590F491E02D0994F89423
:0203B000FFCF7D
:0403B20001142E0004
:00000001FF
