:100000000C944C000C9469000C9469000C946900E9
:100010000C9469000C9469000C9469000C946900BC
:100020000C9469000C9469000C9469000C94BC0F4A
:100030000C9469000C9469000C9469000C9469009C
:100040000C9469000C9469000C9469000C9469008C
:100050000C9469000C9469000C9469000C9469007C
:100060000C9469000C9469009303AB039503970308
:1000700099039B039D039F03A103A303A503A70368
:10008000A70FAC0FA70FB70FA70FB70FA70FA70F9B
:10009000B70FA70FB70FA70F11241FBECFEFD8E0E0
:1000A000DEBFCDBF14E0A0E0B1E0E6E6F1E202C0C1
:1000B00005900D92A638B107D9F724E0A6E8B4E080
:1000C00001C01D92A73EB207E1F70E94F60F0C9403
:1000D000B1100C940000DC0160E022C0262F30E05B
:1000E000492F50E0F901EE0FFF1FE20FF31FEE0F53
:1000F000FF1FE753FB4F9A01E20FF31F4081FD0101
:10010000E20FF31F808148130AC0953019F481E093
:10011000860F08959F5F01C090E09630F8F26F5F00
:100120006530D0F380E00895E82FF0E0EB55FB4F09
:100130008081833011F481E0089580E00895DC012E
:1001400090E017C020918C0430E0492F50E0FD0171
:10015000E40FF51F6081F901EE0FFF1FEE0FFF1F87
:100160002E0F3F1F23573B4FF901E40FF51F60830C
:100170009F5F953038F30895DC0190E017C020911F
:100180008C0430E0492F50E0FD01E40FF51F608141
:10019000F901EE0FFF1F2E0F3F1F220F331F2753B2
:1001A0003B4FF901E40FF51F60839F5F963038F3F2
:1001B0000895DC0190E017C020918C0430E0492FB5
:1001C00050E0FD01E40FF51F6081F901EE0FFF1F04
:1001D0002E0F3F1F220F331F25553B4FF901E40F10
:1001E000F51F60839F5F963038F308950F931F9338
:1001F000CF93DF9320918C042530B8F4EB018C0170
:10020000CA010E949F00C8010E94BC00CE010E944A
:10021000D90080918C04E82FF0E0EA55FB4F108262
:100220008F5F80938C0481E001C080E0DF91CF91EB
:100230001F910F910895CF92DF92EF92FF920F934B
:100240001F93CF93DF938150E0E0F0E0C12CD12CDD
:1002500090E067C0923059F028F4992341F0913032
:1002600079F00BC0933061F0943021F006C041E08A
:1002700050E008C044E650E005C040E050E002C055
:100280004AE050E0923038F5A92FB0E024E030E0A9
:1002900089010A1B1B0B282F30E07901EE0CFF1C93
:1002A000EE0CFF1C2E0D3F1D23573B4F200F311F1F
:1002B000E9012881ED01C60FD71FC88130E02C1B52
:1002C0003109429FE001439FD00D529FD00D112470
:1002D000CC0EDD1E25C0C92FD0E024E030E089011E
:1002E0000C1B1D0B282F30E07901EE0CFF1CEE0CCF
:1002F000FF1C2E0D3F1D23573B4F200F311FD901EF
:100300002C91C60FD71FC88130E02C1B3109429FAA
:10031000E001439FD00D529FD00D1124EC0FFD1F23
:100320009F5F953008F496CFDD2024F43197B4E632
:10033000CB0ED11CC82FD0E02AE030E0C601B901B5
:100340000E948310AE01440F551F440F551FC40F68
:10035000D51FC357DB4F805D8C83605D6B83CF01FE
:1003600064E670E00E948310CF0144E6649F801928
:1003700091091124605D6883B9010E948310605D5A
:100380006983805D8A83DF91CF911F910F91FF90E8
:10039000EF90DF90CF900895815090E0FC01EE0F38
:1003A000FF1FEE0FFF1FE80FF91FE357FB4F3081D0
:1003B000FB012481231708F49AC032130FC0FC01FB
:1003C000EE0FFF1FEE0FFF1FE80FF91FE357FB4F64
:1003D0005181FB014381451708F48BC032131DC0C6
:1003E000FC01EE0FFF1FEE0FFF1FE80FF91FE35791
:1003F000FB4F5181FB01438154130FC0FC01EE0FF1
:10040000FF1FEE0FFF1FE80FF91FE357FB4F52814D
:10041000FB014281451708F46EC032132BC0FC016A
:10042000EE0FFF1FEE0FFF1FE80FF91FE357FB4F03
:100430005181FB01438154131DC0FC01EE0FFF1FCE
:10044000EE0FFF1FE80FF91FE357FB4F5281FB012F
:10045000428154130FC0FC01EE0FFF1FEE0FFF1F70
:10046000E80FF91FE357FB4F5381FB01418145170B
:1004700008F443C0321343C0FC01EE0FFF1FEE0F20
:10048000FF1FE80FF91FE357FB4F3181FB01238169
:10049000321337C0FC01EE0FFF1FEE0FFF1FE80FF6
:1004A000F91FE357FB4F3281FB01228132132BC02E
:1004B000FC01EE0FFF1FEE0FFF1FE80FF91FE357C0
:1004C000FB4F3381FB01218132131FC0FC01EE0F72
:1004D000FF1FEE0FFF1F8E0F9F1FFC01E357FB4F07
:1004E0009481FB018081981790F480E0089581E069
:1004F000089581E0089581E0089581E0089580E005
:10050000089580E0089580E0089580E0089581E0F6
:100510000895FB0190E01CC0492F50E0DF01A40FBB
:10052000B51F7C91282F30E021503109D901AA0F45
:10053000BB1F2A0F3B1F220F331F25553B4FD901ED
:10054000A40FB51F2C91721307C0953039F09F5F2F
:10055000963010F381E0089580E0089581E00895D9
:100560000F931F93CF93C82F8B01BA010E9489026A
:10057000882319F1B8018C2F0E949400882351F030
:10058000F801838182508383EC2FF0E0EB55FB4F21
:10059000108207C0EC2FF0E0EB55FB4F80818F5F9E
:1005A0008083B8018C2F0E94CC01882341F0B801D0
:1005B0008C2F0E941B0181E003C082E001C080E01B
:1005C000CF911F910F910895DC0114968C9114978F
:1005D0008033C9F013969C9113979032A1F4129630
:1005E0009C911297903279F411969C9111979032C8
:1005F00051F49C91903239F412968C93129780E2C8
:1006000014968C93149714968C9114978032E1F081
:1006100013969C9113979032B9F012962C911297E1
:10062000203291F411962C911197203269F42C917B
:10063000203251F412969C93129713968C93139731
:1006400080E214968C93149720E030E00CC0C9012E
:10065000FD01E20FF31F2081203211F420E32083FB
:100660009C012F5F3F4F253031058CF3089587B1F2
:10067000807F87B98AB18F788AB988B18F6088B94D
:1006800080E026C09AB120E130E0082E02C0220F9F
:10069000331F0A94E2F7292B2AB9E7ECF0E03197EF
:1006A000F1F700C0000090E010C026B130E0092E44
:1006B00002C0359527950A94E2F720FD05C0292F41
:1006C000220F920F890F08959F5F943070F38F5F10
:1006D0008330C0F289E108951F93CF93DF930E9486
:1006E0003703182FD0E00FC08FE79EE30197F1F793
:1006F00000C000000E943703C82F181302C0DF5F3C
:1007000001C0D0E01C2FDA3078F38C2FDF91CF912D
:100710001F91089590E08C309105D8F4FC01EC5CB9
:10072000FF4F0C94971081E0089583E0089584E0D2
:10073000089585E0089586E0089587E0089588E0AB
:10074000089589E008958AE008958BE008958CE08B
:10075000089589E1089582E008959093C5008093FB
:10076000C40088E18093C10089E08093C2000895AD
:100770009091C00095FFFCCF8093C60008950F9321
:100780001F93CF93DF9300E010E01DC0E801CC0F72
:10079000DD1FCC0FDD1FC00FD11FC357DB4F88817A
:1007A0000E94B80389810E94B8038A810E94B8031D
:1007B0008B810E94B8038C810E94B8038DE00E9457
:1007C000B8030F5F1F4F80918C0490E00817190742
:1007D000ECF2DF91CF911F910F9108958091C000AD
:1007E0008823E4F78091C600089595B19F7795B965
:1007F00095B19F7B95B995B19F7D95B995B19F7E38
:1008000095B988231CF495B1906895B986FF03C00B
:1008100095B1906495B985FF03C095B1906295B983
:1008200084FF03C085B1806185B985B1826085B9D7
:1008300085E08A95F1F7000085B18D7F85B985E067
:100840008A95F1F700000895CF93C82F85B1816094
:1008500085B985B18D7F85B98C2F0E94F5038C2FCA
:100860008295807F0E94F503CF9108950F931F9387
:10087000CF93DF9300D0CDB7DEB78C011A821982F7
:1008800010C0E981FA81E00FF11F80810E942404E9
:1008900089819A8101969A83898385ED8A95F1F7FA
:1008A0000000E981FA81E00FF11F80818111E9CF19
:1008B0000F900F90DF91CF911F910F910895CF93DB
:1008C000C82F85B18E7F85B985B18D7F85B98C2F75
:1008D0000E94F5038C2F8295807F0E94F50385EDA1
:1008E0008A95F1F70000CF910895EF92FF920F9350
:1008F0001F93CF93DF937C0100E010E00E946C0314
:100900008931E1F3C1E3C80FCA33E1F410161106CF
:10091000ACF7C2E0C00FC06C8C2F0E945F0482E66F
:1009200092E00E9436048C2F0E945F04E4E0F0E025
:10093000E01BF10B3196EE0DFF1D80E2808301502C
:100940001109DCCFCC3321F4F70185818033E1F448
:10095000053011059CF6CB3309F4C0E3E4E0F0E088
:10096000E01BF10BEE0DFF1DC083D3E0D00FD06C68
:100970008D2F0E945F048C2F0E9424048D2F0E94D3
:100980005F040F5F1F4FBACFDF91CF911F910F917F
:10099000FF90EF90089583EF84B985B18E7F85B97C
:1009A00085B18D7F85B980E30E94F5038FE39CE9D3
:1009B0000197F1F700C0000088E20E94F50395ED71
:1009C0009A95F1F7000088E20E945F0488E00E9497
:1009D0005F0481E00E945F0486E00E945F04089546
:1009E000EF92FF920F931F93CF93DF937C018B01C4
:1009F00081E020E030E012C0E901F701E20FF31FCF
:100A00004081F801E20FF31F9081491721F081E442
:100A10000E94240480E09E012F5F3F4F2630310565
:100A20005CF3DF91CF911F910F91FF90EF900895AC
:100A3000FF920F931F93CF93DF938C010E946C035F
:100A40000E948A03F801808380EC0E945F0480E0AA
:100A5000C0E0D0E038C00E946C03F8018083893187
:100A600099F08B3089F0893079F0C630D10564F483
:100A700091E0980FFE01EE5FFE4F90838F5C0E9425
:100A80002404219680E01FC08930C1F41C161D0685
:100A900074F48C2F8150806CF82E0E945F0482E6E3
:100AA00092E00E9436048F2D0E945F04219786E415
:100AB000FE01EE5FFE4F808380E005C08B3011F0B9
:100AC00080E001C081E0882331F2209721F289E1A2
:100AD000F8018083DF91CF911F910F91FF900895CE
:100AE000EF92FF920F931F93CF93DF937C0181E0EE
:100AF0000E945F0482E00E945F0485E491E00E940E
:100B000036040FEF10E01EC0C7010E941805C0E0B8
:100B1000D0E015C011110EC0BE01660F771F6C0F1B
:100B20007D1F660F771F685F7E4F82E091E00E9415
:100B3000F004182F112311F00C2F04C02196C3309C
:100B4000D10544F3112301F381E00E945F0480E8A2
:100B50000E945F0484E591E00E94360480EC0E94CC
:100B60005F04011105C08EE591E00E9436040DC0BE
:100B7000013029F48CE691E00E94360406C0023070
:100B800021F487E791E00E943604802FDF91CF9116
:100B90001F910F91FF90EF90089581E00E945F04F4
:100BA00080E80E945F0482E891E00E94360480ECB5
:100BB0000E945F0480E991E00E94360408958CE968
:100BC00091E00E94360480EC0E945F0488EA91E084
:100BD0000E9436042FEF83ED90E321508040904037
:100BE000E1F700C0000083E00E945F04089581E007
:100BF0000E945F0480E80E945F0482EB91E00E9403
:100C0000360480EC0E945F0482EC91E00E9436047E
:100C100008950E94F7050E946C038931E1F38F5F0C
:100C2000089581E00E945F0480E80E945F0483EDE4
:100C300091E00E94360480EC0E945F0481EE91E016
:100C40000E9436040895CF930E941106C9E115C091
:100C50000E946C03C82F8091C000882374F40E9406
:100C6000EE03833451F40E94EE038D3419F087357E
:100C700049F003C081E090E007C0C93149F383E047
:100C800090E002C082E090E0CF91089581E00E9460
:100C90005F0480E80E945F048FEE91E00E943604BA
:100CA00080EC0E945F048DEF91E00E9436042FEFEC
:100CB0008FE493EC215080409040E1F700C00000A9
:100CC000089581E00E945F0480E80E945F0489E04B
:100CD00092E00E94360480EC0E945F0484E192E07E
:100CE0000E9436042FEF8BE792E92150804090401C
:100CF000E1F700C00000089581E00E945F0480E8F1
:100D00000E945F0489E092E00E94360480EC0E9419
:100D10005F0484E292E00E9436042FEF8BE792E9B1
:100D2000215080409040E1F700C00000089581E02C
:100D30000E945F0480E80E945F0489E092E00E94C4
:100D4000360480EC0E945F0481E392E00E94360446
:100D50002FEF8BE792E9215080409040E1F700C0EF
:100D60000000089581E00E945F0480E80E945F0413
:100D700081E492E00E94360480EC0E945F040895B2
:100D800081E00E945F0480E80E945F0481E592E0B8
:100D90000E94360480EC0E945F0480E692E00E948C
:100DA0003604089581E00E945F0480E80E945F0499
:100DB00084E692E00E94360480EC0E945F0408956D
:100DC00081E00E945F0480E80E945F0480E792E077
:100DD0000E94360480EC0E945F0480E692E00E944C
:100DE0003604089581E00E945F0480E80E945F0459
:100DF00081E892E00E94360480EC0E945F0480E665
:100E000092E00E9436040895CF93DF93EC0181E0D5
:100E10000E945F0480E80E945F04C130D105A9F4FC
:100E200080E992E00E94360480EC0E945F048EE923
:100E300092E00E9436042FEF87EA91E6215080402D
:100E40009040E1F700C0000019C0CD2BA9F489EA59
:100E500092E00E94360480EC0E945F0489EB92E0ED
:100E60000E9436042FEF87EA91E62150804090409F
:100E7000E1F700C0000002C00E949706DF91CF9109
:100E8000089581E00E945F0480E80E945F048AEC7C
:100E900092E00E94360480EC0E945F0408950F9354
:100EA0001F93CF93DF930E944107C0E0D0E011E38E
:100EB0000E946C038931E1F38F5C8A3399F41C162C
:100EC0001D06B4F71C2F1150106C812F0E945F0477
:100ED00082E692E00E943604812F0E945F042197EF
:100EE00011E3E6CF8C3311F41133C9F41C161D063F
:100EF000FCF28433E8F68233D8F28B3311F0182FEA
:100F000001C010E30C2F006C802F0E945F04812F22
:100F10000E942404802F0E945F042196C9CF812F54
:100F2000DF91CF911F910F91089581E00E945F049E
:100F300080E80E945F048BED92E00E94360480EC12
:100F40000E945F040895EF92FF921F93CF93DF9367
:100F50007C010E949507C0E0D0E00E946C038931BB
:100F6000E1F38F5C8A33B9F41C161D06B4F71C2F0D
:100F70001150106C812F0E945F0482E692E00E9463
:100F80003604812F0E945F042197F701EC0FFD1FAB
:100F900080E38083E2CF8C33C1F0C630D105ECF61C
:100FA0008B3309F480E3F701EC0FFD1F80831C2FC6
:100FB000106C812F0E945F048CEE92E00E94360438
:100FC000812F0E945F042196C8CFDF91CF911F919E
:100FD000FF90EF90089581E00E945F0480E80E94F6
:100FE0005F048EEE92E00E94360480EC0E945F0463
:100FF0000895EF92FF920F931F93CF93DF937C019D
:101000000E94EB0700E010E00E946C038931E1F3DD
:10101000C1E3C80FCA33C1F410161106ACF7CFEF05
:10102000C00FC06C8C2F0E945F0482E692E00E9489
:1010300036048C2F0E945F0401501109F701E00F64
:10104000F11F80E38083E0CFCC33C1F0063011057F
:10105000DCF6CB3309F4C0E3F701E00FF11FC083E6
:10106000D02FD06C8D2F0E945F048C2F0E942404FF
:101070008D2F0E945F040F5F1F4FC6CFDF91CF916E
:101080001F910F91FF90EF90089581E00E945F04FF
:1010900080E80E945F0480E093E00E94360480ECC8
:1010A0000E945F048CE093E00E9436040895EF9262
:1010B000FF920F931F93CF93DF93CDB7DEB7659762
:1010C0000FB6F894DEBF0FBECDBF2130310509F059
:1010D00043C026E529832A8322E030E034C028304B
:1010E000310564F4FC01E20FF31F3297A081E1E0C7
:1010F000F0E0EC0FFD1FE20FF31FA083D901F9010F
:101100003897E630F10550F4E60FF71F1081E1E063
:10111000F0E0EC0FFD1FE20FF31F10832E303105BE
:101120007CF0E2E1F0E0E21BF30BE40FF51FF0804E
:1011300001E010E00C0F1D1F200F311FF901F0829C
:101140009D012F5F3F4F233131054CF20F2EF3E10C
:10115000EF2EF12CF02D80C02115310581F525E40D
:10116000298326E52A8322E030E020C0283031059B
:101170006CF4FC01E20FF31F32976081E1E0F0E0D4
:10118000EC0FFD1FE20FF31F60830EC0ECE0F0E0F8
:10119000E21BF30BE40FF51F6081E1E0F0E0EC0FE0
:1011A000FD1FE20FF31F60832F5F3F4F2D3031058E
:1011B000ECF20F2EFDE0EF2EF12CF02D4DC0E6E508
:1011C000E983E0E5EA83E2E0F0E03DC0E830F105E4
:1011D00064F4DC01AE0FBF1F12971C91A1E0B0E0D8
:1011E000AC0FBD1FAE0FBF1F1C938F01DF011897FF
:1011F000A630B10550F4A60FB71FFC90A1E0B0E0F7
:10120000AC0FBD1FAE0FBF1FFC92EE30F10539F4DD
:10121000A1E0B0E0AC0FBD1FAE0FBF1F2C93EF30AD
:10122000F1057CF0A3E1B0E0AE1BBF0BA40FB51F2E
:10123000AC91EE24E394F12CEC0EFD1EEE0DFF1D9F
:10124000A083F8013196E431F1050CF4BFCF0F2EE5
:10125000F4E1EF2EF12CF02D00E010E00BC0E1E006
:10126000F0E0EC0FFD1FE00FF11F80810E94B8033A
:101270000F5F1F4F0E151F0594F38DE00E94B803FA
:101280000E9445080E94EE038F3429F0833569F0EF
:101290008334C1F705C00E94460681E090E015C086
:1012A0000E94610681E090E010C00E94EE03863447
:1012B00019F0893431F0E6CF0E94970682E090E081
:1012C00004C00E947C0681E090E065960FB6F89419
:1012D000DEBF0FBECDBFDF91CF911F910F91FF9069
:1012E000EF900895AF92BF92CF92DF92EF92FF926C
:1012F0000F931F93CF93DF936C015B018A0180E012
:1013000090E036C021E0C216D10489F4029751F46E
:101310000EC07801EC0EFD1E0E94EE03F7018083E3
:10132000219602C0C0E0D0E0C630D10594F3F2E0CF
:10133000CF16D10479F409C07801EC0EFD1E0E948D
:10134000EE03F7018083219602C0C0E0D0E0C630F2
:10135000D10594F3F3E0CF16D10419F4C8010E942B
:10136000F90720E030E0A501B801C8010E94570844
:101370008130910539F6DF91CF911F910F91FF9048
:10138000EF90DF90CF90BF90AF9008950F931F9391
:10139000CF93DF93CDB7DEB7A3970FB6F894DEBF38
:1013A0000FBECDBF86E0ECE1F1E0DE0111960190C9
:1013B0000D928A95E1F786E0ECE1F1E0DE01179607
:1013C00001900D928A95E1F785E0E2E2F1E0DE011D
:1013D0001D9601900D928A95E1F782E1E7E2F1E036
:1013E000DE01529601900D928A95E1F70E94D20695
:1013F000CE0101960E94A30780E090E000E010E09B
:1014000016C0009791F4B801660F771F600F711F27
:10141000660F771F82E190E08C0F9D1F680F791F88
:10142000CE0101960E94F00490E00F5F1F4F033041
:1014300011053CF3892BC1F00E94C006CE010D9628
:101440000E947504CE010D960E94E4020E94B2062D
:101450000E942306AE01495F5F4FBE01635F7F4F6D
:1014600090E00E94720902C00E9497069FEF23E25B
:1014700084EF915020408040E1F700C00000A39627
:101480000FB6F894DEBF0FBECDBFDF91CF911F9195
:101490000F9108952F923F924F925F926F927F9299
:1014A0008F929F92AF92BF92CF92DF92EF92FF9274
:1014B0000F931F93CF93DF931C015B01742E2901BF
:1014C000612C812C912C78C081E0A816B104C1F464
:1014D000E2E08E16910459F410C0E701CC0DDD1D39
:1014E0000E94EE038883FFEFCF1ADF0A02C0C12CEF
:1014F000D12C86E0C816D10484F3C8010E94A3074A
:10150000E2E0AE16B104E1F416C0C630D1053CF4F9
:101510000E94EE03F701EC0FFD1F80830AC06E01ED
:10152000F6E0CF1AD108C00ED11E0E94EE03F601DC
:101530008083219602C0C0E0D0E0CC30D1052CF3EE
:10154000F3E0AF16B10451F482E08816910419F06B
:10155000C7010E94F907C8010E94A307E2E07E12BA
:1015600004C0C7010E946B00682E611008C0910181
:10157000A201B801C7010E9457084C011DC0A80173
:10158000B201862D0E94B00290E08130910541F0B9
:101590008230910549F46894882481F8912C07C021
:1015A00088248394912C03C088248394912C0E94D6
:1015B0000407862D0E94BF03F1E08F16910409F005
:1015C00083CFDF91CF911F910F91FF90EF90DF902C
:1015D000CF90BF90AF909F908F907F906F905F90D3
:1015E0004F903F902F900895CF92DF92EF92FF920D
:1015F0000F931F93CF93DF93CDB7DEB761970FB6ED
:10160000F894DEBF0FBECDBF86E0ECE1F1E0DE0175
:10161000119601900D928A95E1F786E0ECE1F1E0F8
:10162000DE01179601900D928A95E1F785E0E2E2DE
:10163000F1E0DE011D9601900D928A95E1F70E947E
:10164000F206CE010D960E947504CE010D960E9401
:10165000E4020E944F07D82E0E940906C82E0E945D
:101660002306BC017727CE0107967C018E010F5F10
:101670001F4F9E01235F3F4F4C2D8D2D90E00E9408
:101680004A0A61960FB6F894DEBF0FBECDBFDF9158
:10169000CF911F910F91FF90EF90DF90CF90089521
:1016A000DF92EF92FF920F931F93CF93DF93CDB70B
:1016B000DEB761970FB6F894DEBF0FBECDBF86E0F0
:1016C000ECE1F1E0DE01119601900D928A95E1F7CF
:1016D00086E0ECE1F1E0DE01179601900D928A952B
:1016E000E1F785E0E2E2F1E0DE011D9601900D9266
:1016F0008A95E1F70E94E006CE010D960E947504DE
:10170000CE010D960E94E4020E940906D82E0E9486
:101710002306BC017727CE0107967C018E010F5F5F
:101720001F4F9E01235F3F4F4D2D81E090E00E94AF
:101730004A0A61960FB6F894DEBF0FBECDBFDF91A7
:10174000CF911F910F91FF90EF90DF90089581331B
:10175000910519F40E94500B08958233910519F4F4
:101760000E94F40A0895C39711F40E94C6090895CF
:101770002FEF8EE994E2215080409040E1F700C0C5
:10178000000083E00E945F0489E193E00E94360438
:1017900080EC0E945F0489E293E00E9436042FEF00
:1017A0008DE399E4215080409040E1F700C00000B3
:1017B00081E00E945F0480E80E945F048AE393E076
:1017C0000E94360480EC0E945F048BE493E00E9448
:1017D0003604089581E00E945F0480E80E945F045F
:1017E0008CE593E00E94360480EC0E945F048DE655
:1017F00093E00E9436042FEF8DE399E4215080405E
:101800009040E1F700C00000089581E00E945F046D
:1018100080E80E945F048CE793E00E94360480EC2D
:101820000E945F048CE893E00E9436040895CF93F1
:10183000DF93EC010E94050C89E1888303C00E94BC
:101840006C03888398819B3011F09930C1F781E057
:101850009B3009F480E0DF91CF91089581E00E94F0
:101860005F0480E80E945F048BE993E00E943604E5
:1018700080EC0E945F0485EA93E00E9436042FEF1B
:101880008DE399E4215080409040E1F700C00000D2
:1018900081E00E945F0480E80E945F0482EB93E095
:1018A0000E94360480EC0E945F0480EC93E00E946A
:1018B0003604089581E00E945F0480E80E945F047E
:1018C0008BE993E00E94360480EC0E945F0487EC71
:1018D00093E00E9436042FEF8DE399E4215080407D
:1018E0009040E1F700C0000081E00E945F0480E8C2
:1018F0000E945F0482EB93E00E94360480EC0E9419
:101900005F0484ED93E00E943604089581E00E9414
:101910005F0480E80E945F048BED93E00E94360430
:1019200080EC0E945F0484EE93E00E9436042FEF67
:1019300083ED90E3215080409040E1F700C000002B
:10194000089581E00E945F0480E80E945F048FEEAA
:1019500093E00E94360480EC0E945F048EEF93E0D7
:101960000E9436042FEF83ED90E321508040904099
:10197000E1F700C000000895CF93C82F81E00E94D6
:101980005F0480E80E945F048EE094E00E943604C9
:1019900080E38C0F0E94240480EC0E945F0488E1A5
:1019A00094E00E9436042FEF83ED90E321508040B5
:1019B0009040E1F700C00000CF910895FC018081C4
:1019C00090E0FC01E050FF4F2081213029F4FC0120
:1019D000E050FF4F108205C0FC01E050FF4F21E0B6
:1019E00020830E94860C089583E00E945F0485E2B4
:1019F00094E00E94360480910001813029F48CE249
:101A000094E00E94360404C087E394E00E94360408
:101A100080EC0E945F0482E494E00E94360480918E
:101A20000101813029F489E494E00E94360408958C
:101A300084E594E00E9436040895E82FF0E0E15038
:101A4000FF4F80810895AF92BF92CF92DF92EF92C5
:101A5000FF920F931F93CF935C016B018A01E12CDE
:101A6000F12C17C00E946C03893199F0893089F0FC
:101A70008B3079F08A3009F48FEFC1E3C80F8C2FD7
:101A80000E942404F501EE0DFF1DC0832FEFE21A22
:101A9000F20A82E0E816F1042CF38FE594E00E944C
:101AA0003604E12CF12C17C00E946C03893199F0A7
:101AB000893089F08B3079F08A3009F48FEFC1E3F7
:101AC000C80F8C2F0E942404F601EE0DFF1DC08369
:101AD0009FEFE91AF90A22E0E216F1042CF38FE5F0
:101AE00094E00E943604E12CF12C17C00E946C0394
:101AF000893199F0893089F08B3079F08A3009F496
:101B00008FEFC1E3C80F8C2F0E942404F801EE0D63
:101B1000FF1DC0838FEFE81AF80A92E0E916F1047E
:101B20002CF32FEF8EE994E2215080409040E1F7B2
:101B300000C00000CF911F910F91FF90EF90DF90B8
:101B4000CF90BF90AF900895AF92BF92CF92DF92A7
:101B5000EF92FF920F931F93CF935C016B018A0169
:101B6000E12CF12C17C00E946C03893199F0893067
:101B700089F08B3079F08A3009F48FEFC1E3C80F18
:101B80008C2F0E942404F501EE0DFF1DC0832FEF62
:101B9000E21AF20A82E0E816F1042CF38EE692E0F3
:101BA0000E943604E12CF12C17C00E946C0389318D
:101BB00099F0893089F08B3079F08A3009F48FEF11
:101BC000C1E3C80F8C2F0E942404F601EE0DFF1D07
:101BD000C0839FEFE91AF90A22E0E216F1042CF320
:101BE0008EE692E00E943604E12CF12C17C00E9490
:101BF0006C03893199F0893089F08B3079F08A3023
:101C000009F48FEFC1E3C80F8C2F0E942404F80160
:101C1000EE0DFF1DC0838FEFE81AF80A92E0E91677
:101C2000F1042CF32FEF8EE994E221508040904094
:101C3000E1F700C00000CF911F910F91FF90EF904E
:101C4000DF90CF90BF90AF90089510928B041092C8
:101C50008A041092890481E0809388048093870429
:101C600086E1809386040895CF92DF92EF92FF92EF
:101C70000F931F93CF93DF936B01EA01D801FC010F
:101C8000408150E0405351098181440F742F770FF8
:101C9000770F470F742F780F7053F601808190E013
:101CA000C0979181880F582F550F550F850F582FCA
:101CB000590F5053888190E0C0979981880F482F21
:101CC000440F440F840F482F490F40538C9190E0EC
:101CD000C09711969C91880F682F660F660F860F2C
:101CE000890F60ED680FF901808190E0C0979181C4
:101CF000880F282F220F220F820F890F20ED280F27
:101D0000F701808190E0C0979181880F382F330FC1
:101D1000330F830F890F8053443670F55D3070F5B3
:101D2000703270F57D3140F0523031F4942F937061
:101D300049F57D3149F50CC07F3151F4563031F110
:101D400018F4543029F422C0593001F15B30F1F01D
:101D50008C33F0F46C33F0F42831F0F47093880491
:101D6000509387044093860420938B0460938A04E5
:101D70008093890481E011C080E00FC080E00DC035
:101D800080E00BC080E009C080E007C080E005C0B3
:101D900080E003C080E001C080E0DF91CF911F911F
:101DA0000F91FF90EF90DF90CF900895CF92DF9248
:101DB000EF92FF920F931F93CF93DF93CDB7DEB7D0
:101DC0002C970FB6F894DEBF0FBECDBF6C01FC019F
:101DD0008081811135C00E942E0CAE01495F5F4F9A
:101DE000BE01675F7F4FCE010B960E94230D0E94BC
:101DF0005A0CAE014F5F5F4FBE016D5F7F4FCE014A
:101E000005960E94A40DCE0101967C018E010D5F06
:101E10001F4F9E012B5F3F4FAE01495F5F4FBE01D9
:101E2000675F7F4F0A960E94340E882319F00E9444
:101E3000860C02C00E94A10C89E1F60180832DC0AE
:101E4000813059F1823049F50E94EA0B0E94F40C6E
:101E500089E1F601808304C00E946C03F60180834F
:101E6000F60180818931C1F3823020F4C6010E94DD
:101E7000DE0C10C083E00E945F0481E694E00E94C3
:101E80003604FFEF23ED80E3F15020408040E1F77E
:101E900000C0000089E1F601808389E1F6018083BA
:101EA0002C960FB6F894DEBF0FBECDBFDF91CF9159
:101EB0001F910F91FF90EF90DF90CF90089581E0F8
:101EC00080938804809187048F5F809387048D308E
:101ED00061F481E080938704809186048F5F809312
:101EE0008604843611F41092860408958091890442
:101EF0008F5F809389048C3339F410928904809128
:101F00008A048F5F80938A0480918A048C3339F429
:101F100010928A0480918B048F5F80938B04809150
:101F20008B04883141F510928B04209188042F5F37
:101F300020938804E09187048E2F90E0FC01319774
:101F4000EC30F105A0F4E05CFF4F0C9497102032C8
:101F500091F40E945F0F08952D3121F48091860441
:101F6000837011F42E3139F40E945F0F08952F31E0
:101F700011F40E945F0F08951F920F920FB60F92F7
:101F800011242F933F934F935F936F937F938F937E
:101F90009F93AF93BF93EF93FF930E94760FFF91B0
:101FA000EF91BF91AF919F918F917F916F915F91D1
:101FB0004F913F912F910F900FBE0F901F9018954A
:101FC00084E08093800080938100109285001092BD
:101FD000840084E294EF9093890080938800EFE678
:101FE000F0E080818260808378940895CF93DF93BE
:101FF000CDB7DEB72C970FB6F894DEBF0FBECDBFBE
:102000000E94250E83E390E00E94AD030E94CB0462
:102010000E94E00F8CE00E945F040E94DF0586E0D2
:10202000E9E3F1E0DE01119601900D928A95E1F766
:1020300086E0EFE3F1E0DE01179601900D928A95BC
:10204000E1F7AE014F5F5F4F60E774E0CB010E94A4
:10205000F600AE01495F5F4F67E774E08EE794E0FA
:102060000E94F60001E0002341F08BE191E00E9424
:10207000700580931A0100E00CC08BE191E00E9492
:10208000170C811106C08BE191E00E9470058093CE
:102090001A0189E180931B0110911A011123E1F0CB
:1020A000812F0E941D0D8823A1F083E00E945F0410
:1020B0000E94CD0504C00E946C0380931B01809197
:1020C0001B0190E0C19684339105ACF70E94A70BE9
:1020D00003C0812F0E94BC0C80911A018111C3CFD3
:1020E0000E94B80B89E180931B0104C00E946C031D
:1020F00080931B0180911B018931C1F38BE191E039
:102100000E94D60EB0CF97FB072E16F4009407D08E
:1021100077FD09D00E949D1007FC05D03EF49095F4
:1021200081959F4F0895709561957F4F0895EE0FAB
:10213000FF1F0590F491E02D0994AA1BBB1B51E1F0
:1021400007C0AA1FBB1FA617B70710F0A61BB70B27
:10215000881F991F5A95A9F780959095BC01CD01CC
:062160000895F894FFCF82
:1021660001014646464646460101010101010202B9
:10217600020202020303030303030A19303030305C
:10218600303020202020203131313131313232328D
:102196003232323333333333333830303030303019
:1021A6003032303030496E73697261206120536578
:1021B6006E68610042656D2056696E646F00416409
:1021C6006D696E6973747261646F72004F706572C7
:1021D60061646F722031004F70657261646F7220A6
:1021E60032005B315D204156205B325D204150005C
:1021F6005B335D204573746F726E6F002020202064
:10220600204D696350617900202020202020203A4B
:1022160029004D65746F646F2064652070676D7466
:102226003A005B315D20646562205B325D2063723B
:102236006564004170726F782E2F496E7369726102
:10224600004F75206E726F2043617274616F004F8C
:10225600702E207265616C697A61646100636F6DCE
:10226600207375636573736F004F702E206E6567FC
:1022760061646100436F6E746120636F6D206661F7
:102286006C68610053616C646F20696E7366632EBF
:102296000053656E686120636F6D2066616C6861CE
:1022A6000043617274616F206573746F726E6F3A6A
:1022B6000056616C6F72206573746F726E6F3A00B0
:1022C6005224200053656E686120284F50293A0039
:1022D60056616C6F72202861207669737461293AA1
:1022E6000056616C6F722028746F74616C293A0015
:1022F60056656E646120696E7465726E6100726502
:10230600616C697A616461200056656E6461206360
:10231600616E63656C616461004C696D697465200A
:102326006174696E6769646F20004E722E20646561
:102336002070617263656C61733A00496E736972ED
:102346006120612073656E68613A20002A0043614E
:102356007274616F20286E756D65726F293A200060
:10236600416775617264616E646F20007365727691
:1023760069646F722E2E2E200053656C6563696F3B
:102386006E65206F20717565007175657220636FCB
:102396006E666967757261723A00312D44617461C7
:1023A60020322D5665722E50656E00332D4F7065A6
:1023B6007220342D4465732E50656E0053656C652E
:1023C60063696F6E65206F206F70657200702F20D5
:1023D6006861622F6465736861623A00446573657B
:1023E6006A61206D75646172206465006D6F646F4B
:1023F6003F202A3A4E2020233A5300666F726D61C1
:10240600746F3A20002020202064642F6D6D2F7990
:102416007900696E736972612061206E6F76610062
:10242600646174613A20002020202068682F6D6D59
:102436002F737300686F72613A20004F7065726186
:1024460063616F00436F6E636C756964612100445C
:1024560061746120494E56414C4944412100446112
:10246600746120696E616C746572616461004F709D
:10247600657261646F7220004465736162696C699C
:102486007461646F004F7065723120006465736813
:10249600616220202D310068616220202020202DDD
:1024A60031004F7065723220006465736861622086
:1024B600202D320068616220202020202D32002F3E
:1024C600004F7063616F20496E76616C69646100CC
:1024D600313233343536003131313131310030303B
:0624E6003030303100002F
:00000001FF
