:100000000C9440000C945D000C945D000C945D0019
:100010000C945D000C945D000C945D000C945D00EC
:100020000C945D000C945D000C945D000C94970999
:100030000C945D000C945D000C945D000C945D00CC
:100040000C945D000C945D000C945D000C945D00BC
:100050000C945D000C945D000C945D000C945D00AC
:100060000C945D000C945D00BB00D300BD00BF008C
:10007000C100C300C500C700C900CB00CD00CF0040
:1000800011241FBECFEFD8E0DEBFCDBF13E0A0E04C
:10009000B1E0E8EAF4E102C005900D92A23BB1079D
:1000A000D9F723E0A2EBB3E001C01D92A43BB20755
:1000B000E1F70E94F7090C94520A0C94000087B1F2
:1000C000807F87B98AB18F788AB988B18F6088B903
:1000D00080E026C09AB120E130E0082E02C0220F55
:1000E000331F0A94E2F7292B2AB9E7ECF0E03197A5
:1000F000F1F700C0000090E010C026B130E0092EFA
:1001000002C0359527950A94E2F720FD05C0292FF6
:10011000220F920F890F08959F5F943070F38F5FC5
:100120008330C0F289E108951F93CF93DF930E943B
:100130005F00182FD0E00FC08FE79EE30197F1F723
:1001400000C000000E945F00C82F181302C0DF5FCC
:1001500001C0D0E01C2FDA3078F38C2FDF91CF91E3
:100160001F91089590E08C309105D8F4FC01EC5C6F
:10017000FF4F0C944C0A81E0089583E0089584E0D9
:10018000089585E0089586E0089587E0089588E061
:10019000089589E008958AE008958BE008958CE041
:1001A000089589E1089582E008959093C5008093B1
:1001B000C40088E18093C10089E08093C200089563
:1001C0009091C00095FFFCCF8093C6000895809168
:1001D000C0008823E4F78091C600089595B19F7709
:1001E00095B995B19F7B95B995B19F7D95B995B11D
:1001F0009F7E95B988231CF495B1906895B986FFC8
:1002000003C095B1906495B985FF03C095B1906224
:1002100095B984FF03C085B1806185B985B18260DD
:1002200085B985E08A95F1F7000085B18D7F85B9A4
:1002300085E08A95F1F700000895CF93C82F85B126
:10024000816085B985B18D7F85B98C2F0E94EE00C4
:100250008C2F8295807F0E94EE00CF9108950F939E
:100260001F93CF93DF9300D0CDB7DEB78C011A82F6
:10027000198210C0E981FA81E00FF11F80810E948C
:100280001D0189819A8101969A83898385ED8A95DA
:10029000F1F70000E981FA81E00FF11F80818111FF
:1002A000E9CF0F900F90DF91CF911F910F9108959B
:1002B000CF93C82F85B18E7F85B985B18D7F85B9E4
:1002C0008C2F0E94EE008C2F8295807F0E94EE0082
:1002D00085ED8A95F1F70000CF91089583EF84B9F9
:1002E00085B18E7F85B985B18D7F85B980E30E9408
:1002F000EE008FE39CE90197F1F700C0000088E26F
:100300000E94EE0095ED9A95F1F7000088E20E94B8
:10031000580188E00E94580181E00E94580186E05F
:100320000E9458010895DC0114968C911497803333
:10033000C9F013969C9113979032A1F412969C9158
:100340001297903279F411969C911197903251F452
:100350009C91903239F412968C93129780E2149605
:100360008C93149714968C9114978032E1F0139625
:100370009C9113979032B9F012962C9112972032DB
:1003800091F411962C911197203269F42C9120321E
:1003900051F412969C93129713968C93139780E2C4
:1003A00014968C93149720E030E00CC0C901FD0135
:1003B000E20FF31F2081203211F420E320839C01FF
:1003C0002F5F3F4F253031058CF30895EF92FF9258
:1003D0000F931F93CF93DF937C0100E010E00E9406
:1003E00094008931E1F3C1E3C80FCA33E1F4101678
:1003F0001106ACF7C2E0C00FC06C8C2F0E945801F0
:1004000086E592E00E942F018C2F0E945801E4E0C3
:10041000F0E0E01BF10B3196EE0DFF1D80E28083D2
:1004200001501109DCCFCC3321F4F70185818033F1
:10043000E1F4053011059CF6CB3309F4C0E3E4E0A8
:10044000F0E0E01BF10BEE0DFF1DC083D3E0D00FF9
:10045000D06C8D2F0E9458018C2F0E941D018D2F72
:100460000E9458010F5F1F4FBACFDF91CF911F91AC
:100470000F91FF90EF900895EF92FF920F931F93CB
:10048000CF93DF937C018B0181E020E030E012C04C
:10049000E901F701E20FF31F4081F801E20FF31FBA
:1004A0009081491721F081E40E941D0180E09E01A6
:1004B0002F5F3F4F263031055CF3DF91CF911F91C5
:1004C0000F91FF90EF900895FF920F931F93CF939A
:1004D000DF938C010E9494000E94B200F801808397
:1004E00080EC0E94580180E0C0E0D0E038C00E945B
:1004F0009400F8018083893199F08B3089F089303C
:1005000079F0C630D10564F491E0980FFE01EC5FFC
:10051000FE4F90838F5C0E941D01219680E01FC0DA
:100520008930C1F41C161D0674F48C2F8150806C28
:10053000F82E0E94580186E592E00E942F018F2D2F
:100540000E945801219786E4FE01EC5FFE4F8083F4
:1005500080E005C08B3011F080E001C081E088238D
:1005600031F2209721F289E1F8018083DF91CF9168
:100570001F910F91FF900895EF92FF920F931F9399
:10058000CF93DF937C0181E00E94580182E00E94BA
:10059000580189E391E00E942F010FEF10E01EC087
:1005A000C7010E946402C0E0D0E015C011110EC066
:1005B000BE01660F771F6C0F7D1F660F771F665F8A
:1005C0007E4F84E091E00E943C02182F112311F02D
:1005D0000C2F04C02196C330D10544F3112301F33D
:1005E00081E00E94580180E80E94580188E491E06F
:1005F0000E942F0180EC0E945801011105C082E584
:1006000091E00E942F010DC0013029F480E691E0B5
:100610000E942F0106C0023021F48BE691E00E9477
:100620002F01802FDF91CF911F910F91FF90EF90BD
:10063000089581E00E94580180E80E94580186E7F1
:1006400091E00E942F0180EC0E94580184E891E023
:100650000E942F01089580E991E00E942F0180EC13
:100660000E9458018CE991E00E942F012FEF83ED49
:1006700090E3215080409040E1F700C0000083E00B
:100680000E945801089581E00E94580180E80E946C
:10069000580186EA91E00E942F0180EC0E945801E7
:1006A00086EB91E00E942F0108950E9443030E946F
:1006B00094008931E1F38F5F089581E00E94580131
:1006C00080E80E94580187EC91E00E942F0180ECA5
:1006D0000E94580185ED91E00E942F010895CF936B
:1006E0000E945D03C9E115C00E949400C82F80914B
:1006F000C000882374F40E94E700833451F40E9400
:10070000E7008D3419F0873549F003C081E090E0AF
:1007100007C0C93149F383E090E002C082E090E075
:10072000CF91089581E00E94580180E80E9458010D
:1007300083EE91E00E942F0180EC0E94580181EF2E
:1007400091E00E942F012FEF8FE493EC2150804025
:100750009040E1F700C00000089581E00E94580138
:1007600080E80E9458018DEF91E00E942F0180ECFB
:100770000E94580188E092E00E942F012FEF8BE742
:1007800092E9215080409040E1F700C000000895B8
:1007900081E00E94580180E80E9458018DEF91E0AD
:1007A0000E942F0180EC0E94580188E192E00E9493
:1007B0002F012FEF8BE792E9215080409040E1F725
:1007C00000C00000089581E00E94580180E80E9466
:1007D00058018DEF91E00E942F0180EC0E9458019A
:1007E00085E292E00E942F012FEF8BE792E92150E2
:1007F00080409040E1F700C00000089581E00E9431
:10080000580180E80E94580185E392E00E942F0180
:1008100080EC0E945801089581E00E94580180E810
:100820000E94580185E492E00E942F0180EC0E9412
:10083000580184E592E00E942F01089581E00E9412
:10084000580180E80E94580188E592E00E942F013B
:1008500080EC0E945801089581E00E94580180E8D0
:100860000E94580184E692E00E942F0180EC0E94D1
:10087000580184E592E00E942F01089581E00E94D2
:10088000580180E80E94580185E792E00E942F01FC
:1008900080EC0E94580184E592E00E942F010895A7
:1008A00081E00E94580180E80E94580184E892E0AB
:1008B0000E942F0180EC0E94580108950F931F930E
:1008C000CF93DF930E945004C0E0D0E011E30E9478
:1008D00094008931E1F38F5C8A3399F41C161D066C
:1008E000B4F71C2F1150106C812F0E94580186E51F
:1008F00092E00E942F01812F0E945801219711E35D
:10090000E6CF8C3311F41133C9F41C161D06FCF22A
:100910008433E8F68233D8F28B3311F0182F01C0FC
:1009200010E30C2F006C802F0E945801812F0E9431
:100930001D01802F0E9458012196C9CF812FDF9180
:10094000CF911F910F91089581E00E94580180E896
:100950000E94580185E992E00E942F0180EC0E94DC
:1009600058010895EF92FF921F93CF93DF937C017C
:100970000E94A404C0E0D0E00E9494008931E1F319
:100980008F5C8A33B9F41C161D06B4F71C2F115066
:10099000106C812F0E94580186E592E00E942F0181
:1009A000812F0E9458012197F701EC0FFD1F80E372
:1009B0008083E2CF8C33C1F0C630D105ECF68B33A7
:1009C00009F480E3F701EC0FFD1F80831C2F106CEE
:1009D000812F0E94580186EA92E00E942F01812F08
:1009E0000E9458012196C8CFDF91CF911F91FF90AF
:1009F000EF90089581E00E94580180E80E9458011C
:100A000088EA92E00E942F0180EC0E94580108952C
:100A1000EF92FF920F931F93CF93DF937C010E947D
:100A2000FA0400E010E00E9494008931E1F3C1E390
:100A3000C80FCA33C1F410161106ACF7CFEFC00FC0
:100A4000C06C8C2F0E94580186E592E00E942F0115
:100A50008C2F0E94580101501109F701E00FF11F7E
:100A600080E38083E0CFCC33C1F006301105DCF6A3
:100A7000CB3309F4C0E3F701E00FF11FC083D02F9F
:100A8000D06C8D2F0E9458018C2F0E941D018D2F3C
:100A90000E9458010F5F1F4FC6CFDF91CF911F916A
:100AA0000F91FF90EF90089581E00E94580180E837
:100AB0000E9458018AEB92E00E942F0180EC0E9474
:100AC000580186EC92E00E942F010895EF92FF9268
:100AD0000F931F93CF93DF93CDB7DEB765970FB614
:100AE000F894DEBF0FBECDBF2130310509F043C001
:100AF00026E529832A8322E030E034C028303105FE
:100B000064F4FC01E20FF31F3297A081E1E0F0E012
:100B1000EC0FFD1FE20FF31FA083D901F9013897F5
:100B2000E630F10550F4E60FF71F1081E1E0F0E048
:100B3000EC0FFD1FE20FF31F10832E3031057CF008
:100B4000E2E1F0E0E21BF30BE40FF51FF08001E0BF
:100B500010E00C0F1D1F200F311FF901F0829D01C5
:100B60002F5F3F4F233131054CF20F2EF3E1EF2E73
:100B7000F12CF02D80C02115310581F525E4298364
:100B800026E52A8322E030E020C0283031056CF4CD
:100B9000FC01E20FF31F32976081E1E0F0E0EC0F1F
:100BA000FD1FE20FF31F60830EC0ECE0F0E0E21BDC
:100BB000F30BE40FF51F6081E1E0F0E0EC0FFD1FA7
:100BC000E20FF31F60832F5F3F4F2D303105ECF2B2
:100BD0000F2EFDE0EF2EF12CF02D4DC0E6E5E98360
:100BE000E0E5EA83E2E0F0E03DC0E830F10564F4DE
:100BF000DC01AE0FBF1F12971C91A1E0B0E0AC0F5B
:100C0000BD1FAE0FBF1F1C938F01DF011897A630C9
:100C1000B10550F4A60FB71FFC90A1E0B0E0AC0FF7
:100C2000BD1FAE0FBF1FFC92EE30F10539F4A1E0FD
:100C3000B0E0AC0FBD1FAE0FBF1F2C93EF30F1051E
:100C40007CF0A3E1B0E0AE1BBF0BA40FB51FAC91CD
:100C5000EE24E394F12CEC0EFD1EEE0DFF1DA0839F
:100C6000F8013196E431F1050CF4BFCF0F2EF4E119
:100C7000EF2EF12CF02D00E010E00BC0E1E0F0E0F1
:100C8000EC0FFD1FE00FF11F80810E94E0000F5F5D
:100C90001F4F0E151F0594F38DE00E94E0000E9487
:100CA00054050E94E7008F3429F0833569F08334BE
:100CB000C1F705C00E94920381E090E015C00E9438
:100CC000AD0381E090E010C00E94E700863419F087
:100CD000893431F0E6CF0E94E30382E090E004C063
:100CE0000E94C80381E090E065960FB6F894DEBFDD
:100CF0000FBECDBFDF91CF911F910F91FF90EF906D
:100D00000895AF92BF92CF92DF92EF92FF920F932E
:100D10001F93CF93DF936C015B018A0180E090E029
:100D200036C021E0C216D10489F4029751F40EC0F6
:100D30007801EC0EFD1E0E94E700F70180832196EA
:100D400002C0C0E0D0E0C630D10594F3F2E0CF1687
:100D5000D10479F409C07801EC0EFD1E0E94E70071
:100D6000F7018083219602C0C0E0D0E0C630D105F3
:100D700094F3F3E0CF16D10419F4C8010E940805DA
:100D800020E030E0A501B801C8010E94660581306D
:100D9000910539F6DF91CF911F910F91FF90EF9060
:100DA000DF90CF90BF90AF9008950F931F93CF9394
:100DB000DF93CDB7DEB7A3970FB6F894DEBF0FBEB3
:100DC000CDBF86E0ECE1F1E0DE01119601900D92DD
:100DD0008A95E1F786E0ECE1F1E0DE0117960190FB
:100DE0000D928A95E1F785E0E2E2F1E0DE011D96E1
:100DF00001900D928A95E1F782E1E7E2F1E0DE01F0
:100E0000529601900D928A95E1F70E941E04CE0140
:100E100001960E94B20480E090E000E010E016C06D
:100E2000009791F4B801660F771F600F711F660F6E
:100E3000771F82E190E08C0F9D1F680F791FCE0114
:100E400001960E943C0290E00F5F1F4F0330110596
:100E50003CF3892BC1F00E940C04CE010D960E9438
:100E6000E601CE010D960E9493010E94FE030E94AE
:100E70006F03AE01495F5F4FBE01635F7F4F90E03C
:100E80000E94810602C00E94E3039FEF23E284EFE9
:100E9000915020408040E1F700C00000A3960FB6BB
:100EA000F894DEBF0FBECDBFDF91CF911F910F91A0
:100EB00008954F925F926F927F928F929F92AF921E
:100EC000BF92CF92DF92EF92FF920F931F93CF9337
:100ED000DF933C015B012901812C912C51C081E001
:100EE000A816B104C1F4E2E08E16910459F410C0C2
:100EF000E701CC0DDD1D0E94E7008883FFEFCF1ACC
:100F0000DF0A02C0C12CD12C86E0C816D10484F3BC
:100F1000C8010E94B204E2E0AE16B104E1F416C0CA
:100F2000C630D1053CF40E94E700F701EC0FFD1F2D
:100F300080830AC06E01F6E0CF1AD108C00ED11E20
:100F40000E94E700F6018083219602C0C0E0D0E055
:100F5000CC30D1052CF3F3E0AF16B10451F482E0AC
:100F60008816910419F0C7010E940805C8010E9463
:100F7000B2049301A201B801C7010E9466054C01A9
:100F8000E1E08E16910409F0AACFDF91CF911F9175
:100F90000F91FF90EF90DF90CF90BF90AF909F9018
:100FA0008F907F906F905F904F900895CF92DF92D7
:100FB000EF92FF920F931F93CF93DF93CDB7DEB7DE
:100FC00061970FB6F894DEBF0FBECDBF86E0ECE1AF
:100FD000F1E0DE01119601900D928A95E1F786E02D
:100FE000ECE1F1E0DE01179601900D928A95E1F7B0
:100FF00085E0E2E2F1E0DE011D9601900D928A9516
:10100000E1F70E943E04CE010D960E94E601CE015A
:101010000D960E9493010E945E04D82E0E945503F3
:10102000C82E0E946F03BC017727CE0107967C0172
:101030008E010F5F1F4F9E01235F3F4F4C2D8D2D63
:1010400090E00E94590761960FB6F894DEBF0FBE7C
:10105000CDBFDF91CF911F910F91FF90EF90DF9067
:10106000CF900895DF92EF92FF920F931F93CF934B
:10107000DF93CDB7DEB761970FB6F894DEBF0FBE32
:10108000CDBF86E0ECE1F1E0DE01119601900D921A
:101090008A95E1F786E0ECE1F1E0DE011796019038
:1010A0000D928A95E1F785E0E2E2F1E0DE011D961E
:1010B00001900D928A95E1F70E942C04CE010D96C5
:1010C0000E94E6010E945503D82E0E946F03BC01C6
:1010D0007727CE0107967C018E010F5F1F4F9E017F
:1010E000235F3F4F4D2D81E090E00E9459076196AC
:1010F0000FB6F894DEBF0FBECDBFDF91CF911F9129
:101100000F91FF90EF90DF9008958133910519F4CE
:101110000E94320808958233910519F40E94D6077F
:101120000895C39711F40E94D50608952FEF8EE914
:1011300094E2215080409040E1F700C0000083E03D
:101140000E94580183ED92E00E942F0180EC0E94E2
:10115000580183EE92E00E942F012FEF8DE399E476
:10116000215080409040E1F700C0000081E00E94E3
:10117000580180E80E94580184EF92E00E942F01FC
:1011800080EC0E94580185E093E00E942F010895B1
:1011900081E00E94580180E80E94580186E193E0B6
:1011A0000E942F0180EC0E94580187E293E00E9488
:1011B0002F012FEF8DE399E4215080409040E1F71B
:1011C00000C00000089581E00E94580180E80E945C
:1011D000580186E393E00E942F0180EC0E945801A1
:1011E00086E493E00E942F010895CF93DF93EC01F2
:1011F0000E94E30889E1888303C00E9494008883E9
:1012000098819B3011F09930C1F781E09B3009F44F
:1012100080E0DF91CF910895FC01808190E0FC0196
:10122000EE5FFE4F2081213029F4FC01EE5FFE4F7E
:10123000108205C0FC01EE5FFE4F21E0208381E0BB
:101240000E94580180E80E94580185E593E00E94C1
:101250002F0180EC0E9458018EE593E00E942F013F
:10126000FFEF23ED80E3F15020408040E1F700C024
:101270000000089583E00E94580189E693E00E94EF
:101280002F0180910201813029F480E793E00E94D0
:101290002F0104C08BE793E00E942F0180EC0E9495
:1012A000580186E893E00E942F018091030181306C
:1012B00029F48DE893E00E942F01089588E993E0D6
:1012C0000E942F010895CF93DF93EC01888188233A
:1012D00049F1813039F1823029F50E94C8080E9415
:1012E0003A0989E1888303C00E9494008883888139
:1012F0008931D1F3823020F4CE010E940C0910C054
:1013000083E00E94580183EA93E00E942F012FEFAF
:1013100083ED90E3215080409040E1F700C0000051
:1013200089E1888389E18883DF91CF9108951F92B5
:101330000F920FB60F9211242F933F934F935F9309
:101340006F937F938F939F93AF93BF93EF93FF938D
:10135000809101018B3031F48091B3038F5F8093D2
:10136000B30302C01092B3038091B3038330C1F47E
:101370008091B203882349F080E80E94580188E0F8
:101380000E9458011092B20309C080E80E945801DF
:101390008CE00E94580181E08093B2031092B30365
:1013A000FF91EF91BF91AF919F918F917F916F913D
:1013B0005F914F913F912F910F900FBE0F901F9013
:1013C000189584E0809380008093810010928500BE
:1013D0001092840084E294EF9093890080938800B7
:1013E000EFE6F0E08081826080837894089583E363
:1013F00090E00E94D5000E946E010E94E1098CE0FD
:101400000E9458010E942B03C1E0CC2341F081E0EF
:1014100091E00E94BC0280930001C0E00CC081E01A
:1014200091E00E94F508811106C081E091E00E94E0
:10143000BC028093000189E1809301018091000149
:10144000882399F083E00E9458010E94190304C088
:101450000E949400809301018091010190E0C19667
:1014600084339105ACF70E948508809100018111B9
:10147000CCCF0E94960889E18093010104C00E94AC
:10148000940080930101809101018931C1F381E0D1
:1014900091E00E946309B9CFEE0FFF1F0590F49110
:0814A000E02D0994F894FFCF40
:1014A8000A19010146464646464601010101010165
:1014B8000202020202020303030303033030303046
:1014C8003030202020202031313131313132323258
:1014D800323232333333333333496E7369726120B6
:1014E800612053656E68610042656D2056696E64BF
:1014F8006F0041646D696E6973747261646F720024
:101508004F70657261646F722031004F706572614F
:10151800646F722032005B315D204156205B325D82
:10152800204150005B335D204573746F726E6F000D
:1015380020202020204D6963506179002020202040
:101548002020203A29004D65746F646F206465205F
:1015580070676D743A005B315D20646562205B32B0
:101568005D2063726564004170726F782E2F496E3A
:1015780073697261004F75206E726F2043617274D7
:10158800616F004F702E207265616C697A616461C9
:1015980000636F6D207375636573736F004F702EF2
:1015A800206E656761646100436F6E746120636FCC
:1015B8006D2066616C68610053616C646F20696EB0
:1015C8007366632E0053656E686120636F6D2066D5
:1015D800616C68610043617274616F206573746F38
:1015E800726E6F3A0056616C6F72206573746F7219
:1015F8006E6F3A005224200053656E686120284FB0
:1016080050293A0056616C6F722028612076697300
:101618007461293A0056616C6F722028746F746186
:101628006C293A004E722E206465207061726365E1
:101638006C61733A00496E73697261206120736549
:101648006E68613A20002A0043617274616F202835
:101658006E756D65726F293A200041677561726415
:10166800616E646F20007365727669646F722E2EE6
:101678002E200053656C6563696F6E65206F20715D
:101688007565007175657220636F6E66696775723E
:1016980061723A00312D486F726120322D566572A1
:1016A8002E50656E00332D4F70657220342D4465C1
:1016B800732E50656E0053656C6563696F6E6520A7
:1016C8006F206F70657200702F206861622F6465EB
:1016D800736861623A00446573656A61206D756478
:1016E8006172206465006D6F646F3F202A3A4E2056
:1016F80020233A53004F7065726163616F00436F36
:101708006E636C7569646121004F706572312000E9
:1017180064657368616220202D3100686162202051
:101728002020202D31004F706572322000646573CF
:1017380068616220202D320068616220202020200C
:101748002D32004F7063616F20496E76616C696459
:0217580061002E
:00000001FF
