S00F00006D69635F7061792E7372656333
S11300000C9440000C9455000C9455000C9455002D
S11300100C9455000C9455000C9455000C94550008
S11300200C9455000C9455000C9455000C945500F8
S11300300C9455000C9455000C9455000C945500E8
S11300400C9455000C9455000C9455000C945500D8
S11300500C9455000C9455000C9455000C945500C8
S11300600C9455000C945500140119011E01230130
S113007028012D01320137013C01410146014B01A8
S113008011241FBECFEFD8E0DEBFCDBF11E0A0E04A
S1130090B1E0EAE2F3E002C005900D92A831B107A5
S11300A0D9F70E947D010C9493010C94000087B150
S11300B0807F87B98AB18F788AB988B18F6088B90F
S11300C080E020C09AB120E130E0082E02C0220F67
S11300D0331F0A94E2F7292B2AB990E010C026B105
S11300E030E0092E02C0359527950A94E2F720FDE9
S11300F005C0292F220F920F890F08959F5F943016
S113010070F38F5F8330F0F284E1089595B19F77A7
S113011095B995B19F7B95B995B19F7D95B995B1E9
S11301209F7E95B988231CF495B1906895B986FF94
S113013003C095B1906495B985FF03C095B19062F1
S113014095B984FF03C085B1806185B985B18260AA
S113015085B985E08A95F1F7000085B18D7F85B971
S113016085E08A95F1F700000895CF93C82F85B1F3
S1130170816085B985B18D7F85B98C2F0E948600F9
S11301808C2F8295807F0E948600CF9108950F93D3
S11301901F93CF93DF9300D0CDB7DEB78C011A82C3
S11301A0198212C0E981FA81E00FF11F80810E9457
S11301B0B50089819A8101969A8389838FE391E0BE
S11301C00197F1F700C00000E981FA81E00FF11F07
S11301D080818111E7CF0F900F90DF91CF911F9114
S11301E00F910895CF93C82F85B18E7F85B985B1BE
S11301F08D7F85B98C2F0E9486008C2F8295807FFD
S11302000E9486008FE391E00197F1F700C000009F
S1130210CF91089590E08C30910508F043C0FC0123
S1130220EC5CFF4F0C948D0180E091E00E94C700CC
S1130230089582E091E00E94C700089584E091E06F
S11302400E94C700089586E091E00E94C7000895C7
S113025088E091E00E94C70008958AE091E00E943E
S1130260C70008958CE091E00E94C70008958EE0D5
S113027091E00E94C700089580E191E00E94C700C8
S1130280089582E191E00E94C700089584E191E01D
S11302900E94C700089586E191E00E94C70081E0B2
S11302A00E94F200089583EF84B985B18E7F85B9E9
S11302B085B18D7F85B980E30E9486008FE39CE938
S11302C00197F1F700C0000088E20E9486008FE3E6
S11302D091E00197F1F700C0000088E20E94F2006B
S11302E088E00E94F20081E00E94F20086E00E9411
S11302F0F2008CE00E94F20008950E9453010E94D3
S113030057000E940A012FEF80E792E021508040BD
S11303109040E1F700C00000F2CFEE0FFF1F059000
S10D0320F491E02D0994F894FFCF46
S113032A310032003300340035003600370038001B
S10B033A39002A003000230001
S9030000FC
