S00F00006D69635F7061792E7372656333
S11300000C9440000C945D000C945D000C945D0015
S11300100C945D000C945D000C945D000C945D00E8
S11300200C945D000C945D000C945D000C94A8028B
S11300300C945D000C945D000C945D000C945D00C8
S11300400C945D000C945D000C945D000C945D00B8
S11300500C945D000C945D000C945D000C945D00A8
S11300600C945D000C945D00140219021402240225
S1130070140224021402140224021402240214029C
S113008011241FBECFEFD8E0DEBFCDBF11E0A0E04A
S1130090B1E0E6ECF6E002C005900D92A230B107A3
S11300A0D9F721E0A2E0B1E001C01D92AC31B20762
S11300B0E1F70E944F030C9461030C9400009093A9
S11300C0C5008093C40088E18093C10089E08093D7
S11300D0C200089595B19F7795B995B19F7B95B965
S11300E095B19F7D95B995B19F7E95B988231CF4F0
S11300F095B1906895B986FF03C095B1906495B9A0
S113010085FF03C095B1906295B984FF03C085B1A2
S1130110806185B985B1826085B985E08A95F1F7FA
S1130120000085B18D7F85B985E08A95F1F70000DF
S11301300895CF93C82F85B1816085B985B18D7F2E
S113014085B98C2F0E946A008C2F8295807F0E9433
S11301506A00CF9108950F931F93CF93DF9300D03C
S1130160CDB7DEB78C011A82198210C0E981FA81F9
S1130170E00FF11F80810E94990089819A81019684
S11301809A83898385ED8A95F1F70000E981FA81E4
S1130190E00FF11F80818111E9CF0F900F90DF9163
S11301A0CF911F910F910895CF93C82F85B18E7F62
S11301B085B985B18D7F85B98C2F0E946A008C2FFB
S11301C08295807F0E946A0085ED8A95F1F7000090
S11301D0CF91089583EF84B985B18E7F85B985B1B8
S11301E08D7F85B980E30E946A008FE39CE90197C3
S11301F0F1F700C0000088E20E946A0095ED9A952C
S1130200F1F7000088E20E94D40088E00E94D40044
S113021081E00E94D40086E00E94D40008951092E8
S11302201901109218011092170181E080931601B0
S11302308093150186E180931401E2E0F1E08FE2FE
S1130240828385831086EBE0F1E08AE382838583F1
S113025010860895CF92DF92EF92FF920F931F932F
S1130260CF93DF936B01EA01D801FC01408150E098
S1130270405351098181440F742F770F770F470F33
S1130280742F780F7053F601808190E0C0979181AC
S1130290880F582F550F550F850F582F590F50534E
S11302A0888190E0C0979981880F482F440F440FAC
S11302B0840F482F490F40538C9190E0C0971196BA
S11302C09C91880F682F660F660F860F890F60ED6B
S11302D0680FF901808190E0C0979181880F282FE1
S11302E0220F220F820F890F20ED280FF701808142
S11302F090E0C0979181880F382F330F330F830F0D
S1130300890F8053443670F55D3070F5703270F5A6
S11303107D3140F0523031F4942F937049F57D31A2
S113032049F50CC07F3151F4563031F118F4543092
S113033029F422C0593001F15B30F1F08C33F0F430
S11303406C33F0F42831F0F47093160150931501D6
S113035040931401209319016093180180931701AD
S113036081E011C080E00FC080E00DC080E00BC0D0
S113037080E009C080E007C080E005C080E003C0E1
S113038080E001C080E0DF91CF911F910F91FF9039
S1130390EF90DF90CF90089581E0809316018091D3
S11303A015018F5F809315018D3061F481E0809396
S11303B01501809114018F5F80931401843611F428
S11303C0109214010895809117018F5F8093170193
S11303D08C3339F410921701809118018F5F809348
S11303E01801809118018C3339F41092180180910E
S11303F019018F5F8093190180911901883141F5AA
S113040010921901209116012F5F20931601E0919B
S113041015018E2F90E0FC013197EC30F105A0F42A
S1130420EC5CFF4F0C945B03203291F40E94CC01EE
S113043008952D3121F480911401837011F42E312B
S113044039F40E94CC0108952F3111F40E94CC019B
S1130450089520911901EBE0F1E08DEC289F912D96
S1130460112496959695969530E3390F3083990F1C
S1130470392F330F330F930F291B205D21832091D4
S11304801801289F912D112496959695969530E301
S1130490390F3383990F392F330F330F930F291BE0
S11304A0205D248390911701989F812D11248695B6
S11304B08695869520E3280F2683880F282F220F00
S11304C0220F820F981B905D978308952091160147
S11304D0E2E0F1E08DEC289F912D112496959695FC
S11304E0969530E3390F3083990F392F330F330F3B
S11304F0930F291B205D218320911501289F912DA5
S1130500112496959695969530E3390F3383990F78
S1130510392F330F330F930F291B205D24839091C0
S11305201401989F812D112486958695869520E344
S1130530280F2683880F282F220F220F820F981B43
S1130540905D978308950E9466020E94290208958F
S11305501F920F920FB60F9211242F933F934F9334
S11305605F936F937F938F939F93AF93BF93EF9317
S1130570FF93809100018B3031F480911B018F5FD8
S113058080931B0102C010921B0180911B018330D8
S1130590C1F480911A01882349F080E80E94D400B4
S11305A088E00E94D40010921A0109C080E80E94D9
S11305B0D4008CE00E94D40081E080931A01109250
S11305C01B010E94E3010E94A302FF91EF91BF91DE
S11305D0AF919F918F917F916F915F914F913F91D7
S11305E02F910F900FBE0F901F901895CF93DF930C
S11305F0CDB7DEB72C970FB6F894DEBF0FBECDBFD4
S11306008CE00E94D4008BE091E00E94AB0090E368
S1130610998321E32A839B8384E38C8382E38D8300
S11306208E832F8337E3388789878A872B879C8734
S1130630CE010B967C018E01075F1F4F9E01295F3F
S11306403F4FAE014B5F5F4FBE016D5F7F4F0A9717
S11306500E942A0180E80E94D40082E091E00E9476
S1130660AB0080EC0E94D4008BE091E00E94AB00D0
S1130670F1CF84E080938000809381001092850004
S11306801092840084E294EF909389008093880010
S1130690EFE6F0E0808182608083789408950E9480
S11306A00F0183E390E00E945F000E94EA000E9431
S11306B039030E94F602EE0FFF1F0590F491E02D1E
S10906C00994F894FFCF39
S10506C6190015
S9030000FC
