S00F00006D69635F7061792E7372656333
S11300000C9440000C945D000C945D000C945D0015
S11300100C945D000C945D000C945D000C945D00E8
S11300200C945D000C945D000C945D000C94000530
S11300300C945D000C945D000C945D000C945D00C8
S11300400C945D000C945D000C945D000C945D00B8
S11300500C945D000C945D000C945D000C945D00A8
S11300600C945D000C945D00BB00D300BD00BF0088
S1130070C100C300C500C700C900CB00CD00CF003C
S113008011241FBECFEFD8E0DEBFCDBF12E0A0E049
S1130090B1E0E0E5FBE002C005900D92A632B107A5
S11300A0D9F722E0A6E2B2E001C01D92A832B2075D
S11300B0E1F70E9460050C94A6050C94000087B13A
S11300C0807F87B98AB18F788AB988B18F6088B9FF
S11300D080E026C09AB120E130E0082E02C0220F51
S11300E0331F0A94E2F7292B2AB9E7ECF0E03197A1
S11300F0F1F700C0000090E010C026B130E0092EF6
S113010002C0359527950A94E2F720FD05C0292FF2
S1130110220F920F890F08959F5F943070F38F5FC1
S11301208330C0F289E108951F93CF93DF930E9437
S11301305F00182FD0E00FC08FE79EE30197F1F71F
S113014000C000000E945F00C82F181302C0DF5FC8
S113015001C0D0E01C2FDA3078F38C2FDF91CF91DF
S11301601F91089590E08C309105D8F4FC01EC5C6B
S1130170FF4F0C94A00581E0089583E0089584E086
S1130180089585E0089586E0089587E0089588E05D
S1130190089589E008958AE008958BE008958CE03D
S11301A0089589E1089582E008959093C5008093AD
S11301B0C40088E18093C10089E08093C20008955F
S11301C09091C00095FFFCCF8093C6000895809164
S11301D0C0008823E4F78091C600089595B19F7705
S11301E095B995B19F7B95B995B19F7D95B995B119
S11301F09F7E95B988231CF495B1906895B986FFC4
S113020003C095B1906495B985FF03C095B1906220
S113021095B984FF03C085B1806185B985B18260D9
S113022085B985E08A95F1F7000085B18D7F85B9A0
S113023085E08A95F1F700000895CF93C82F85B122
S1130240816085B985B18D7F85B98C2F0E94EE00C0
S11302508C2F8295807F0E94EE00CF9108950F939A
S11302601F93CF93DF9300D0CDB7DEB78C011A82F2
S1130270198210C0E981FA81E00FF11F80810E9488
S11302801D0189819A8101969A83898385ED8A95D6
S1130290F1F70000E981FA81E00FF11F80818111FB
S11302A0E9CF0F900F90DF91CF911F910F91089597
S11302B0CF93C82F85B18E7F85B985B18D7F85B9E0
S11302C08C2F0E94EE008C2F8295807F0E94EE007E
S11302D085ED8A95F1F70000CF91089583EF84B9F5
S11302E085B18E7F85B985B18D7F85B980E30E9404
S11302F0EE008FE39CE90197F1F700C0000088E26B
S11303000E94EE0095ED9A95F1F7000088E20E94B4
S1130310580188E00E94580181E00E94580186E05B
S11303200E9458010895FC012281203351F4218157
S1130330203339F42081203321F42381228320E3E4
S11303402383089581E00E94580180E80E945801A7
S113035080E291E00E942F0180EC0E9458018EE21D
S113036091E00E942F01089581E00E94580180E8E5
S11303700E9458018AE391E00E942F0180EC0E94C0
S113038058018AE491E00E942F0108950E94B4016B
S11303900E9494008931E1F38F5F089581E00E9407
S11303A0580180E80E9458018BE591E00E942F01DA
S11303B080EC0E94580189E691E00E942F01089583
S11303C0CF930E94CE010E949400C82F0E94E700A0
S11303D0833451F40E94E7008D3419F0873549F0D5
S11303E0F2CF81E090E007C0C93169F383E090E087
S11303F002C082E090E0CF91089581E00E9458010C
S113040080E80E94580187E791E00E942F0180EC68
S11304100E94580185E891E00E942F012FEF8BE79D
S113042092E9215080409040E1F700C00000089517
S113043081E00E94580180E80E94580181E991E01E
S11304400E942F0180EC0E9458018CEA91E00E94E6
S11304502F012FEF8BE792E9215080409040E1F784
S113046000C00000089581E00E94580180E80E94C5
S1130470580181E991E00E942F0180EC0E9458010B
S113048089EB91E00E942F012FEF8BE792E9215035
S113049080409040E1F700C000000895CF93DF93BF
S11304A0CDB7DEB764970FB6F894DEBF0FBECDBFED
S11304B02130310509F052C026E529832A8322E040
S11304C030E034C02830310564F4FC01E20FF31F3E
S11304D03297A081E1E0F0E0EC0FFD1FE20FF31F83
S11304E0A083D901F9013897E630F10550F4E60FFD
S11304F0F71F1081E1E0F0E0EC0FFD1FE20FF31FA6
S113050010832E3031057CF0E1E1F0E0E21BF30BC7
S1130510E40FF51FF08001E010E00C0F1D1F200F09
S1130520311FF901F0829D012F5F3F4F22313105C8
S11305304CF200E010E00BC0E1E0F0E0EC0FFD1F36
S1130540E00FF11F80810E94E0000F5F1F4F023116
S1130550110594F38DE00E94E00059C0E6E5E983BB
S1130560E0E5EA83E2E0F0E03BC0E830F10564F462
S1130570DC01AE0FBF1F12971C91A1E0B0E0AC0FDD
S1130580BD1FAE0FBF1F1C938F01DF011897A6304C
S1130590B10550F4A60FB71FFC90A1E0B0E0AC0F7A
S11305A0BD1FAE0FBF1FFC92EE30F10539F4A1E080
S11305B0B0E0AC0FBD1FAE0FBF1F2C93EF30F105A1
S11305C06CF0DA01A00FB11F1F97AC91EE24E394F5
S11305D0F12CEC0EFD1EEE0DFF1DA083F8013196EB
S11305E0E331F10514F200E010E00BC0E1E0F0E0CB
S11305F0EC0FFD1FE00FF11F80810E94E0000F5FF0
S11306001F4F0331110594F38DE00E94E0000E9416
S1130610E7008F3429F0833549F08334C1F703C0F0
S11306200E94FD01F4CF0E943302F1CF0E94E70043
S1130630863419F0893421F0EACF0E943302E7CFDF
S11306400E941802E4CF8F929F92AF92BF92CF92F2
S1130650DF92EF92FF920F931F93CF93DF93623059
S1130660710529F516C086E0C816D1043CF40E9431
S1130670E700F701EC0DFD1D808307C0E601269716
S1130680C00FD11F0E94E70088838FEFC81AD80AD1
S113069004C059014C01C12CD12C8CE0C816D104E2
S11306A014F39401A501B801C7010E944E02DF9121
S11306B0CF911F910F91FF90EF90DF90CF90BF905B
S11306C0AF909F908F900895DF92EF92FF920F93D7
S11306D01F93CF93DF93CDB7DEB760970FB6F8942F
S11306E0DEBF0FBECDBF86E0EAE1F1E0DE01119688
S11306F001900D928A95E1F786E0EAE1F1E0DE01EE
S1130700179601900D928A95E1F780E38D878E8785
S11307108F87888B81E00E94580180E80E945801ED
S113072089EC91E00E942F0180EC0E9458018AED2F
S113073091E00E942F01E12CF12C45C00E9494000D
S1130740893109F440C011E3180F1C3301F51E145C
S11307501F04CCF512E01E0D106C812F0E9458016D
S11307608CED91E00E942F01812F0E945801E4E05A
S1130770F0E0EE19FF098DE090E08C0F9D1FE80F6B
S1130780F91F80E3808391E0E91AF1081CC01A3351
S1130790F9F0E3E0F0E0EE19FF098DE090E08C0F52
S11307A09D1FE80FF91F108303E00E0D006C802FCE
S11307B00E945801812F0E941D01802F0E94580120
S11307C09FEFE91AF90A24E0E216F10409F0B6CF22
S11307D0CE010D960E94930188890E94E0008F85C6
S11307E00E94E0008E850E94E0008D850E94E0005A
S11307F08FEF97EA21E6815090402040E1F700C056
S113080000000E94C601D82E0E94E001BC01772797
S1130810CE0107967C018E010F5F1F4F9E01235F5F
S11308203F4F4D2D81E090E00E94230360960FB668
S1130830F894DEBF0FBECDBFDF91CF911F910F9112
S1130840FF90EF90DF900895C19711F40E94640324
S11308500895EF92FF920F931F93CF93DF937C0140
S11308608B0181E020E030E012C0E901F701E20FE2
S1130870F31F4081F801E20FF31F9081491721F023
S113088081E40E941D0180E09E012F5F3F4F2630CE
S113089031055CF3DF91CF911F910F91FF90EF90A1
S11308A00895FF920F931F93CF93DF938C010E94BF
S11308B094000E94B200F801808380EC0E945801E9
S11308C080E0C0E0D0E038C00E949400F80180834A
S11308D0893199F08B3089F0893079F0C630D105AF
S11308E064F491E0980FFE01EE5FFE4F90838F5CFD
S11308F00E941D01219680E01FC08930C1F41C169E
S11309001D0674F48C2F8150806CF82E0E945801BF
S11309108CED91E00E942F018F2D0E9458012197A8
S113092086E4FE01EE5FFE4F808380E005C08B30DD
S113093011F080E001C081E0882331F2209721F298
S113094089E1F8018083DF91CF911F910F91FF908E
S11309500895EF92FF920F931F93CF93DF937C013F
S11309608EED91E00E942F010FEF10E01EC0C70131
S11309700E945104C0E0D0E015C011110EC0BE01A8
S1130980660F771F6C0F7D1F660F771F685F7E4FA2
S113099082E091E00E942904182F112311F00C2FFA
S11309A004C02196C330D10544F3112301F381E03F
S11309B00E94580180E80E9458018DEE91E00E9447
S11309C02F0180EC0E945801011105C087EF91E0CE
S11309D00E942F010DC0013029F485E092E00E94AD
S11309E02F0106C0023021F480E192E00E942F0121
S11309F0802FDF91CF911F910F91FF90EF90089579
S1130A001F920F920FB60F9211242F933F934F937F
S1130A105F936F937F938F939F93AF93BF93EF9362
S1130A20FF93809101018B3031F4809127028F5F15
S1130A308093270202C010922702809127028330FC
S1130A40C1F480912602882349F080E80E9458016D
S1130A5088E00E9458011092260209C080E80E9492
S1130A6058018CE00E94580181E080932602109284
S1130A702702FF91EF91BF91AF919F918F917F9149
S1130A806F915F914F913F912F910F900FBE0F90F7
S1130A901F90189584E080938000809381001092C9
S1130AA085001092840084E294EF909389008093EF
S1130AB08800EFE6F0E08081826080837894089576
S1130AC083E390E00E94D5000E946E010E944A05D3
S1130AD08CE00E9458018BE192E00E942F012FEFDD
S1130AE087EA91E6215080409040E1F700C0000081
S1130AF083E00E94580189E18093010181E091E043
S1130B000E94A904809300018823A9F32FEF8BE7A7
S1130B1092E9215080409040E1F700C000000E941B
S1130B20A20104C00E9494008093010180910101FC
S1130B3090E0C19684339105ACF70E942404DBCF86
S1130B40EE0FFF1F0590F491E02D0994F894FFCF68
S1130B500A194646464646460101010101010202C0
S1130B600202020203030303030330303030303047
S1130B705B315D204156205B325D204150005B3388
S1130B805D204573746F726E6F004D65746F646F92
S1130B902064652070676D743A005B315D20646584
S1130BA062205B325D2063726564004170726F780D
S1130BB02E2F496E73697261004F75206E726F201B
S1130BC043617274616F004F702E207265616C69AD
S1130BD07A61646100636F6D207375636573736F0D
S1130BE0004F702E206E656761646100436F6E7400
S1130BF06120636F6D2066616C68610053616C6491
S1130C006F20696E7366632E0053656E686120639E
S1130C106F6D2066616C68610056616C6F7220288C
S1130C2061207669737461293A0052242000496E68
S1130C307369726120612053656E68610042656D5D
S1130C402056696E646F0041646D696E69737472D5
S1130C5061646F72004F70657261646F722031005D
S1130C604F70657261646F72203200426C6F7175EF
S1090C706561646F0000E1
S9030000FC
