:100000000C944C000C9469000C9469000C946900E9
:100010000C9469000C9469000C9469000C946900BC
:100020000C9469000C9469000C9469000C94C2183B
:100030000C9469000C9469000C9469000C9469009C
:100040000C9469000C9469000C9469000C9469008C
:100050000C9469000C9469000C9469000C9469007C
:100060000C9469000C946900DB01E001DB01EB01F9
:10007000DB01EB01DB01DB01EB01DB01EB01DB0170
:100080009D05B5059F05A105A305A505A705A9051E
:10009000AB05AD05AF05B10511241FBECFEFD8E00C
:1000A000DEBFCDBF15E0A0E0B1E0EEE4F4E302C0B6
:1000B00005900D92A83AB107D9F726E0A8EAB5E075
:1000C00001C01D92A33BB207E1F70E946A190C948C
:1000D000251A0C94000010929A061092990610921C
:1000E000980681E0809336068093350686E18093FA
:1000F0003406E1EAF6E08FE2828385831086EAEA3D
:10010000F6E08AE38283858310860895CF92DF929A
:10011000EF92FF920F931F93CF93DF936B01EA014E
:10012000D801FC01408150E0405351098181440FC6
:10013000742F770F770F470F742F780F7053F601D6
:10014000808190E0C0979181880F582F550F550FEF
:10015000850F582F590F5053888190E0C09799818F
:10016000880F482F440F440F840F482F490F4053E6
:100170008C9190E0C09711969C91880F682F660F24
:10018000660F860F890F60ED680FF901808190E09E
:10019000C0979181880F282F220F220F820F890F7D
:1001A00020ED280FF701808190E0C0979181880FA2
:1001B000382F330F330F830F890F8053443670F578
:1001C0005D3070F5703270F57D3140F0523031F4B1
:1001D000942F937049F57D3149F50CC07F3151F46E
:1001E000563031F118F4543029F422C0593001F15D
:1001F0005B30F1F08C33F0F46C33F0F42831F0F430
:1002000070933606509335064093340620939A0631
:10021000609399068093980681E011C080E00FC03A
:1002200080E00DC080E00BC080E009C080E007C026
:1002300080E005C080E003C080E001C080E0DF9185
:10024000CF911F910F91FF90EF90DF90CF90089585
:10025000509136063091350660913406462F20E0E5
:1002600026C091E0930F9D3030F095EF930F4F5FD4
:10027000443608F056C0963051F028F4923061F0C0
:10028000943099F404C0993011F09B3071F45F31CF
:1002900061F49F5F51E009C05D3138F0362F337053
:1002A00011F45C5101C05B519F5F2F5F392F2817FC
:1002B000C0F2EBE9F6E08DEC589F912D1124969554
:1002C0009695969520E3290F2083990F292F220FC9
:1002D000220F920F591B505D5183389F912D11248D
:1002E00096959695969520E3290F2283990F292FAD
:1002F000220F220F920F391B305D3383489F812DCF
:10030000112486958695869590E3980F9483880F9F
:10031000982F990F990F890F481B405D458381E005
:10032000089580E0089581E0809336068091350637
:100330008F5F809335068D3061F481E080933506C0
:10034000809134068F5F80933406843611F41092C6
:1003500034060895809198068F5F809398068C33B9
:1003600039F410929806809199068F5F80939906D0
:10037000809199068C3339F41092990680919A06EF
:100380008F5F80939A0680919A06883141F510928A
:100390009A06209136062F5F20933606E0913506A7
:1003A0008E2F90E0FC013197EC30F105A0F4EC5C6D
:1003B000FF4F0C940B1A203291F40E949301089580
:1003C0002D3121F480913406837011F42E3139F4EB
:1003D0000E94930108952F3111F40E949301089512
:1003E00020919A06EAEAF6E08DEC289F912D1124DF
:1003F00096959695969530E3390F3083990F392F5E
:10040000330F330F930F291B205D21832091990611
:10041000289F912D112496959695969530E3390F46
:100420003383990F392F330F330F930F291B205D1F
:10043000248390919806989F812D11248695869506
:10044000869520E3280F2683880F282F220F220F5E
:10045000820F981B905D9783089520913606E1EAFC
:10046000F6E08DEC289F912D112496959695969502
:1004700030E3390F3083990F392F330F330F930F38
:10048000291B205D218320913506289F912D112461
:1004900096959695969530E3390F3383990F392FBA
:1004A000330F330F930F291B205D24839091340663
:1004B000989F812D112486958695869520E3280F97
:1004C0002683880F282F220F220F820F981B905D02
:1004D000978308950E942D020E94F0010895DC0187
:1004E00060E022C0262F30E0492F50E0F901EE0FE6
:1004F000FF1FE20FF31FEE0FFF1FEC58F94F9A0199
:10050000E20FF31F4081FD01E20FF31F80814813CA
:100510000AC0953019F481E0860F08959F5F01C0ED
:1005200090E09630F8F26F5F6530D0F380E0089588
:10053000E82FF0E0E05BF94F8081833011F481E037
:10054000089580E00895DC0190E017C020913706FF
:1005500030E0492F50E0FD01E40FF51F6081F90103
:10056000EE0FFF1FEE0FFF1F2E0F3F1F285C394FAE
:10057000F901E40FF51F60839F5F953038F308950C
:10058000DC0190E017C02091370630E0492F50E0A1
:10059000FD01E40FF51F6081F901EE0FFF1F2E0F23
:1005A0003F1F220F331F2C58394FF901E40FF51F5D
:1005B00060839F5F963038F30895DC0190E017C0A8
:1005C0002091370630E0492F50E0FD01E40FF51F80
:1005D0006081F901EE0FFF1F2E0F3F1F220F331F07
:1005E0002A5A394FF901E40FF51F60839F5F963057
:1005F00038F308950F931F93CF93DF93209137061D
:100600002530B8F4EB018C01CA010E94A302C80195
:100610000E94C002CE010E94DD0280913706E82FC1
:10062000F0E0EF5AF94F10828F5F8093370681E038
:1006300001C080E0DF91CF911F910F910895CF927B
:10064000DF92EF92FF920F931F93CF93DF9381502E
:10065000E0E0F0E0C12CD12C90E067C0923059F07E
:1006600028F4992341F0913079F00BC0933061F078
:10067000943021F006C041E050E008C044E650E06C
:1006800005C040E050E002C04AE050E0923038F54A
:10069000A92FB0E024E030E089010A1B1B0B282FB2
:1006A00030E07901EE0CFF1CEE0CFF1C2E0D3F1DFF
:1006B000285C394F200F311FE9012881ED01C60F59
:1006C000D71FC88130E02C1B3109429FE001439FB6
:1006D000D00D529FD00D1124CC0EDD1E25C0C92F88
:1006E000D0E024E030E089010C1B1D0B282F30E006
:1006F0007901EE0CFF1CEE0CFF1C2E0D3F1D285C3B
:10070000394F200F311FD9012C91C60FD71FC88137
:1007100030E02C1B3109429FE001439FD00D529FD6
:10072000D00D1124EC0FFD1F9F5F953008F496CF7C
:10073000DD2024F43197B4E6CB0ED11CC82FD0E0D5
:100740002AE030E0C601B9010E94F719AE01440F5A
:10075000551F440F551FC40FD51FC85CD94F805D6E
:100760008C83605D6B83CF0164E670E00E94F719B3
:10077000CF0144E6649F801991091124605D68836C
:10078000B9010E94F719605D6983805D8A83DF91FA
:10079000CF911F910F91FF90EF90DF90CF90089530
:1007A000815090E0FC01EE0FFF1FEE0FFF1FE80FDE
:1007B000F91FE85CF94F3081FB012481231708F40D
:1007C0009AC032130FC0FC01EE0FFF1FEE0FFF1F88
:1007D000E80FF91FE85CF94F5181FB014381451790
:1007E00008F48BC032131DC0FC01EE0FFF1FEE0F8B
:1007F000FF1FE80FF91FE85CF94F5181FB014381AE
:1008000054130FC0FC01EE0FFF1FEE0FFF1FE80F88
:10081000F91FE85CF94F5281FB014281451708F44A
:100820006EC032132BC0FC01EE0FFF1FEE0FFF1F37
:10083000E80FF91FE85CF94F5181FB014381541324
:100840001DC0FC01EE0FFF1FEE0FFF1FE80FF91F89
:10085000E85CF94F5281FB01428154130FC0FC0147
:10086000EE0FFF1FEE0FFF1FE80FF91FE85CF94FB7
:100870005381FB014181451708F443C0321343C043
:10088000FC01EE0FFF1FEE0FFF1FE80FF91FE85CE2
:10089000F94F3181FB012381321337C0FC01EE0F88
:1008A000FF1FEE0FFF1FE80FF91FE85CF94F3281C1
:1008B000FB01228132132BC0FC01EE0FFF1FEE0F54
:1008C000FF1FE80FF91FE85CF94F3381FB0121811D
:1008D00032131FC0FC01EE0FFF1FEE0FFF1F8E0F24
:1008E0009F1FFC01E85CF94F9481FB018081981700
:1008F00090F480E0089581E0089581E0089581E01A
:10090000089581E0089580E0089580E0089580E0F2
:10091000089580E0089581E00895FB0190E01CC0F7
:10092000492F50E0DF01A40FB51F7C91282F30E044
:1009300021503109D901AA0FBB1F2A0F3B1F220FDB
:10094000331F2A5A394FD901A40FB51F2C917213A6
:1009500007C0953039F09F5F963010F381E008951D
:1009600080E0089581E008950F931F93CF93C82FDF
:100970008B01BA010E948D04882319F1B8018C2FD4
:100980000E949802882351F0F8018381825083836A
:10099000EC2FF0E0E05BF94F108207C0EC2FF0E0A5
:1009A000E05BF94F80818F5F8083B8018C2F0E94BC
:1009B000D003882341F0B8018C2F0E941F0381E0EF
:1009C00003C082E001C080E0CF911F910F91089594
:1009D000DC0114968C9114978033C9F013969C9186
:1009E00013979032A1F412969C911297903279F459
:1009F00011969C911197903251F49C91903239F458
:100A000012968C93129780E214968C9314971496F6
:100A10008C9114978032E1F013969C911397903249
:100A2000B9F012962C911297203291F411962C91D4
:100A30001197203269F42C91203251F412969C9334
:100A4000129713968C93139780E214968C931497B5
:100A500020E030E00CC0C901FD01E20FF31F20814E
:100A6000203211F420E320839C012F5F3F4F25307B
:100A700031058CF3089587B1807F87B98AB18F786B
:100A80008AB987B1806187B987B1806287B988B137
:100A90008F6088B980E026C09AB120E130E0082E4E
:100AA00002C0220F331F0A94E2F7292B2AB9E7EC80
:100AB000F0E03197F1F700C0000090E010C026B1DF
:100AC00030E0092E02C0359527950A94E2F720FD03
:100AD00005C0292F220F920F890F08959F5F943030
:100AE00070F38F5F8330C0F289E108951F93CF9335
:100AF000DF930E943B05182FD0E00FC08FE79EE3E5
:100B00000197F1F700C000000E943B05C82F1813A1
:100B100002C0DF5F01C0D0E01C2FDA3078F38C2FE9
:100B2000DF91CF911F91089590E08C309105D8F41A
:100B3000FC01E05CFF4F0C940B1A81E0089583E008
:100B4000089584E0089585E0089586E0089587E09B
:100B5000089588E0089589E008958AE008958BE07B
:100B600008958CE0089589E1089582E008959093B6
:100B7000C5008093C40088E18093C10089E0809320
:100B8000C20008959091C00095FFFCCF8093C600ED
:100B900008952091C000222314F001960895209119
:100BA000C600222329F088B18F7E88B980E090E0CA
:100BB000089595B19F7795B995B19F7B95B995B1FA
:100BC0009F7D95B995B19F7E95B988231CF495B109
:100BD000906895B986FF03C095B1906495B985FF7B
:100BE00003C095B1906295B984FF03C085B180615F
:100BF00085B985B1826085B985E08A95F1F70000F5
:100C000085B18D7F85B985E08A95F1F7000008955B
:100C1000CF93C82F85B1816085B985B18D7F85B9A6
:100C20008C2F0E94D9058C2F8295807F0E94D90538
:100C3000CF9108950F931F93CF93DF9300D0CDB73B
:100C4000DEB78C011A82198210C0E981FA81E00FA7
:100C5000F11F80810E94080689819A8101969A83FA
:100C6000898385ED8A95F1F70000E981FA81E00F2B
:100C7000F11F80818111E9CF0F900F90DF91CF910B
:100C80001F910F910895CF93C82F85B18E7F85B99D
:100C900085B18D7F85B98C2F0E94D9058C2F8295C7
:100CA000807F0E94D90585ED8A95F1F70000CF91EC
:100CB0000895EF92FF920F931F93CF93DF937C01E0
:100CC00000E010E00E9476058931E1F3C1E3C80F2E
:100CD000CA33E1F410161106ACF7C2E0C00FC06CC5
:100CE0008C2F0E94430686E795E00E941A068C2FFF
:100CF0000E944306E4E0F0E0E01BF10B3196EE0DBC
:100D0000FF1D80E2808301501109DCCFCC3321F438
:100D1000F70185818032E1F4053011059CF6CB3373
:100D200009F4C0E3E4E0F0E0E01BF10BEE0DFF1D81
:100D3000C083D3E0D00FD06C8D2F0E9443068C2F40
:100D40000E9408068D2F0E9443060F5F1F4FBACFE7
:100D5000DF91CF911F910F91FF90EF90089583EF56
:100D600084B985B18E7F85B985B18D7F85B980E3E2
:100D70000E94D9058FE39CE90197F1F700C00000BC
:100D800088E20E94D90595ED9A95F1F7000088E276
:100D90000E94430688E00E94430681E00E944306C9
:100DA00086E00E9443060895CF93DF93EC01DB01B8
:100DB00081E020E030E00EC0A901FE01E20FF31F48
:100DC0007081FD01E20FF31F9081791380E09A0199
:100DD0002F5F3F4F243031057CF3DF91CF91089591
:100DE000FF920F931F93CF93DF938C010E947605A0
:100DF0000E949405F801808380EC0E94430680E005
:100E0000C0E0D0E03EC00E947605F80180838931C1
:100E1000D1F08B30C1F08930B1F0C430D1059CF4F1
:100E20008F5C80838B3311F480E38083F8018081B1
:100E3000FE01EA5BFE4F80838AE195E00E941A067C
:100E4000219680E01EC08930B9F41C161D066CF492
:100E50008C2F8150806CF82E0E94430680E20E9405
:100E600008068F2D0E944306219786E4FE01EA5B67
:100E7000FE4F808380E005C08B3011F080E001C020
:100E800081E0882309F4BFCF209709F4BCCF89E122
:100E9000F8018083DF91CF911F910F91FF9008950A
:100EA00081E00E94430680E80E9443068BE791E0C0
:100EB0000E941A0680EC0E94430689E891E00E9495
:100EC0001A06089585E991E00E941A0680EC0E94B6
:100ED000430681EA91E00E941A062FEF83ED90E32A
:100EE000215080409040E1F700C0000083E00E9464
:100EF0004306089581E00E94430680E80E9443066D
:100F00008BEA91E00E941A0680EC0E9443068BEB6C
:100F100091E00E941A0608950E947A070E947605C1
:100F20008931E1F38F5F089581E00E94430680E8F4
:100F30000E9443068CEC91E00E941A0680EC0E940D
:100F400043068AED91E00E941A06089581E00E940E
:100F5000430680E80E94430688EE91E00E941A064C
:100F600080EC0E94430686EF91E00E941A062FEF64
:100F70008FE493EC215080409040E1F700C00000E6
:100F8000089581E00E94430680E80E94430682E0C3
:100F900092E00E941A0680EC0E9443068DE092E0E7
:100FA0000E941A062FEF8BE792E921508040904073
:100FB000E1F700C00000089581E00E94430680E848
:100FC0000E94430682E092E00E941A0680EC0E9492
:100FD00043068DE192E00E941A062FEF8BE792E91B
:100FE000215080409040E1F700C00000089581E06A
:100FF0000E94430680E80E94430682E092E00E943D
:101000001A0680EC0E9443068AE292E00E941A06C9
:101010002FEF8BE792E9215080409040E1F700C02C
:1010200000000895EF92FF921F93CF93DF937C010E
:1010300010E053C081E00E94430682E00E94430614
:101040008AE392E00E941A06C7010E94F006C0E0FF
:10105000D0E03DC011110CC0BE01660F771F660FB6
:10106000771F665B7E4F86E491E00E94D406182FBE
:10107000112361F181E00E94430680E80E9443064B
:1010800089E492E00E941A0680EC0E944306C11196
:1010900005C083E592E00E941A060DC0C13029F414
:1010A00081E692E00E941A0606C0C23021F48CE666
:1010B00092E00E941A062FEF87EA91E621508040C5
:1010C0009040E1F700C000008C2F0BC02196C33088
:1010D000D1050CF4BFCF0E94F707112309F4AACF62
:1010E0008FEFDF91CF911F91FF90EF90089581E0F6
:1010F0000E94430680E80E94430687E792E00E9430
:101100001A0680EC0E944306089581E00E9443067F
:1011100080E80E94430687E892E00E941A0680EC6D
:101120000E94430686E992E00E941A06089581E033
:101130000E94430680E80E9443068AE992E00E94EA
:101140001A0680EC0E944306089581E00E9443063F
:1011500080E80E94430686EA92E00E941A0680EC2C
:101160000E94430686E992E00E941A06089581E0F3
:101170000E94430680E80E94430687EB92E00E94AB
:101180001A0680EC0E94430686E992E00E941A0645
:101190000895CF93DF93EC0181E00E94430680E83D
:1011A0000E944306C130D105A9F486EC92E00E946A
:1011B0001A0680EC0E94430684ED92E00E941A0613
:1011C0002FEF87EA91E6215080409040E1F700C080
:1011D000000019C0CD2BA9F48FED92E00E941A06F1
:1011E00080EC0E9443068FEE92E00E941A062FEFD9
:1011F00087EA91E6215080409040E1F700C000006E
:1012000002C00E94F707DF91CF91089581E00E940C
:10121000430680E80E94430680E093E00E941A069D
:1012200080EC0E94430608950F931F93CF93DF93A2
:101230000E940609C0E0D0E011E30E9476058931E2
:10124000E1F38F5C8A3399F41C161D06B4F71C2F4A
:101250001150106C812F0E94430686E795E00E9492
:101260001A06812F0E944306219711E3E6CF8C33A3
:1012700011F41133C9F41C161D06FCF28433E8F690
:101280008233D8F28B3311F0182F01C010E30C2FEA
:10129000006C802F0E944306812F0E940806802F39
:1012A0000E9443062196C9CF812FDF91CF911F91D4
:1012B0000F91089581E00E94430680E80E94430652
:1012C00081E193E00E941A0680EC0E944306089593
:1012D000EF92FF921F93CF93DF937C010E945A09F4
:1012E000C0E0D0E00E9476058931E1F38F5C8A335B
:1012F000B9F41C161D06B4F71C2F1150106C812F69
:101300000E94430686E795E00E941A06812F0E94FC
:1013100043062197F701EC0FFD1F80E38083E2CFA6
:101320008C33C1F0C630D105ECF68B3309F480E381
:10133000F701EC0FFD1F80831C2F106C812F0E9482
:1013400043068AE195E00E941A06812F0E94430617
:101350002196C8CFDF91CF911F91FF90EF90089514
:1013600081E00E94430680E80E94430682E293E007
:101370000E941A0680EC0E9443060895EF92FF92A5
:101380000F931F93CF93DF937C010E94B00900E07D
:1013900010E00E9476058931E1F3C1E3C80FCA333A
:1013A000C1F410161106ACF7CFEFC00FC06C8C2F34
:1013B0000E94430686E795E00E941A068C2F0E9441
:1013C000430601501109F701E00FF11F80E380830C
:1013D000E0CFCC33C1F006301105DCF6CB3309F495
:1013E000C0E3F701E00FF11FC083D02FD06C8D2F29
:1013F0000E9443068C2F0E9408068D2F0E944306F0
:101400000F5F1F4FC6CFDF91CF911F910F91FF90BC
:10141000EF90089581E00E94430680E80E94430611
:1014200084E393E00E941A0680EC0E94430680E465
:1014300093E00E941A06089581E00E94430680E826
:101440000E94430684E393E00E941A0680EC0E9407
:1014500043068DE493E00E941A06089581E00E94FD
:10146000430680E80E94430684E393E00E941A0644
:1014700080EC0E9443068DE593E00E941A060895D1
:101480002FEF8EE994E2215080409040E1F700C0B8
:10149000000083E00E9443068DE693E00E941A0656
:1014A00080EC0E9443068DE793E00E941A062FEF1E
:1014B0008DE399E4215080409040E1F700C00000A6
:1014C00081E00E94430680E80E9443068EE893E094
:1014D0000E941A0680EC0E9443068FE993E00E9466
:1014E0001A06089581E00E94430680E80E944306A0
:1014F00080EB93E00E941A0680EC0E94430681EC88
:1015000093E00E941A062FEF8DE399E4215080406A
:101510009040E1F700C00000089581E00E9443067A
:1015200080E80E94430680ED93E00E941A0680EC5A
:101530000E94430680EE93E00E941A060895CF931E
:10154000DF93EC010E948D0A89E1888303C00E9429
:101550007605888398819B3011F09930C1F781E03E
:101560009B3009F480E0DF91CF91089581E00E94E3
:10157000430680E80E9443068FEE93E00E941A061D
:1015800080EC0E94430689EF93E00E941A062FEF39
:101590008DE399E4215080409040E1F700C00000C5
:1015A00081E00E94430680E80E94430686E094E0C2
:1015B0000E941A0680EC0E94430684E194E00E9497
:1015C0001A06089581E00E94430680E80E944306BF
:1015D0008FEE93E00E941A0680EC0E9443068BE196
:1015E00094E00E941A062FEF8DE399E42150804089
:1015F0009040E1F700C0000081E00E94430680E8CF
:101600000E94430686E094E00E941A0680EC0E9445
:10161000430688E294E00E941A06089581E00E9441
:10162000430680E80E9443068FE294E00E941A0677
:1016300080EC0E94430688E394E00E941A062FEF94
:1016400083ED90E3215080409040E1F700C000001E
:10165000089581E00E94430680E80E94430683E4E7
:1016600094E00E941A0680EC0E94430682E594E012
:101670000E941A062FEF83ED90E3215080409040A6
:10168000E1F700C000000895CF93C82F81E00E94C9
:10169000430680E80E94430682E694E00E941A0610
:1016A00080E38C0F0E94080680EC0E9443068CE6C3
:1016B00094E00E941A062FEF83ED90E321508040C2
:1016C0009040E1F700C00000CF91089581E00E94B2
:1016D000430680E80E94430689E794E00E941A06C8
:1016E00080EC0E94430681E894E00E941A062FEFE6
:1016F00083ED90E3215080409040E1F700C000006E
:10170000089581E00E94430680E80E9443068CE829
:1017100094E00E941A0680EC0E94430683E994E05C
:101720000E941A062FEF83ED90E3215080409040F5
:10173000E1F700C00000089581E00E94430680E8C0
:101740000E9443068CE994E00E941A0680EC0E94F5
:10175000430685EA94E00E941A062FEF83ED90E39A
:10176000215080409040E1F700C00000089581E0E2
:101770000E94430680E80E94430684EB94E00E94A6
:101780001A0680EC0E9443068FEB94E00E941A0632
:101790002FEF83ED90E3215080409040E1F700C0AF
:1017A0000000089581E00E94430680E80E944306FD
:1017B00087EC94E00E941A0680EC0E94430688EDB4
:1017C00094E00E941A062FEF83ED90E321508040B1
:1017D0009040E1F700C00000089581E00E944306B8
:1017E00080E80E94430686EE94E00E941A0680EC90
:1017F0000E94430687EF94E00E941A062FEF87EAC3
:1018000091E6215080409040E1F700C0000008952B
:1018100081E00E94430680E80E94430686E095E04E
:101820000E941A0685E80E9443060E946A0281EA25
:1018300096E00E941A068DE095E00E941A0680EC60
:101840000E94430681E195E00E941A0685EC0E9401
:1018500043068AEA96E00E941A0688E195E00E9413
:101860001A06089581E00E94430680E80E9443061C
:101870008CE195E00E941A0680EC0E94430684E207
:1018800095E00E941A062FEF87EA91E621508040EA
:101890009040E1F700C0000008951CC080919306BD
:1018A000863061F018F4823031F014C08A3049F08B
:1018B0008D3051F00FC00E940A0A0CC00E941C0A11
:1018C00009C00E942E0A06C00E94320C1092930694
:1018D00080E008958091C000882304F78091C600BD
:1018E0000895CF930E949407C9E115C00E94760520
:1018F000C82F8091C000882374F40E944D0C83345B
:1019000051F40E944D0C8D3419F0873549F003C015
:1019100081E090E007C0C93149F383E090E002C064
:1019200082E090E0CF910895CF92DF92EF92FF9204
:101930000F931F93CF93DF93CDB7DEB765970FB6A5
:10194000F894DEBF0FBECDBF79012130310509F01B
:1019500043C026E529832A8322E030E034C02830C2
:10196000310564F4FC01E20FF31F3297A081E1E03E
:10197000F0E0EC0FFD1FE20FF31FA083D901F90186
:101980003897E630F10550F4E60FF71F1081E1E0DB
:10199000F0E0EC0FFD1FE20FF31F10832E30310536
:1019A0007CF0E2E1F0E0E21BF30BE40FF51FD080E6
:1019B000E1E0F0E0EC0FFD1F2E0F3F1FF901D08298
:1019C0009D012F5F3F4F233131054CF20F2EF3E184
:1019D000CF2ED12CF02D80C0232B81F525E4298337
:1019E00026E52A8322E030E020C0283031056CF45F
:1019F000FC01E20FF31F32976081E1E0F0E0EC0FB1
:101A0000FD1FE20FF31F60830EC0ECE0F0E0E21B6D
:101A1000F30BE40FF51F6081E1E0F0E0EC0FFD1F38
:101A2000E20FF31F60832F5F3F4F2D303105ECF243
:101A30000F2EFDE0CF2ED12CF02D4EC026E52983B0
:101A400020E52A8322E030E03EC02830310564F4EE
:101A5000FC01E20FF31F3297A081E1E0F0E0EC0F10
:101A6000FD1FE20FF31FA083D901F9013897E6307B
:101A7000F10550F4E60FF71F1081E1E0F0E0EC0F04
:101A8000FD1FE20FF31F10832E30310539F4E1E022
:101A9000F0E0EC0FFD1FE20FF31FE0822F30310565
:101AA0007CF0E3E1F0E0E21BF30BE40FF51FD080E4
:101AB00001E010E00C0F1D1F200F311FF901D08233
:101AC0009D012F5F3F4F243131050CF4BECF0F2E07
:101AD000F4E1CF2ED12CF02D00E010E00BC0E1E0BE
:101AE000F0E0EC0FFD1FE00FF11F80810E94C205A6
:101AF0000F5F1F4F0C151D0594F38DE00E94C2056A
:101B000081E080939306E114F10499F40E944D0C56
:101B1000833451F08F3419F08111F5CF32C00E9417
:101B2000A60781E090E035C00E94C10783E090E005
:101B300030C00E944D0C833471F018F4882321F1D9
:101B4000E2CF8F3419F0833559F0DDCF0E94A6071C
:101B500081E090E01EC00E94C10783E090E019C0C0
:101B60000E944D0C863419F0893431F010C00E9467
:101B7000F70782E090E00DC00E94DC0784E090E06F
:101B800008C085E090E005C085E090E002C085E0F7
:101B900090E065960FB6F894DEBF0FBECDBFDF9123
:101BA000CF911F910F91FF90EF90DF90CF9008950C
:101BB000AF92BF92CF92DF92EF92FF920F931F935B
:101BC000CF93DF937C016B018A0180E090E038C005
:101BD00021E0E216F10489F4029751F40EC0580195
:101BE000AC0EBD1E0E944D0CF5018083219602C0F3
:101BF000C0E0D0E0C630D10594F3F2E0EF16F10476
:101C000079F409C05801AC0EBD1E0E944D0CF501BF
:101C10008083219602C0C0E0D0E0C630D10594F3A5
:101C2000F3E0EF16F10419F4C8010E94BE0920E0A8
:101C300030E0A601B801C8010E94940C10929306EE
:101C40008130910539F08330910521F0853091057F
:101C500009F0BECFDF91CF911F910F91FF90EF90D0
:101C6000DF90CF90BF90AF9008950F931F93CF93C5
:101C7000DF93CDB7DEB76B970FB6F894DEBF0FBE1C
:101C8000CDBF80E389838A838B838C8386E0E8E5FC
:101C9000F1E0DE01159601900D928A95E1F785E05D
:101CA000EEE5F1E0DE011B9601900D928A95E1F7D9
:101CB0008CE0E3E6F1E0DE01509601900D928A950A
:101CC000E1F70E949708CE0101960E94680980E022
:101CD00090E000E010E014C0009781F4B801660FB6
:101CE000771F660F771F80E190E08C0F9D1F680FB4
:101CF000791FCE0101960E94D40690E00F5F1F4F1E
:101D0000033011054CF3892BC1F00E948508CE01E8
:101D10000B960E945906CE010B960E94E8040E9481
:101D200077080E94710CAE014B5F5F4FBE01655F8B
:101D30007F4F90E00E94D80D02C00E94F7079FEFEE
:101D40002BE782E9915020408040E1F700C000007D
:101D50006B960FB6F894DEBF0FBECDBFDF91CF916B
:101D60001F910F9108952F923F924F925F926F9221
:101D70007F928F929F92AF92BF92CF92DF92EF921B
:101D8000FF920F931F93CF93DF931C015B01742E7F
:101D900029014801612C00E010E075C081E0A8161F
:101DA000B104B9F40230110559F410C0E701CC0DAB
:101DB000DD1D0E944D0C8883EFEFCE1ADE0A02C0B3
:101DC000C12CD12CF6E0CF16D10484F3C4010E94BB
:101DD000680982E0A816B104E1F416C0C630D10546
:101DE0003CF40E944D0CF701EC0FFD1F80830AC0EC
:101DF0006E01E6E0CE1AD108C80CD91C0E944D0C29
:101E0000F6018083219602C0C0E0D0E0CC30D1053D
:101E10002CF3F3E0AF16B10449F40230110519F0C8
:101E2000C7010E94BE09C4010E94680982E07812BD
:101E300004C0C7010E946F02682E611008C09101A2
:101E4000A201B401C7010E94940C8C0116C0A40128
:101E5000B201862D0E94B40490E08130910531F0EA
:101E60008230910531F402E010E005C001E010E09D
:101E700002C001E010E00E94C90810929306C80158
:101E80000397039738F00130110509F087CF81E0FF
:101E900090E002C080E090E0DF91CF911F910F9120
:101EA000FF90EF90DF90CF90BF90AF909F908F907A
:101EB0007F906F905F904F903F902F900895DF92AA
:101EC000EF92FF920F931F93CF93DF93CDB7DEB7BF
:101ED00061970FB6F894DEBF0FBECDBF86E0E8E590
:101EE000F1E0DE01119601900D928A95E1F786E00E
:101EF000E8E5F1E0DE01179601900D928A95E1F791
:101F000085E0EEE5F1E0DE011D9601900D928A95E7
:101F1000E1F70E94A508CE010D960E945906CE0158
:101F20000D960E94E8040E948C07D82E0E94710C26
:101F3000BC017727CE0107967C018E010F5F1F4FF2
:101F40009E01235F3F4F4D2D81E090E00E94B30E34
:101F500061960FB6F894DEBF0FBECDBFDF91CF9173
:101F60001F910F91FF90EF90DF900895FC01808109
:101F700090E0FC01EC5BFE4F2081213029F4FC0154
:101F8000EC5BFE4F108205C0FC01EC5BFE4F21E0D4
:101F900020830E940E0B089583E00E94430685E390
:101FA00095E00E941A0680914401813029F48CE367
:101FB00095E00E941A0604C087E495E00E941A0684
:101FC00080EC0E94430682E595E00E941A0680910B
:101FD0004501813029F489E595E00E941A060895AB
:101FE00084E695E00E941A060895E82FF0E0ED5B84
:101FF000FE4F80810895AF92BF92CF92DF92EF9211
:10200000FF920F931F93CF93DF935C016B017A01D3
:102010008FE695E00E941A0686EC0E944306C0E017
:10202000D0E0C7C0C230D105B4F50E947605893131
:1020300091F0893081F08B3071F08A3009F48FEFA4
:1020400011E3180F812F0E940806F501EC0FF11D16
:102050001083219620C08930D9F41C161D06C4F4C3
:102060008E01C0FD05C0209719F0CC5FC06802C08A
:10207000CB5FC068C0648C2F0E94430686E795E062
:102080000E941A068C2F0E944306E801219703C084
:10209000893009F49DC08E01CE01029782309105EE
:1020A000A8F5C230D10521F4875F806C0E944306F9
:1020B0000E9476058931A1F0893091F08B3081F052
:1020C0008A3009F48FEFD1E3D80F8D2F0E940806D4
:1020D000C250F601EC0FF11DD083E801219616C025
:1020E0008930A1F400FD03C0CB5FC06802C0CA5FA5
:1020F000C068C0648C2F0E94430686E795E00E946A
:102100001A068C2F0E944306E80121978E01CE010A
:10211000049782309105A8F5C430D10521F4845F7D
:10212000806C0E9443060E9476058931A1F08930B7
:1021300091F08B3081F08A3009F48FEFD1E3D80F22
:10214000C4508D2F0E940806F701EC0FF11DD083BB
:10215000E801219616C08930A1F400FD03C0CA5FD2
:10216000C06802C0C95FC068C0648C2F0E9443066B
:1021700086E795E00E941A068C2F0E944306E8012C
:102180002197C630D105A9F40E9476058B3011F451
:1021900021960FC0893069F41C2F195F106C812FB4
:1021A0000E94430680E20E940806812F0E94430697
:1021B0002197C730D1050CF435CF9FEF2EE984E28B
:1021C000915020408040E1F700C0000081E001C054
:1021D00080E0DF91CF911F910F91FF90EF90DF9002
:1021E000CF90BF90AF900895AF92BF92CF92DF9201
:1021F000EF92FF920F931F93CF93DF935C016B01DC
:102200007A0188E795E00E941A0686EC0E94430650
:10221000C0E0D0E0CAC0C230D105B4F50E94760556
:10222000893191F0893081F08B3071F08A3009F476
:102230008FEF11E3180F812F0E940806F501EC0FB4
:10224000F11D1083219620C08930D9F41C161D067B
:10225000C4F48E01C0FD05C0209719F0CC5FC068A2
:1022600002C0CB5FC068C0648C2F0E94430686E723
:1022700095E00E941A068C2F0E944306E8012197E0
:1022800003C0893009F4A0C08E01CE0102978230CC
:102290009105B8F5C230D10521F4875F806C0E94AA
:1022A00043060E9476058931A1F0893091F08B3088
:1022B00081F08A3009F48FEFD1E3D80F8D2F0E947F
:1022C0000806C250F601EC0FF11DD083E8012196FB
:1022D00018C08930B1F400FD05C0209719F0CB5F1C
:1022E000C06802C0CA5FC068C0648C2F0E944306E9
:1022F00086E795E00E941A068C2F0E944306E801AB
:102300002197C430D105CCF1C430D10529F48C2FEC
:10231000885F806C0E9443060E9476058931A1F097
:10232000893091F08B3081F08A3009F48FEF11E31E
:10233000180F812F0E9408068C2F8450F701E80F98
:10234000F11D1083219619C08930B9F48E01C0FDAA
:1023500005C0209719F0CA5FC06802C0C95FC06895
:10236000C0648C2F0E94430686E795E00E941A06FF
:102370008C2F0E944306E8012197C630D105A9F4AD
:102380000E9476058B3011F421960FC0893069F4D4
:102390001C2F195F106C812F0E94430680E20E945F
:1023A0000806812F0E9443062197C730D1050CF4FF
:1023B00032CF2FEF8EE994E2215080409040E1F738
:1023C00000C0000081E001C080E0DF91CF911F914B
:1023D0000F91FF90EF90DF90CF90BF90AF90089556
:1023E000CF93A0E0B0E017C02091A8053091A905D7
:1023F000FC01EA0FFB1FC081F901EE0FFF1FE20F86
:10240000F31FEE0FFF1FE05FF94FEA0FFB1F20EDF8
:102410002C0F20831196A630B10534F320E030E074
:1024200018C08091A8059091A905FB01E20FF31F48
:10243000A081FC01EE0FFF1FEE0FFF1FE80FF91F39
:10244000EE50FA4FE20FF31F80ED8A0F80832F5F6B
:102450003F4F253031052CF320E030E01AC0809149
:10246000A8059091A905FA01E20FF31F6081FC0114
:10247000EE0FFF1FE80FF91FEE0FFF1FEE0FFF1FFC
:10248000E655FA4FE20FF31F80ED860F80832F5F32
:102490003F4F2C3031051CF38091A8059091A90580
:1024A000863091052CF401969093A9058093A80598
:1024B000CF910895AF92BF92CF92DF92EF92FF92A9
:1024C0000F931F93CF93DF93CDB7DEB76D970FB602
:1024D000F894DEBF0FBECDBF86E0E8E5F1E0DE0197
:1024E000119601900D928A95E1F786E0E8E5F1E01A
:1024F000DE01179601900D928A95E1F785E0EEE5F1
:10250000F1E0DE011D9601900D928A95E1F70E949F
:10251000B708CE010D960E945906CE010D960E9475
:10252000E8040E941409D82E0E948C07C82E0E942D
:10253000710CBC017727AE01495F5F4F7A018E01B4
:102540000F5F1F4F9E01235F3F4F4C2D8D2D90E05D
:102550000E94B30E019709F0AEC0498950E0405384
:10256000510924E6249FC001259F900D112448891C
:1025700050E09A0120533109B901660F771FA90174
:10258000440F551F440F551F440F551F9B01240F27
:10259000351F280F391F8F8590E0C097820F931F3A
:1025A00010ED1D0DE12EF12CB7010E94F7195C0111
:1025B000FB012E8530E020533109C901880F991F96
:1025C000220F331F220F331F220F331F280F391FF3
:1025D0008D8590E0C097820F931FB7010E94F71975
:1025E000A60EB71E54E6A516B1043CF0C50164E67C
:1025F00070E00E94F7195C013196CF0164E670E04B
:102600000E94F7197C01605D6D872AE030E0CF0100
:10261000B9010E94F719CB01B9010E94F719805D39
:102620008E87C701B9010E94F719805D8F87C501A8
:10263000B9010E94F719605D688B805D898B81E02C
:102640000E94280120E030E00DC0F901E556F94F65
:102650009081E2E1F0E0EC0FFD1FE20FF31F9083A9
:102660002F5F3F4F2630310584F31330C1F482E0F1
:102670000E94280180E090E00EC0FC013696DC014B
:10268000A556B94F2C9142E150E04C0F5D1FE40F6D
:10269000F51F20830196863091057CF302C089E006
:1026A000888FAE014E5E5F4FBE01635F7F4FCE01EC
:1026B00007960E94F0116D960FB6F894DEBF0FBE1C
:1026C000CDBFDF91CF911F910F91FF90EF90DF90E1
:1026D000CF90BF90AF9008958133910519F40E9477
:1026E0005F0F08958233910519F40E945A120895DC
:1026F000C39711F40E94350E0895DC0120E030E00C
:102700000CC0FD01E20FF31F4081FB01E20FF31F3C
:102710009081491308C02F5F3F4F263031058CF35D
:1027200081E090E0089580E090E00895CF93DF93FA
:10273000AC012FC09A012F5F3F4FF901EE0FFF1F31
:10274000DF01A20FB31FAA0FBB1FA05FB94FA60FD7
:10275000B71FAC91E20FF31FEE0FFF1FE05FF94FC1
:10276000E60FF71F1082FA01EE0FFF1FE40FF51FAF
:10277000EE0FFF1FE05FF94FE60FF71FA0836F5FBB
:102780007F4F02C060E070E0663071059CF24F5FE1
:102790005F4FA091A805B091A905BD0161507109D5
:1027A000461757077CF3EC0125C09E012F5F3F4F72
:1027B000F901EE0FFF1FEE0FFF1FE20FF31FEE50A8
:1027C000FA4FE40FF51F20811082FE01EE0FFF1F6C
:1027D000EE0FFF1FEC0FFD1FEE50FA4FE40FF51F39
:1027E00020834F5F5F4F02C040E050E0453051050D
:1027F000E4F22196C617D707BCF334C09C012F5FC3
:102800003F4FF901EE0FFF1FEF01C20FD31FCC0F97
:10281000DD1FCC0FDD1FC655DA4FC40FD51FC88191
:10282000E20FF31FEE0FFF1FEE0FFF1FE655FA4FEB
:10283000E40FF51F1082FC01EE0FFF1FE80FF91FD8
:10284000EE0FFF1FEE0FFF1FE655FA4FE40FF51FC7
:10285000C0834F5F5F4F02C040E050E04C305105F5
:102860006CF2019686179707BCF31197B093A905F0
:10287000A093A805DF91CF910895FC01EE0FFF1FF3
:10288000E80FF91FEE0FFF1FEE0FFF1FE655FA4F7F
:1028900028E020832681293011F40E9496130895A0
:1028A0000E94961308950F931F93CF93DF938C018B
:1028B000C0E0D0E00FC0CE01880F991F8C0F9D1F84
:1028C000880F991FB801805F994F0E947D1301976F
:1028D00051F021968091A8059091A905C817D907B4
:1028E00054F3CFEFDFEFCF3F8FEFD80741F1FE0179
:1028F000EE0FFF1FEC0FFD1FEE0FFF1FEE0FFF1F70
:10290000E655FA4F8081883031F0CE010E943D14A7
:1029100081E090E019C0FE01EE0FFF1FEC0FFD1FDC
:10292000EE0FFF1FEE0FFF1FE655FA4F868189302D
:1029300049F0CE010E94501481E090E005C080E093
:1029400090E002C081E090E0DF91CF911F910F9164
:10295000089580910001909101011816190614F450
:1029600081E0089580E00895CF93DF93C82FD0E0F1
:102970009E012F5F3F4F80910001909101018217CE
:1029800093070CF46EC081E00E94430680E80E9429
:102990004306AE0127C09A012F5F3F4FF901EE0FAA
:1029A000FF1FDF01A20FB31FAA0FBB1FA05EBE4F08
:1029B000A80FB91F6C91FD011082FA01EE0FFF1FE5
:1029C000E40FF51FEE0FFF1FE05EFE4FE80FF91F4B
:1029D0006083019602C080E090E086309105DCF2D1
:1029E0004F5F5F4F8091000190910101019748175F
:1029F00059078CF384E40E94080623C0FE01319637
:102A00009F01220F331F220F331FE20FF31FEE5FD0
:102A1000FE4FE80FF91F20811082FE01EE0FFF1F0D
:102A2000EE0FFF1FEC0FFD1FEE5FFE4FE80FF91FCB
:102A30002083019602C080E090E084309105F4F29A
:102A4000219680910001909101019C012150310952
:102A5000C217D30784F3309301012093000181E072
:102A600001C080E0DF91CF9108950F931F93CF9322
:102A7000DF938C01C0E0D0E010C0F801EE0FFF1F23
:102A8000E00FF11FEE0FFF1FE05EFE4FEC0FFD1F8A
:102A90008081805D0E9408062196C630D1056CF3C6
:102AA00086E795E00E941A06C0E0D0E010C0F80169
:102AB000EE0FFF1FEE0FFF1FE00FF11FEE5FFE4F47
:102AC000EC0FFD1F8081805D0E9408062196C530B5
:102AD000D1056CF381E895E00E941A0681E3800F2E
:102AE0000E940806DF91CF911F910F9108952091C8
:102AF000000130910101121613060CF07AC08130EA
:102B000021F5121613060CF50E94430680E80E9478
:102B1000430680E090E00E9435158091000190917D
:102B2000010102973CF080EC0E94430681E090E0B6
:102B30000E9435152FEF8DE490E7215080409040A2
:102B4000E1F700C0000081E00895823041F52330B4
:102B500031052CF12330310554F081E00E94430609
:102B600080E80E94430682E090E00E943515809143
:102B700000019091010104973CF080EC0E94430613
:102B800083E090E00E9435152FEF8DE490E721500F
:102B900080409040E1F700C0000081E0089583305C
:102BA00051F5243031054CF12530310554F081E0E8
:102BB0000E94430680E80E94430684E090E00E9461
:102BC0003515809100019091010106973CF080EC51
:102BD0000E94430685E090E00E9435152FEF8DE4BA
:102BE00090E7215080409040E1F700C0000081E074
:102BF000089580E0089581E0089581E008958F921E
:102C00009F92AF92BF92DF92EF92FF920F931F932A
:102C1000CF93DF93CDB7DEB72C970FB6F894DEBF16
:102C20000FBECDBF4C01FC01808181117FC089E1C5
:102C300080830E94080C81E080939206A12CB12C25
:102C40006FC00E947605F4018083893019F41092D8
:102C5000920666C08B3009F063C01092920654C091
:102C60000E94B60AAE01495F5F4FBE01675F7F4FAA
:102C7000CE010B960E94FB0FD82E882329F1FFEF7F
:102C8000AF1ABF0A0E94E20AAE014F5F5F4FBE015A
:102C90006D5F7F4FCE0105960E94F410D82E8823D9
:102CA000C1F0CE0101967C018E010D5F1F4F9E0188
:102CB0002B5F3F4FAE01495F5F4FBE01675F7F4FA4
:102CC0000A960E94860006C080E0AA24AA94BA2C24
:102CD00001C080E0882341F0DD2031F00E940E0B1E
:102CE000AA24AA94BA2C0DC0DD2019F00E94290B49
:102CF00008C0D11006C09FEFA916B90611F0A12C8B
:102D0000B12C89E1F4018083F2E0AF16B1042CF418
:102D10002FEFA216B20609F0A3CF89E0F401808359
:102D2000F4018081893009F08CCF64C0813099F43E
:102D30000E94A914882361F00E94ED0B81E00E949B
:102D4000771582E00E94771583E00E94771552C0C4
:102D50000E94660B4FC0823051F50E94720A0E9499
:102D6000CC0F89E1F401808304C00E947605F40150
:102D70008083F40180818931C1F3823020F4C40161
:102D80000E94B60F10C083E00E94430684E895E0DD
:102D90000E941A06FFEF23ED80E3F15020408040AF
:102DA000E1F700C0000089E1F401808323C0833093
:102DB00009F50E94A9148823C1F00E94D20B89E171
:102DC000F401808304C00E947605F4018083F4013D
:102DD00080818931C1F30E94B414882319F00E94C4
:102DE0000E0B05C00E94810B02C00E94660B89E198
:102DF000F401808389E1F40180832C960FB6F89466
:102E0000DEBF0FBECDBFDF91CF911F910F91FF901D
:102E1000EF90DF90BF90AF909F908F9008950F93A9
:102E20001F93CF93DF938C010E949C0B0E94B70BE2
:102E3000C0E0D0E007C0F801EC0FFD1F80810E94C8
:102E4000C2052196CD30D105B4F30E944D0C8F34CC
:102E500021F40E94A60781E001C080E0DF91CF91BC
:102E60001F910F910895CF93DF93CDB7DEB763978E
:102E70000FB6F894DEBF0FBECDBF20E030E01FC01C
:102E8000FC01EE0FFF1FE80FF91FEE0FFF1FE05FC1
:102E9000F94FE20FF31F4081E1E0F0E0EC0FFD1F7E
:102EA000E20FF31F4083F901329667E070E06C0F88
:102EB0007D1FE60FF71F405D40832F5F3F4F263099
:102EC0003105F4F220E030E01AC0A901485F5F4FFD
:102ED000FC01EE0FFF1FEE0FFF1FE80FF91FEE5072
:102EE000FA4FE20FF31F6081E7E0F0E0EC0FFD1F07
:102EF000E40FF51F40E3460F40832F5F3F4F25301F
:102F000031051CF381E48F8380E588878DE08B8B0E
:102F1000CE0107960E940F17882331F0CE0101964B
:102F20000E9453140E940E0B63960FB6F894DEBFF6
:102F30000FBECDBFDF91CF9108950F931F93CF9315
:102F4000DF9300D000D000D0CDB7DEB70E946A0278
:102F500080E090E025C0FC01EF55F94F2081E1E0D1
:102F6000F0E0EC0FFD1FE80FF91F20532083FC0158
:102F7000EC55F94F2081E3E0F0E0EC0FFD1FE80F86
:102F8000F91F20532083FC01E955F94F2081E5E02A
:102F9000F0E0EC0FFD1FE80FF91F2053208301968E
:102FA00082309105C4F200E010E0D9C0F801EE0FC4
:102FB000FF1FE00FF11FEE0FFF1FEE0FFF1FE65583
:102FC000FA4F8081883009F451C09981891351C02A
:102FD000F801EE0FFF1FE00FF11FEE0FFF1FEE0FC6
:102FE000FF1FE655FA4F91818A81981345C0F80179
:102FF000EE0FFF1FE00FF11FEE0FFF1FEE0FFF1F81
:10300000E655FA4F92818B81981339C0F801EE0F83
:10301000FF1FE00FF11FEE0FFF1FEE0FFF1FE65522
:10302000FA4F93818C8198132DC0F801EE0FFF1F8A
:10303000E00FF11FEE0FFF1FEE0FFF1FE655FA4FD7
:1030400094818D81981321C0F801EE0FFF1FE00FCE
:10305000F11FEE0FFF1FEE0FFF1FE655FA4F958190
:103060008E819817A9F02FEF3FEF13C02FEF3FEF9E
:1030700010C02FEF3FEF0DC02FEF3FEF0AC02FEF33
:103080003FEF07C02FEF3FEF04C02FEF3FEF01C02E
:103090009801F801EE0FFF1FE00FF11FEE0FFF1F69
:1030A000EE0FFF1FE655FA4F9681993009F44FC095
:1030B000898198134CC0F801EE0FFF1FE00FF11F3C
:1030C000EE0FFF1FEE0FFF1FE655FA4F97818A8123
:1030D00098133DC0F801EE0FFF1FE00FF11FEE0F38
:1030E000FF1FEE0FFF1FE655FA4F90858B81981357
:1030F0002EC0F801EE0FFF1FE00FF11FEE0FFF1FB4
:10310000EE0FFF1FE655FA4F91858C8198131FC073
:10311000F801EE0FFF1FE00FF11FEE0FFF1FEE0F84
:10312000FF1FE655FA4F92858D81981310C0F80164
:10313000EE0FFF1FE00FF11FEE0FFF1FEE0FFF1F3F
:10314000E655FA4F93858E81981301C09801211599
:10315000310519F0C9010E9433170F5F1F4F80918D
:10316000A8059091A905081719070CF41FCF2696FA
:103170000FB6F894DEBF0FBECDBFDF91CF911F9188
:103180000F9108951F920F920FB60F9211242F9353
:103190003F934F935F936F937F938F939F93AF93DF
:1031A000BF93EF93FF930E94AA0180919206811131
:1031B0000E94080C8091940690E00E94C9058093BB
:1031C0009406883731F41092940698B180E18927EB
:1031D00088B980919306882319F08F5F80939306B6
:1031E000809157018B3031F4909197069F5F9093B7
:1031F000970602C010929706893031F480919606A6
:103200008F5F8093960602C0109296068091970673
:10321000833061F480919506811108C08CE00E9492
:1032200043061092970681E080939506809196065A
:10323000843059F480919506813039F488E00E94F9
:103240004306109296061092950680919A068C304D
:1032500021F0823111F0863151F48091990681116B
:1032600006C080919806833010F40E949D170E943A
:10327000A914882329F098B180E2892788B903C06E
:1032800088B18F7D88B9FF91EF91BF91AF919F91E8
:103290008F917F916F915F914F913F912F910F90FF
:1032A0000FBE0F901F90189584E08093800080934C
:1032B0008100109285001092840084E294EF909334
:1032C000890080938800EFE6F0E08081826080834F
:1032D00078940895CF93DF93CDB7DEB72C970FB6D0
:1032E000F894DEBF0FBECDBF0E946B0083E390E079
:1032F0000E94B7050E94AF060E9454198CE00E94FC
:1033000043060E94620786E0EFE6F1E0DE011196D7
:1033100001900D928A95E1F786E0E5E7F1E0DE01A4
:10332000179601900D928A95E1F7AE014F5F5F4FBE
:1033300063E975E0CB010E94FA02AE01495F5F4F7D
:103340006AE975E081EA95E00E94FA0201E0002353
:1033500041F087E591E00E9412088093560100E059
:103360000CC087E591E00E949F0A811106C087E5A5
:1033700091E00E9412088093560189E180935701E1
:10338000109156011123E1F0812F0E94F50F88233F
:10339000A1F083E00E9443060E94500704C00E94EF
:1033A0007605809357018091570190E0C196843350
:1033B0009105ACF70E946C1303C0812F0E94440B4F
:1033C000809156018111C3CF0E94400A89E1809308
:1033D000570104C00E9476058093570180915701E0
:1033E0008931C1F387E591E00E94FF15B0CF97FBCB
:1033F000072E16F4009407D077FD09D00E94111A09
:1034000007FC05D03EF4909581959F4F08957095E7
:1034100061957F4F0895EE0FFF1F0590F491E02D09
:103420000994AA1BBB1B51E107C0AA1FBB1FA6170B
:10343000B70710F0A61BB70B881F991F5A95A9F75D
:0E34400080959095BC01CD010895F894FFCFC2
:10344E000300010205080901040705080506020329
:10345E00000000000000000000000000000000005E
:10346E0007080904050507050301050901050907F4
:10347E000503000000000000000000000000000036
:10348E0000000000010146464646303132333132EB
:10349E003334323334350A19303030303030202066
:1034AE002020203031323331323334323334353818
:1034BE0030303030303030323030305B315D2041A2
:1034CE0056205B325D204150005B335D20457374A6
:1034DE006F726E6F0020202020204D69635061793D
:1034EE0000202020202020203A29004D65746F6492
:1034FE006F2064652070676D743A005B315D2064E7
:10350E006562205B325D2063726564004170726F8C
:10351E00782E2F496E73697261004F75206E726F2F
:10352E002043617274616F004F702E207265616C62
:10353E00697A61646100636F6D207375636573737F
:10354E006F004F702E206E656761646100436F6E71
:10355E00746120636F6D2066616C68610053616CED
:10356E00646F20696E7366632E0053656E6861200A
:10357E00636F6D2066616C686100496E736972617C
:10358E0020612053656E68610042656D2056696E3C
:10359E00646F0041646D696E6973747261646F72F9
:1035AE00004F70657261646F722031004F706572EA
:1035BE0061646F7220320043617274616F206573B3
:1035CE00746F726E6F3A0056616C6F722065737411
:1035DE006F726E6F3A005224200053656E68612040
:1035EE00284F50293A0056616C6F72202861207660
:1035FE0069737461293A0056616C6F722028746F7A
:10360E0074616C293A0056656E646120696E74654A
:10361E00726E61007265616C697A61646120005638
:10362E00656E64612063616E63656C616461004CFC
:10363E00696D697465206174696E6769646F2000D5
:10364E004E722E2064652070617263656C61733AF0
:10365E0000496E7369726120612073656E68613A0C
:10366E00200043617274616F20286E756D65726FF4
:10367E00293A2000416775617264616E646F2000A3
:10368E007365727669646F722E2E2E2000736572CA
:10369E007669646F722E2E2E202832290073657281
:1036AE007669646F722E2E2E202833290053656C96
:1036BE006563696F6E65206F207175650071756544
:1036CE007220636F6E666967757261723A00312D92
:1036DE004461746120322D5665722E50656E003332
:1036EE002D4F70657220342D4465732E50656E001B
:1036FE0053656C6563696F6E65206F206F706572C0
:10370E0000702F206861622F6465736861623A00F1
:10371E00446573656A61206D75646172206465002D
:10372E006D6F646F3F202A3A4E2020233A53006675
:10373E006F726D61746F3A20002020202064642F18
:10374E006D6D2F797900696E736972612061206EDB
:10375E006F766100646174613A2000202020206839
:10376E00683A6D6D3A737300686F72613A20004F5C
:10377E007065726163616F00436F6E636C7569642F
:10378E006121004461746120494E56414C494441C7
:10379E0021004461746120696E616C7465726164AC
:1037AE0061004F70657261646F72200044657361D1
:1037BE0062696C697461646F004E616F206861208C
:1037CE000050656E64656E63696173004F504341CE
:1037DE004F2000494E56414C49444100436F62729E
:1037EE00616E646F0050616773204167656E64613E
:1037FE00646F7300416775617264616E646F00532C
:10380E00697374656D6100496E666F726D65206FC8
:10381E00206E756D65726F0064612070656E6465F3
:10382E006E6369613A004F7264656D206461732046
:10383E00696E666F733A0063617274616F207661B0
:10384E006C2E50656E00446174613A200020452351
:10385E0000486F72613A200020562A004572726F3E
:10386E00206E6100436F6D6F6E69636163616F20DF
:10387E004578742E004F7065723120006465736850
:10388E00616220202D310068616220202020202DD1
:10389E0031004F706572322000646573686162207A
:1038AE00202D320068616220202020202D32002041
:1038BE00202F20202F20200020203A20203A2020C8
:1038CE0000202D004F7063616F20496E76616C6928
:1038DE0064610031323334353600313131313131BA
:0838EE000030303030303100B1
:00000001FF
