S00F00006D69635F7061792E7372656333
S11300000C9440000C945D000C945D000C945D0015
S11300100C945D000C945D000C945D000C945D00E8
S11300200C945D000C945D000C945D000C947A01BA
S11300300C945D000C945D000C945D000C945D00C8
S11300400C945D000C945D000C945D000C945D00B8
S11300500C945D000C945D000C945D000C945D00A8
S11300600C945D000C945D00BB00D300BD00BF0088
S1130070C100C300C500C700C900CB00CD00CF003C
S113008011241FBECFEFD8E0DEBFCDBF11E0A0E04A
S1130090B1E0E6E9F5E002C005900D92A633B107A0
S11300A0D9F721E0A6E3B1E001C01D92A833B2075D
S11300B0E1F70E9484020C94C9020C94000087B1F9
S11300C0807F87B98AB18F788AB988B18F6088B9FF
S11300D080E026C09AB120E130E0082E02C0220F51
S11300E0331F0A94E2F7292B2AB9E7ECF0E03197A1
S11300F0F1F700C0000090E010C026B130E0092EF6
S113010002C0359527950A94E2F720FD05C0292FF2
S1130110220F920F890F08959F5F943070F38F5FC1
S11301208330C0F289E108951F93CF93DF930E9437
S11301305F00182FD0E00FC08FE79EE30197F1F71F
S113014000C000000E945F00C82F181302C0DF5FC8
S113015001C0D0E01C2FDA3078F38C2FDF91CF91DF
S11301601F91089590E08C309105D8F4FC01EC5C6B
S1130170FF4F0C94C30281E0089583E0089584E066
S1130180089585E0089586E0089587E0089588E05D
S1130190089589E008958AE008958BE008958CE03D
S11301A0089589E1089582E0089595B19F7795B9FE
S11301B095B19F7B95B995B19F7D95B995B19F7E7A
S11301C095B988231CF495B1906895B986FF03C04E
S11301D095B1906495B985FF03C095B1906295B9C6
S11301E084FF03C085B1806185B985B1826085B91A
S11301F085E08A95F1F7000085B18D7F85B985E0AA
S11302008A95F1F700000895CF93C82F85B18160D6
S113021085B985B18D7F85B98C2F0E94D5008C2F2F
S11302208295807F0E94D500CF9108950F931F93EC
S1130230CF93DF9300D0CDB7DEB78C011A82198239
S113024010C0E981FA81E00FF11F80810E9404014E
S113025089819A8101969A83898385ED8A95F1F73C
S11302600000E981FA81E00FF11F80818111E9CF5B
S11302700F900F90DF91CF911F910F910895CF931D
S1130280C82F85B18E7F85B985B18D7F85B98C2FB7
S11302900E94D5008C2F8295807F0E94D50085ED29
S11302A08A95F1F70000CF91089583EF84B985B161
S11302B08E7F85B985B18D7F85B980E30E94D50095
S11302C08FE39CE90197F1F700C0000088E20E94E7
S11302D0D50095ED9A95F1F7000088E20E943F0160
S11302E088E00E943F0181E00E943F0186E00E9475
S11302F03F0108951F920F920FB60F9211242F936E
S11303003F934F935F936F937F938F939F93AF9399
S1130310BF93EF93FF93809106018B3031F480916A
S113032037018F5F8093370102C0109237018091AB
S113033037018330C1F480913601882349F080E885
S11303400E943F0188E00E943F011092360109C0DB
S113035080E80E943F018CE00E943F0181E080938D
S1130360360110923701FF91EF91BF91AF919F91A8
S11303708F917F916F915F914F913F912F910F904A
S11303800FBE0F901F90189584E080938000809397
S11303908100109285001092840084E294EF90937F
S11303A0890080938800EFE6F0E08081826080839A
S11303B078940895FF920F931F93CF93DF930E9435
S11303C094000E94B200C82F80EC0E943F01F12CDF
S11303D000E010E0D1E08BC00E949400C82F893166
S11303E009F447C08B3009F444C0893009F441C092
S11303F08A30C1F1D230B9F018F4D13031F032C0C2
S1130400D330E1F0D43051F12DC090E0019648EEA4
S113041053E0849F9001859F300D949F300D1124EB
S1130420020F131F1FC090E0019644E6489F9001FD
S1130430499F300D1124020F131F14C090E0019640
S11304409C01220F331F880F991F880F991F880F53
S1130450991F820F931F080F191F04C090E0019683
S1130460080F191FDF5F87E091E00E941601FC2E40
S11304703EC0C930E1F5D230D0F1D150D230C1F014
S113048018F4D13031F033C0D330F9F0D43051F115
S11304902EC08F2D90E0019648E15CEF849F90017F
S11304A0859F300D949F300D1124020F131F1FC020
S11304B02F2D30E02F5F3F4F4CE94203C001439F93
S11304C0900D1124080F191F12C02F2D30E02F5F3B
S11304D03F4F46EF4203C001439F900D1124080F84
S11304E0191F05C08F2D90E00196081B190BCB3006
S11304F009F072CFD53008F46FCFC801DF91CF91E6
S11305001F910F91FF900895CF930E9455010E946F
S1130510C40104C00E9494008093060180913601B6
S11305208823C1F389E18093060189E091E00E9468
S11305301601C0E022C00E94DA012091040130912A
S113054005018217930731F488E191E00E941601B6
S1130550C1E013C020910201309103018217930777
S113056039F020910001309101018217930729F499
S113057086E291E00E941601C1E0CC23E1F280E022
S113058090E0CF910895EE0FFF1F0590F491E02DB8
S10905900994F894FFCF6A
S113059602000100D204192A00496E7369726120AF
S11305A6612053656E68610062656D2076696E64CC
S11305B66F2041646D0062656D2076696E646F20FC
S10905C6555345520000EC
S9030000FC
